:020000040102F7
:1000000068580020F9000201010102010301020108
:1000100000000000000000000000000000000000E0
:1000200000000000000000000000000005010201C7
:1000300000000000000000000701020109010201A8
:100040000B0102010B0102010B0102010B01020174
:100050000B0102010B0102010B0102010B01020164
:100060000B0102010B0102010B0102010B01020154
:100070000B0102010B0102010B0102010B01020144
:100080000B0102010B0102010B0102010B01020134
:100090000B0102010B0102010B0102010B01020124
:1000A0000B0102010B0102010B0102010B01020114
:1000B0000B0102010B0102010B0102010B01020104
:1000C0000448854600F086F9004800475132020195
:1000D000C046C0466858002040BA7047C0BA704752
:1000E0000138FDD17047000040BA7047C0BA704770
:1000F0000138FDD17047000004488047044800479C
:10010000FEE7FEE7FEE7FEE7FEE7FEE7590A02012B
:10011000C100020130B50B46014600202022012417
:1001200009E00D46D5409D4205D31D469540491B2B
:100130002546954040191546521E002DF1DC30BD74
:100140000549064A08685043054A80180860400877
:100150007047014908607047284400206D4EC64131
:100160003930000003460B439B0703D009E008C960
:10017000121F08C0042AFAD203E00B780370401C57
:10018000491C521EF9D27047D2B201E00270401CE5
:10019000491EFBD270470022F6E710B513460A4607
:1001A00004461946FFF7F0FF204610BD30B504465F
:1001B0000020034600E05B1C934203D2E05CCD5C70
:1001C000401BF8D030BD024670B54A40D30FDB0764
:1001D00040002DD04A002AD0010E140E0002120257
:1001E0000919400A520A8418E50104465443000ADA
:1001F000120A2E045043A4194219200CC543AA1810
:10020000120C0125AD03521C521912047F3924042B
:1002100000D0521C104301D44000491EC2B20C064B
:10022000C0092018401C4008802A02D003E00020AA
:1002300070BD40084000002900DA0020184370BD5E
:1002400070B502464A40D50F40004A00ED0740080D
:100250005208002814D0002A12D0C40DD30D410238
:100260000120C0055202490A520AE41A091812185C
:100270007D34914201D3641C00E04900002C01DA76
:10028000002070BD0023914201D3891A0343400826
:1002900049000028F7D100290AD0914202D101215A
:1002A000C90705E0914201D2012101E00121C943C2
:1002B000E005C018401900F04CF870BD10B50022E0
:1002C0009623114600F04DF810BD41004002012276
:1002D000400AD205090E80187F2901DA00207047F4
:1002E000962903DC9622511AC840704796398840F7
:1002F0007047F0B51FB40646002082B00546402482
:10030000019100901BE0019922460F46304600F013
:1003100083F8049A059B801A994110D31046194618
:10032000224600F069F8361A8F41019722460120D3
:100330000021009F00F060F838184D4100902046E1
:10034000641E0028DFDC019B00982946324607B076
:10035000F0BD002904DA401C490001D140084000EA
:10036000704770B40024050C05D11024000402D19C
:10037000002921D01124050E01D100020834050FF7
:1003800001D10001241D850F01D18000A41C00288B
:1003900001DB4000641C002908D020252E1B0D46DF
:1003A000F540A14000D001212943084301061B1B51
:1003B000000ADB1D02D5002070BC7047DB05181851
:1003C00080180029F8DA401C4900F5D170BC4008BB
:1003D00040007047064C0125064E05E0E36807CC57
:1003E0002B430C3C98471034B442F7D3FFF76CFE14
:1003F000446802016468020110B5202A04DB01464A
:10040000203A9140002010BD914020239C1A0346C1
:10041000E3401943904010BD10B5202A04DB084684
:10042000203AD040002110BD0B46D340D0402024BC
:10043000A21A91400843194610BD70B58C18057872
:10044000401C6B075B0F01D10378401C2A1106D1B9
:100450000278401C03E006780E70401C491C5B1EAD
:10046000F9D12B0705D40023521E0DD40B70491C63
:10047000FAE70378401CCB1A921C03E01D780D703C
:10048000491C5B1C521EF9D5A142D8D3002070BD77
:1004900003B40148019001BD232A000003B40148C0
:1004A000019001BD397B010003B40148019001BDF9
:1004B000B17B010003B40148019001BDBD80010082
:1004C00003B40148019001BDAF7F000003B40148AF
:1004D000019001BD1979010003B40148019001BDEB
:1004E000B551000003B40148019001BD2D7A01000F
:1004F00003B40148019001BDD37E000003B401485C
:10050000019001BDD97C010003B40148019001BDF7
:10051000697E000003B40148019001BDC37F000063
:1005200003B40148019001BDB57C010003B401484A
:10053000019001BD7910000003B40148019001BD94
:100540009D7B010003B40148019001BD3D2A0000DC
:1005500003B40148019001BD9957000003B401485C
:10056000019001BD6D56000003B40148019001BD2A
:10057000ED57000003B40148019001BDE9540000AB
:1005800003B40148019001BD1D7C000003B4014883
:10059000019001BD617D010003B40148019001BDDE
:1005A000AB52000003B40148019001BDAD780100D9
:1005B00003B40148019001BD957D010003B40148D9
:1005C000019001BDDD7D010003B40148019001BD32
:1005D000E579010003B40148019001BDFD7A0100F5
:1005E00003B40148019001BDF58F000003B4014838
:1005F000019001BDE1FE000003B40148019001BD7E
:10060000250E010003B40148019001BDB143000073
:1006100003B40148019001BDA17C010003B401486D
:10062000019001BD852900000149012088607047C3
:100630000030024001494861704700000004014059
:10064000054B002219685B690140034202D0002972
:1006500000D00122104670470004014010B4837995
:1006600019490268002B28D00B6893430B604A6835
:1006700003689A434A600279521813680468234356
:1006800013608A6803689A438A60CA6803689A4359
:10069000CA604279102A06D051180A6800680243DD
:1006A0000A6010BC70478A6803681A438A60CA6887
:1006B00000680243CA6010BC7047007940180168A6
:1006C0009143016010BC7047000401400B68002298
:1006D000002B56D0F0B401240B68944023424AD03A
:1006E0004B68022B01D0122B16D113070AD5456A8D
:1006F0005307DB0E0F269E40B5434E699E402E43A6
:10070000466209E0056A5307DB0E0F269E40B5439B
:100710004E699E402E4306624B68012B05D0112B7B
:1007200003D0022B01D0122B06D14568DB06DB0F6C
:10073000A54393402B4343600568530003279F4024
:100740000E79BD43B607B60F9E402E430660C568BE
:100750008E68BD439E402E43C66085680126A54332
:10076000CC6894402C438460C46A9E400D69B443B5
:100770009D402543C5620B68521CD340ABD1F0BCF1
:100780007047704705490160002242600F21826076
:10079000416101210261C16070470000FF3F00001C
:1007A0008162704742694A404261704701807047E8
:1007B0000549884207D10548026A01040A430262DA
:1007C000026A8A43026270470048004000100240FB
:1007D0000246128800200A4200D001207047000023
:1007E000F0B50546008989B00E4600242C49F288F0
:1007F0000840B1887389114332891A431143014378
:100800002981284885420AD1002000F0F3F801210F
:100810008906CF12884206D02349884203D001A816
:1008200000F0AEF8039F31683846FFF773FC0A28E2
:1008300008D80122298992038904890C29812989F0
:10084000114304E029898904890C29812989298196
:10085000A881366838463146FFF75CFC08461349E4
:1008600048433146FFF756FC002607900090079951
:10087000069040180D490090FFF74CFC07460B49C5
:100880000698FFF747FC874202D00120A0400643AC
:10089000641C082C01D20098E9E72E7509B0F0BD60
:1008A000F470000000480040200000041027000001
:1008B0000174704710B5EFF31084012181F31088A3
:1008C000FF210906401803490968884784F3108806
:1008D00010BD0000004000200448034901600449A5
:1008E0004160044981607047AD4000200040002015
:1008F000414100201540002010B5EFF31084012382
:1009000083F31088FF231B06C018034B5B689847CE
:1009100084F3108810BD000000400020002808D19A
:100920000448026A01239B069A430262026A0A4350
:100930000262704700100240044A0029516901D048
:10094000014300E081435161704700000010024004
:10095000044A0029916901D0014300E0814391617B
:1009600070470000001002400449CA030128086AC9
:1009700002D09043086270471043FBE7001002402A
:1009800030B4164A516804231940154B01D004298C
:1009900001D0036001E0134901605168124B8906E0
:1009A000890F5B5C0168D940416053680F4C5B055F
:1009B0005B0FE35C0D46DD40856053689B045B0F75
:1009C000E35CD940C160D16AC90601D5084901E09C
:1009D0007D21C903016130BC704700000010024056
:1009E0000090D0030048E8015463020158630201FB
:1009F00000093D000248006A0249084070470000B3
:100A00000010024020000004F0B5104DD1B028695C
:100A1000411C01D0002813D1FF2204AC0B4F342617
:100A200041320B4968460134FFF79CFB01203246F6
:100A300039460003A0472869411C04D0002802D091
:100A4000044851B0F0BD002051B0F0BD2C4400204E
:100A50001462020155440020F0B5544CD3B0E06953
:100A600021040843E0618120514D0006286351486C
:100A700068615148286251480322016892039143FA
:100A800001604F4805AEFF22009034270136413205
:100A90004C4901A8FFF766FB3A46A0140099B047FD
:100AA000474B494F1869494E411C29D0002827D08F
:100AB000A9691A7849094901D206D20E0A43AA61E6
:100AC0002268E9138A43226021687F22120291433F
:100AD0000002084320606068B101084360606068FC
:100AE000B8436060606830436060206A38490840FD
:100AF0002062206AD96809020843206253B0F0BD21
:100B000062682046012109040A4362606168B943B2
:100B10006160616831436160002102917D21C900FB
:100B200001910021009101687F2749044D0E016861
:100B300000240122D2039143016016111B49086869
:100B40007F22120290432A0202430A600520FFF727
:100B5000C7FA0120FFF7C4FA1448406B800704D499
:100B600020460199641C8842F3D91048C06B80B2BA
:100B7000B04201D9811B00E0311AB04201D32F46A7
:100B800000E000950098C019C005000EA84203D0EF
:100B9000054602988142D1D8044841684908490075
:100BA000416041684907FCD453B0F0BD00100240D9
:100BB000007000400F080000180002000010014003
:100BC0002C44002014620201000700000004000011
:100BD000FF00F8FFFFB58BB0149C00251E460746AA
:100BE00065570246009502A8231D0D9905F022F9CC
:100BF00002A8014623460A4605F00CF93946234669
:100C000002AA084605F006F90D99234602AA0846ED
:100C100005F000F93146231D009508460C9A05F0B1
:100C200009F9324602A82346114605F0F3F802A955
:100C3000231D3A460846009505F0FCF802A9231D3D
:100C4000009508460D9A05F0F5F80D99231D3A46D2
:100C50000095084605F0EEF80C99234608460D9AD3
:100C600005F0D8F8231D02AA394600950D9805F025
:100C7000E1F83146234608460D9A05F0CBF8314697
:100C8000231D009508460C9A05F0D4F82A4602A9BF
:100C90000D9805F08CF90FB0F0BD00000FB410B541
:100CA00003A9044B044A029800F008F810BC08BCE1
:100CB00004B01847CD1E0201C4010020FFB591B059
:100CC0000F460546002606E025280AD0149A1399F7
:100CD00090476D1C761C28780028F5D1304615B059
:100CE000F0BD002400940121F34A029400E0044383
:100CF0006D1C2B780846203B98401042F7D128788D
:100D00002A280ED00222287801463039092915D820
:100D100000990A2359433039401814436D1C009040
:100D2000F1E701CF0090002805DA012040030443D9
:100D3000009840420090022004436D1C28782E2821
:100D400015D10420044368786D1C2A280AD101CFEC
:100D50006D1C02900BE002990A2251433039401871
:100D60006D1C02902878014630390929F3D928787A
:100D70006C2810D006DC4C281AD068280ED06A28BF
:100D800017D104E0742813D07A2812D110E0012082
:100D9000400504430CE00121090501E00321090598
:100DA0000C436978814203D10120000524186D1C91
:100DB0006D1C28786E281ED00CDC632831D004DC32
:100DC00000288BD0582811D1B2E064287BD0692844
:100DD0000CD178E073282DD004DC6F2870D07028F7
:100DE00004D1A7E075286CD078286BD0149A139999
:100DF0009047761C62E06002400F022807D003286B
:100E00000AD0042838680AD006603F1D56E03868CA
:100E1000F11706604160F8E738680680F5E706706C
:100E2000F3E73878694608740020487404A80390F2
:100E3000012003E0386803900020C0433F1D610794
:100E40000FD5002101E00199491C029A01919142BC
:100E500013DA8142F7DB019A0399895C0029F2D108
:100E60000BE0002101E00199491C01918142FADB6C
:100E7000019A0399895C0029F5D101990098139A88
:100E8000401A00902146149B00F03CF9019980190A
:100E9000461807E0039803990078491C0391149AB7
:100EA000139990470198401E0190401CF2D12146B1
:100EB000149B139A009800F015F986196D1C0AE727
:100EC00041E033E034E00A20002104900591600203
:100ED000410F022905D001CFC2179446032905D03E
:100EE00007E0FF1DFF08FF0003CF06E000B2C217B6
:100EF0009446042902D140B2C1178C4600226146B3
:100F0000944506DA0A460021404291418C462D2143
:100F100002E0210504D52B216A461176012103E068
:100F2000E10701D02021F7E7019155E00A200BE00D
:100F3000102009E010200490002104200443082020
:100F40000591029003E008200021059104906002C1
:100F5000410F022905D001CF00229446032906D073
:100F600006E0FF1DFF08FF0003CF8C4603E080B2C0
:100F7000042900D1C0B20021019121072CD5297884
:100F80000391702906D0049A1021059B4A401A4308
:100F900005D00EE040216A461176012108E0614645
:100FA000014306D030216A46117603995176022119
:100FB0000191049A0821059B4A401A430CD16146CD
:100FC000014301D1610707D530216A46117601211D
:100FD00001910299491E02912978582904D037A11C
:100FE00003910FA90F910DE039A1F9E76146059B27
:100FF000049AFFF77EF9039B8C469B5C0F9A521E66
:101000000F92137061460143F0D10F9807A9081A97
:1010100020300390600704D5012000048443029827
:1010200001E0012002900399884201DD401A00E0AE
:10103000002041180290019809180098401A009069
:10104000E00306D42146149B139A009800F05AF846
:1010500086190020049008E006A9085C149A1399E8
:1010600090470498401C761C049001998842F3DB59
:10107000E0030CD52146149B139A009800F042F827
:10108000861904E0149A302013999047761C02992F
:10109000481E02900029F5DC08E00F980F990078AF
:1010A000491C0F91149A13999047761C0399481E76
:1010B00003900029F1DCFAE60928010030313233CF
:1010C0003435363738396162636465660000000084
:1010D000303132333435363738394142434445466E
:1010E00000000000F8B5044600251E461746880497
:1010F00004D405E039462020B0476D1C641EF9D5A4
:101100002846F8BDFFB50446002581B01E46C80339
:1011100001D5302700E02027880404D505E03846B3
:101120000399B0476D1C641EF9D5284605B0F0BD83
:1011300000B599B060216846FFF72DF8042008AA91
:10114000D07012A0006801900B2010AAD070024647
:1011500010A109A8FFF706F8002010AA10710121BC
:101160005171D071917190731175D082A02010834C
:101170009176B420908319208001D0830848009094
:10118000684602F02DFA19B000BD000003160A18D7
:10119000000000000AFFFFFF4E6174696F6E73006C
:1011A000A51102017047000010B58CB00024009416
:1011B000019402940394049405940694079408946B
:1011C00009940A94FFF720FC002804D0014601A8E6
:1011D000FFF75EF907E011A001886A469180418817
:1011E000D180808810816946CC704C810A2088703B
:1011F00007220A7303A80BA10130FEF7B3FF0620F4
:101200006946088418224A848884FF20F530C884FF
:101210000C85684602F09CFA0CB010BD8922774418
:10122000556600004E4154494F4E530000B583B0FF
:10123000002002900C4800900C4801900120694663
:101240000872684602F0C0FBFFF7AEFF00F02EF810
:10125000FFF76EFF064802F037F9064802F034F94E
:1012600002F0DEF903B000BD79120201211802017B
:101270000D1402011916020110B50078012806D0DC
:10128000022803D0032801D102F0CAF910BD02A040
:10129000FFF704FD10BD00004150505F424C455F18
:1012A0004F535F52454144590D0A000000B587B0C5
:1012B000002001900090039004906A4606901073FD
:1012C0000C49029105219170032313701023D370F0
:1012D000507010710123537190715073064805903E
:1012E0007D20917300011082104603F02DFC07B0A1
:1012F00000BD000040E2010000B0030110B502484B
:1013000002F05CFD002010BD5847002035480079F0
:10131000002866D1F8B56D202C2303220721400157
:10132000FFF7BCF8A021044601702F480026C178C1
:10133000617026710321E1806672012767710721C0
:101340002A4D2177A9796177687B002803D0E68050
:10135000032060710EE0E87900280BD0A8790228FC
:1013600000D167772771E7802046A9792030417046
:101370008770067003F0DCFB002804D020460A309A
:1013800002F086FD07E01A498A8A6281CA8AA28130
:10139000098BE181267413488079022804D0032840
:1013A00010D0042816D111E003F0C2FB002806D0AB
:1013B0000520E0806671688A6061688A09E00949F1
:1013C00003208871288B6061288B02E0E88B6061C4
:1013D000E88BA0612046FFF767F802480771477164
:1013E000F8BD7047A846002038470020A4470020D9
:1013F00028470020BFF34F8F03490248C860BFF35E
:101400004F8FFEE70400FA0500ED00E010B584B050
:101410000A23032207211048FFF740F81B2101701F
:10142000002141701424448003228280C1800B4A31
:101430000281FFF739F86846048009480190684640
:1014400002F08AFA684604810648039002A803F075
:1014500003FD04B010BD00001B0D0000FF010000E3
:1014600024680201911A0201FFB585B0054602A861
:1014700000901C462846069903F00AFC6846007A4C
:10148000002866D006980090280A334A01940390F9
:101490000E2826D0314800240178002951D92F4840
:1014A000E1000818828803998A4240D1009A816835
:1014B0009646019A284694460A791206120E36D0AC
:1014C0000968254BD700083FCE1937887668BFB228
:1014D000874201D09F4226D1634603227146B0471E
:1014E00025E01F49681809282BD800981D49844613
:1014F00008792E4600062346000E1ED0C4000F6851
:10150000083C3C1927886468BFB2B74201D09742B3
:1015100004D1032261462846A0470EE0401E000683
:10152000000EEBD109E0521E1206120ECAD10B4872
:10153000641C0078E4B2A042B1D86846007A002862
:1015400007D00948026D002A02D028460699904724
:10155000002009B0F0BD0000FFFF0000544600204D
:10156000EEF1FFFF98640201A846002070B5224CFE
:10157000606B224DC00722D0A06B21497E220968F2
:101580005143401A2988491E29804B21C90040181F
:101590001C49884213D300202880206A400840005C
:1015A0002062194908680204930F184A01D0904339
:1015B00000E0104308601648007B02F071F92988AA
:1015C00001200029216B07D001432163052203215B
:1015D0001048FEF76FFF0DE0FF22120291432163D6
:1015E000216B0522920211432163216B0143216388
:1015F00003F044FB002070BD001002407C4300203B
:101600008C000020B10400000010014000C0000068
:1016100028470020010F000010B584B0FFF75CF9E7
:101620001823032207211048FEF738FF1B21017001
:10163000002242704924448003218180C280C2601C
:1016400002618282FEF730FF6846048007480190FD
:10165000684602F081F9684604810548039002A8B3
:1016600003F0FAFB04B010BD1B0D00003C68020142
:10167000BD47020100207047F8B5174D174FE879B4
:10168000002801D02E7B00E0FE780322331D0721C5
:101690001348FEF703FFA921044601701148C178E1
:1016A000617000216180E8790F49002803D02A7B0E
:1016B000896C201D02E0FA78201D091DFEF752FDFD
:1016C0006088801960802046FEF7EEFE0548022102
:1016D00001714171F8BD0000A4470020844700203B
:1016E000A60D0000A846002064470020F8B51F267C
:1016F0002323032207212748FEF7D0FE0446AA2011
:10170000254F2070F878254D6070E8786080EA7881
:101710002349201DFEF726FD6288B01AC1B2201DA4
:10172000101803261F4A032910D92B79002B0DD03E
:101730000670192343705389091F1B0AC370937ADB
:1017400083706388C9B21B1D6380001D02291AD9EA
:101750006B79002B17D0137B891E8B4200D2194660
:10176000CDB2691C0170117BA94201D1092100E0B1
:10177000082141702A460C49801CFEF7F3FC608862
:10178000AD1C401960802046FEF78EFE3E717E71D2
:10179000F8BD0000A60D0000A8460020A4470020C8
:1017A0008847002038470020454700207047704791
:1017B00070B53A23032207211648FEF76FFEA421D5
:1017C000154D04460170E8786070A979134800222D
:1017D000022910D0032913D0042916D06280227167
:1017E000807901F057FC2046FEF75EFE0520287147
:1017F0000420687170BD018A642359436180EEE75B
:10180000C18A642359436180E9E7818B642359438A
:101810006180E4E7A10D0000A8460020A447002055
:101820007047F0B589B00E4607461D461446684617
:10183000114604F0EFFA39462B466A46084604F092
:10184000E9FA69462B462246084604F0E3FA314697
:101850002B466A46084604F0DDFA09B0F0BD0000E8
:1018600070B504460D46880701D0002070BD0121E7
:101870004020FFF761F8FEF7D7FE00220648A908CE
:1018800007D0A9089300E3581BBA0360521C914289
:10189000F8D8006870BD00000030024070B5002428
:1018A0000546002807D97D2676013046FEF720FC44
:1018B000641CAC42F9D370BD70B50C4605460121DD
:1018C0000420FFF745F801210820FFF741F8A1B2F5
:1018D0002846FEF765FF70BD70B50C460546012130
:1018E0000420FFF735F801210820FFF731F8A1B2F5
:1018F0002846FEF757FF70BD70B586B00121042061
:10190000FFF726F801210820FFF722F801240E4EE8
:10191000002500946946304602950194FEF7D6FEF4
:1019200001944020094C0090694602952046FEF73C
:10193000CDFE01213046FEF733FF40212046FEF761
:101940002FFF06B070BD0000000C014000080140F0
:1019500002460020802901D98D207047062A06D032
:10196000072A07D0082AF8D10729F5D17047082996
:10197000F2D170470629EFD370477047704770B5B2
:10198000C46805466068002803D00020002802D003
:101990000CE00120FAE7201DFEF792FDFEF796FD10
:1019A0006068002808D000200028F4D00020E860FB
:1019B0002046FEF78BFD70BD0120F5E730B40446EC
:1019C000A2890920521C93B2E48900222546D54001
:1019D000ED0707D05D1C8D4202D130BC1046704728
:1019E0009B1C9BB2521CD2B2092AEFD330BC704769
:1019F000FFB585B00E9D04462F8801201E460021AC
:101A00003A46CA40D20704D04B0003225B1C9A40DE
:101A10001043491CC9B20929F2D3049030461E2153
:101A20000840218A184A00230191009302920390F2
:101A3000132304AA15490698FEF74EFD00900028CE
:101A40001FD101211420FEF74DFD0746E0600698E6
:101A50000188B9812988F981F00701D00120C003EC
:101A6000079908433880208A7880142060822046B5
:101A700000F060F8381DFEF73BFD208A0021FEF7DC
:101A80003DFD009809B0F0BD806302010A18000016
:101A90000048704718640201FFB5087881B00C4611
:101AA000092836D2142003F0A3F90746217800F064
:101AB000FDF800282BD061782078FFF749FF060059
:101AC00028D17D68002D0ED020782979814207D158
:101AD0002946381DFEF718FD2846FEF7F7FC02E000
:101AE0002D68002DF1D1607801210830FEF7FAFC55
:101AF000054620782871607868716278A11CA81D5D
:101B0000FEF730FB2946381DFEF704FD02E0822671
:101B100000E0812602230648039A0499FEF7BEFCE2
:101B2000217801704670FEF7BFFC002005B0F0BDC3
:101B30000114000010B50446142003F059F90449BB
:101B4000216003216181123060600120208110BD7D
:101B500028640201F8B517460C461046FEF7E0FC73
:101B6000012831D1142003F043F90546017C00F02F
:101B70009DF80646297C22781448914214D1697C4C
:101B8000637809023A46891D9B1DFEF787FC0546CE
:101B9000068000202871607868806278A11C681D2A
:101BA000FEF7E0FA284609E0697C062309023A4676
:101BB000891DFEF773FC068080210171FEF774FC1D
:101BC00000213846FEF79AFC0020F8BD140C0000F6
:101BD000F8B50F460024097818462546092923D26E
:101BE0000B007B441B79DB189F4404071013161964
:101BF0000A1C0D00102417A516E00A2417A513E0EF
:101C0000082419A510E007241AA50DE00A241BA535
:101C10000AE005241CA507E005241DA504E0052411
:101C20001DA501E006241EA50146A31C1E48FEF7C3
:101C300035FC0646387830707470002C04D022468B
:101C40002946B01CFEF78EFA3046FEF72DFC002028
:101C5000F8BD00004E6174696F6E73004E532D42E3
:101C60004C452D312E300000123456FFFE9ABCDE5A
:101C700000000000025E044000000300312E302E00
:101C8000302E302D4C450000312E302E300000001B
:101C9000362E312E32000000362E332E300000005A
:101CA000FFEEDDCCBBAA00000314000010B4828953
:101CB000C489521C93B200222046D040C00706D0EF
:101CC000914202D15B1C9BB205E09B1C9BB2521C53
:101CD00052B2092AF0DB092A02D010BC184670471C
:101CE00010BC00207047FFB500255D570021074656
:101CF00093B01C4616460846002D7EDD8300D3585F
:101D0000401C194340B2A842F8DB002975D0149951
:101D100002A823460A4604F07DF8234602AA394663
:101D20000AA804F077F802A8014623460A4604F000
:101D300071F8149923463246084604F06BF832468F
:101D400011462346084604F065F83946231D3246FD
:101D50000846009503F050FE32461146231D084602
:101D6000009503F049FE3246231D39461046009582
:101D700004F060F8394623463246084604F04AF833
:101D80003A46231D11463046009503F035FE39468C
:101D9000231D32460846009503F02EFE3878C00712
:101DA000C00F13D039462B46221D084603F0EFFD25
:101DB00000902946384604F0E8F8A800C019803899
:101DC0000099C26FC9070A43C26703E02946384633
:101DD00004F0DBF83A4630462346114604F01AF880
:101DE0003146231D0AAA0846009504F023F831461F
:101DF000231D0AAA0846009500E024E004F01AF822
:101E00000AA9231D32460846009504F013F8394606
:101E100023460AAA084603F0FDFF02AA231D3946FD
:101E20001046009504F006F82A463146384604F07C
:101E3000BEF82A463046149904F0B9F82A4602A999
:101E4000149804F0B4F817B0F0BD000070B5194C48
:101E5000E06926043043E0611748016B0722114313
:101E60000163164900204860154D28688006FCD49F
:101E7000FEF75CFB1348012101700A20286012481C
:101E8000026904231A43026130BF206A08432062BA
:101E90006068890208436060E0693043E061686817
:101EA00089100843686020688003FCD52868800694
:101EB000FCD570BD001002400080024000100140BF
:101EC000007000408000002000ED00E070B50D4C77
:101ED00005462078002812D000200B4E2070E9B271
:101EE0003046FEF7E5FC02213046FEF771FC002883
:101EF000F9D002213046FEF759FC01202070284617
:101F000070BD0000364300200048004070B50878DE
:101F1000224C0025224E801E82B004283BD20200B3
:101F20007A44127992189744012236310120307098
:101F3000887860768878C00706D01A491A48FEF774
:101F4000A7FA1A48007AA074B28A002A03D00321A3
:101F50001748FEF7AFFAF06900281CD0009505205D
:101F6000694601950870F1696846884713E065760F
:101F700001F0D8FBF06900280DD0009506206946D5
:101F800001950870F1696846884704E017220948FE
:101F9000891CFEF7E7F8002002B070BDEC45002078
:101FA00008460020B1460020FF450020A84600203A
:101FB000030F0000E6450020F0B518460F46014625
:101FC00085B0222303226B48FEF768FA01210446FC
:101FD000417038780026684D082861D202007A44A2
:101FE00012799218974403BABABA605DA91F21709A
:101FF0006170A87920712879A070E879607168799A
:10200000E070287AA071687AE071A87A2072E86995
:10201000002845D002206946009608700194E969BD
:10202000684688479AE0072020706170684609F486
:1020300015D3019F009EFEF783F88019608200256A
:10204000FEF77EF88119601900908170FEF778F82C
:10205000C11900986D1CEDB20175082DF0D308254B
:10206000FEF76EF8B919401861196D1CEDB2887051
:10207000102DF5D3102020771C22A11C3F48FEF71D
:1020800071F83E48A18A0182E18A4182218B8182D6
:10209000618BC1823949608A08833948217F417444
:1020A0005CE00520207059E0042222707878012835
:1020B00004D0002802D0022831D04FE06170287C83
:1020C000002810D002A809F4C9D2FEF739F82D492A
:1020D000FEF720F82C480818029940182B49FEF703
:1020E00019F8009101E0E8680090E869002807D03D
:1020F00003206946029608720391E96902A888479D
:102100001021A01CFEF747F80098A0700098000A64
:10211000E0700098010C2171000E60711EE0E8690A
:10212000002805D00096684601960270E969884744
:1021300020460C38FEF700FA13E00620144D2070FC
:10214000E878012810D01021A01CFEF724F8A988F7
:102150006182E988A1822989E18226762046FEF7FC
:10216000A3F9002005B0F0BD10220A49A01CFDF71C
:10217000F9FFECE7140E000008460020CC450020D3
:10218000EC450020A0BB0D00A08601003F420F00DF
:1021900038470020B746002030B50E480C46C16CC9
:1021A000002583B0002907D0009505206A460295D6
:1021B00010706846019488472078092807D106489E
:1021C000017D002903D00575607802F0C5F8002074
:1021D00003B030BDA8460020E846002000B500202E
:1021E00083B0FF2B19D0134AD26C002A07D000907D
:1021F000029006206B4618706846019190470320B4
:10220000FEF78EF9032812D10B488268002A0ED0FF
:1022100003210A48FEF74EF909E0082101230322B1
:102220000748FEF73BF907210170FEF73DF9002052
:1022300003B000BDA846002028470020090E00007A
:10224000050E0000FFB51A460C461D0A83B02B464A
:10225000444945A0FEF722FD494EFF2DB5707CD0C4
:1022600029023423032247480831FEF717F90546AF
:10227000B07800270101891940310876B0782188AB
:10228000000180194030C182B078617A0001801964
:1022900040304176B07862890001811942310A8369
:1022A000A2894A83E0898883207C012802D0002803
:1022B00007D00BE0B178012009018919603108715C
:1022C00004E0B07800018019603007712088308008
:1022D000607A307221460A312B48FEF7D9F802F0B5
:1022E00027FC002813D002F029FC05280FD201009A
:1022F0007944097949188F44060606020600012030
:102300002821485505E005212820415501E02820D5
:102310004755F06C002808D00220694600970870E5
:1023200002950194F16C684688472846FEF7BCF890
:1023300003210598FEF7E2F81720F087B17809012C
:102340008919403108841148028D002A07D00321E1
:102350000F48FEF7AFF802E0FFE701F061F9002057
:1023600007B0F0BD6365020125732C207369643AE0
:1023700025642C636F6E6964783A25640D0A000049
:10238000A8460020020E0000B14600203847002079
:10239000020F000030B50C461D0A83B089782A462A
:1023A00010A0FEF77BFC2801184DFF21401940309A
:1023B000017601F003FA002803D102210320FEF781
:1023C0009DF8E86C002809D00020009002900320BE
:1023D000694608700194E96C68468847002003B09C
:1023E00030BD0000424C4520446973636F6E6E65DA
:1023F000637465642C7265736F6E3A25782C636F15
:102400006E6964783A2564200D0A0000A846002011
:1024100000B5084883B0C169002907D000200090AA
:10242000019009206A46107068468847002003B072
:1024300000BD000008460020FFB591B00E461223F3
:10244000032243481499FEF729F80021054601703C
:1024500040480078002861D03E48407C002831D0B8
:102460003C216846FDF797FE01F0FCFC002407467E
:1024700000283DD904A80F9036483A2280691146B9
:10248000614309186846091DFDF76CFE6846008B1C
:102490003188884206D10822B11C0F98FDF786FECC
:1024A000002804D0641CE4B2BC42E5D320E0012043
:1024B000287008A8407C687410226946681CFDF7E3
:1024C00051FE15E024483188008B884226D108222D
:1024D000B11C2248FDF76AFE002809D101202870AE
:1024E0001F481022407C68741B49681CFDF73AFEA7
:1024F0002878002812D01749C869002808D0002081
:102500000090019007206A461070C96968468847A4
:102510002846FDF7C9FF002015B0F0BD0D49C86978
:10252000002808D000200090019008206A46107012
:10253000C96968468847022303220A481499FDF7AF
:10254000ADFF0121017006214170FDF7ADFFDFE70E
:10255000180E000008460020CC450020DC45002075
:10256000EC450020040E000070B50C4609781B48AD
:102570001B4D1E46002904D0012912D002292BD15F
:102580001AE01C233146FDF789FF0646207830709B
:10259000287B70802A7B1349301DFDF7E3FD304610
:1025A00007E00A233146FDF779FF21780170698938
:1025B0004180FDF779FF0FE00A233146FDF76EFFFA
:1025C00021780170298C4180698C8180A98CC1801F
:1025D000E98C0181FDF768FF002070BD0B0E000043
:1025E000384700204547002010B50C464A78097846
:1025F00003A0FEF753FB207800F04CFD002010BD37
:1026000074785F7068793A25642C2072785F7068FE
:10261000793A25640D0A000005480A880280180AE4
:10262000044A000180180988403041840020704726
:10263000E8460020A846002030B5180AC04300062E
:1026400083B00D46000E20D0190A0902E1200623AE
:10265000032200010831FDF721FF0446012020700C
:102660000220608004210B48A180C26C002A08D09F
:10267000002200926A46117001950294C16C68466E
:1026800088472046FDF710FF01E000F0C9FF002059
:1026900003B030BDA846002000B5084883B0C26C26
:1026A000002A08D000200090029008206B46187085
:1026B000684601919047002003B000BDA846002065
:1026C00070B518460C46014602230A48FDF7E6FE9F
:1026D00005460949A07808736288211D0748FDF75F
:1026E00041FD00206870207828702846FDF7DCFE48
:1026F000002070BD0D0E0000384700204547002027
:102700004A780A48002A05D04030012A06D0022A19
:1027100007D008E00279012A03D004E0097881702B
:1027200001E00978C170002070470000A846002031
:1027300070B54878002806D0FF250F4C01280BD033
:10274000022810D015E00D480179062911D1072182
:10275000017100F0DFFE0CE0A078FF2809D000F046
:10276000C7FFA57005E0E078FF2802D000F0A6FFC3
:10277000E570002070BD0000E8460020A84600205B
:1027800000207047F0B54B788BB00D46002B04D07D
:102790002A78CC49CCA0FEF781FAD24F2878394666
:1027A00000264031A22879D015DCCE4C22460F32CB
:1027B00020340A92282872D006DC012817D003287A
:1027C00078D01B2869D10EE191286AD0A02869D061
:1027D000A12862D14EE1A43807285ED202007A44D3
:1027E0001279921897445E5E595EFE5E5E006878CC
:1027F000002852D1BC48007B032804D001220321C9
:10280000BA48FDF757FE012002F056FB342303229D
:102810000721B748FDF742FE03210170B549044680
:102820008A7842700122C276FB224284B24AC28474
:10283000B24A82840A88028486768A888280CA881C
:10284000C2800A892281487A800905D088780522C9
:10285000104201D10120A076A07E04221043A07670
:10286000E12080006080C87801281CD0204610211B
:102870000A30FDF790FCF86C002808D0012069466A
:102880000096087001950294F96C6846884701200B
:1028900000F000FC2046FDF707FE03E1FAE05AE0F5
:1028A00008E039E0B7E0204610220A300A99FDF727
:1028B00059FCE0E700960196029603960496059669
:1028C000069607960896099602F032F9002803D07A
:1028D000684601F0FDFA14E0864C6946A08808803D
:1028E000E0884880208988808E71102202A80A9989
:1028F000FDF738FCE078012808D006960796089680
:1029000009960121684600F0A3FFCBE0102206A83B
:102910000A99FDF727FCF4E7207F002813D1112343
:10292000032207217648FDF7B9FD054628202870C7
:102930007048C078012808D01021681CFDF72BFCD6
:102940002846FDF7B1FD2677ACE01022681C0A99F5
:10295000FDF708FCF4E7012002F0AEFA01210320A4
:10296000FDF7CCFD6748012444841F200490614892
:102970000178490601D57F21049181780522114211
:1029800004D0FF2204998132114304910088C005CC
:1029900004D50321049849020843049008215A48A9
:1029A0000191029003210B2304AA00960394C9020B
:1029B0005648FDF791FD002874D1554806218686BA
:1029C000FF200590534801910290082305AA009624
:1029D000039451495148FDF77FFD002862D100F072
:1029E00083FD5FE040E002F0A3F8267700F07CFD75
:1029F000002857D102210320FDF780FDB879012876
:102A000006D000F035FE46484078C0073FD149E087
:102A100000F006FE46E07879401E052801D800F057
:102A200079FD2878A42801D0A7283BD178790428FB
:102A300006D0062804D0082808D00C2832D10CE093
:102A40003848016800292DD0B87904E03448C168BD
:102A5000002927D00120884724E03148C168002997
:102A600020D0032088471DE03E71FF20F870887059
:102A7000C87017E08878FF2802D06878002802D054
:102A800000F036FE0EE026484078C0070AD001F07C
:102A900021F907E0C878FF2802D06878002804D020
:102AA00000F00CFE00200BB0F0BD08790028F9D032
:102AB0001B4840788007F5D549791B4801F0A0F8FC
:102AC000F0E700004E65020125732C206F70203D59
:102AD0002025782C20737461747573203D2025782F
:102AE0000D0A0000A846002028470020010F000022
:102AF000040D0000384700200502000048080000CF
:102B0000230D0000B00B0020B6640201D20B0020A0
:102B1000680B00200E650201011800009C0B0020CC
:102B2000C447002064470020EE46002070B5002610
:102B30000C463046401C0628FCDB2A4D2246287DE8
:102B400029461A328969062829D203007B441B7959
:102B5000DB189F4426020910171E0622A01CFDF751
:102B600025FB00281DD01AE0237E092000F008FF75
:102B7000002816D113E0237E212000F001FF002859
:102B80000FD10CE0237E162000F0FAFE002808D1B9
:102B900005E0237E192000F0F3FE002801D1002E6D
:102BA00019D0114A1079002815D1207A50710F4997
:102BB00063888B80A388CB80E08808810120107116
:102BC00001F0E8F8217AA01C01F01AF8E968002960
:102BD00001D0022088472969002901D02046884772
:102BE000002070BDC4470020E8460020EA460020CF
:102BF00010B50748007F012802D0022802D004E067
:102C0000044800E00448FDF79DFC002010BD0000D2
:102C1000C8460020B7460020BF46002010B5104629
:102C2000FDF77EFC002010BDF8B51D4617460C468A
:102C30001046FDF775FC002811D1492002F0D8F8A4
:102C4000064604233A4603210648FDF727FC290AD5
:102C500001702188B288891A4180FDF725FC002087
:102C6000F8BD00000349000010B50878122804D10F
:102C7000034800210088FDF741FC002010BD000042
:102C80003443002030B50F480C46C16C002583B09A
:102C9000002907D0009509206A4602951070684601
:102CA000019488472078082809DA012807D10648C6
:102CB000417D002903D04575607801F05BFB002061
:102CC00003B030BDA8460020E846002030B51048CB
:102CD00083B00A88C2871C0A220112180D8840326C
:102CE0001584C26C0025002A08D0009507226B4687
:102CF00002951A700191C16C684688470548A10089
:102D00004058002801D04030C574002003B030BDC9
:102D1000A8460020580B0020FFB581B0002000908D
:102D20000E460398FDF7FCFB002802D001284CD08A
:102D30004DE0142002F05CF807463188FEF73EFEB5
:102D400005462448092D36D27C68002C1ED02179F6
:102D5000A94203D02468002CF9D117E0002C15D02B
:102D60006379039A9B1D0499FDF798FB054630880B
:102D7000288000202871607968806279A11D681D13
:102D8000FDF7F0F92846FDF78FFB20E03D7404982D
:102D9000010A7974384602F023F8014601230E48EF
:102DA000039AFDF77BFB0570FDF77EFB012103987D
:102DB000FDF7A4FB0BE00623039A0499FDF76EFBD5
:102DC0003188018080210171DDE7022000900098A8
:102DD00005B0F0BD140C000002140000FFB583B074
:102DE0000E460598FDF79CFB002802D0022007B094
:102DF000F0BD492001F0FCFF0290002069460870F8
:102E000006983488070A492001F0F2FF818880255E
:102E1000A14207D880790818A04203D9601A6946F0
:102E200008700025002469468C80002D25D1087883
:102E300016210446284B4843C1180A8A5204920FAF
:102E400029D14978185C090240182449884222D1C6
:102E5000492001F0CDFF0069002809D00179A14285
:102E600003D1811D002803D003E000680028F5D1BC
:102E70000021C85D694688800224A31D1848059A70
:102E80000699FDF70BFB0746308838803D717C8042
:102E9000002D15D019E03946029801F0A1FF014636
:102EA00004231048059AFDF7F9FA07706946097876
:102EB0004180FDF7F9FA01210598FDF71FFB07E0B6
:102EC000224601A9781DFDF74DF93846FDF7ECFAC9
:102ED000002007B0F0BD00008C4300200229000054
:102EE000140C000001490000FFB58FB00C464920CA
:102EF00001F07EFF0C900027684607711298060AC1
:102F00000B962588492001F073FF82888021AA4210
:102F100007D880791018A84203D9A81A6946087101
:102F200000210D007DD1684600791621544A48439E
:102F300081180B8A5B049B0F79D14978105C0902D8
:102F400040185049884272D100200490059025888D
:102F50002846FDF7FDFA074615E002A92846FDF7C9
:102F6000FDFA00200346009006AA0DA902A8FDF76D
:102F7000FBFA6846018B4448814202D16D1CA8B21D
:102F800008E06D1EADB2B888A84202D8F888A84201
:102F9000E3D2002004A9002300911A460AA9FDF7F4
:102FA000E9FA6846008D012109030840C043C004C6
:102FB000C117A0880025491C022801D00D250CE06E
:102FC000E088002904D0002807D0012804D104E0BB
:102FD000002802D0022800D08125002D42D1684669
:102FE0000779E0880390492001F002FF0169002978
:102FF0000AD00879B84204D14A79881D002903D043
:1030000004E009680029F4D1002210460146684610
:103010000292FDF7A7F86A46039890553846029940
:1030200001E01FE003E001F083FA002D1AD10B99B3
:103030000C9801F0D5FEA188119A891D8BB201462A
:103040001248FDF72BFA0746A288A11D801DFDF747
:1030500089F83E70684600797880A088B880384644
:10306000FDF722FA04230A48119A1299FDF716FA7D
:10307000218801808570FDF717FA002013B0F0BD9C
:103080008C430020022900000328000002490000B0
:10309000160C000010B5A0230949022809D000220F
:1030A00003280AD0042808D00B704A7000F08AF870
:1030B00010BD0B7080204870F8E7E0200870F4E73E
:1030C00031430020F8B524492020486023480121DD
:1030D000C163234A052191610021C16321490A206E
:1030E000086100F06FF821481F4A0263204F4763D0
:1030F000204981632049C1632148204B0360214C52
:103100004460214981602149C1602149016121490F
:10311000416121498161214901632248204D456077
:10312000214EC6602149016102624762114A8262F2
:10313000114AC262036344631D4A82631D4AC2632B
:103140001E481D4A0260124A42601D4A82600563A1
:103150008663C163F8BD000000100140C027024033
:1031600040250240402702400259F8004028024012
:10317000025B8500025A8000025D8500025F80507C
:103180008028024002000878020A0800026EAC5053
:103190000259FC000200C8001270131402700314DC
:1031A000026E2800C0280240025D0500125B050087
:1031B000020A0600026E2C5002C3BF000029024022
:1031C0001200AC0030B41448154982781348FF2A25
:1031D00003D1144A5278D2070CD0134A134B1478F7
:1031E0009C605278DA61124A0261124B83620A6073
:1031F00030BC7047104B0361104C4461104A82612F
:10320000104D8562C462104C04630B600F48486027
:103210008A6030BC70470000E84600200028024069
:1032200040280240C44700203143002000270240CC
:10323000127E0200127E0300027E020002C2A00083
:1032400012C70000027E030012C7800002C2E00025
:1032500001F090FB1A4D1B4E81277F04B54201D12E
:1032600019A002E0BD4202D11FA0FDF717FDFEF735
:1032700043FB002401212448FEF72EFBB54201D177
:10328000642003E0BD4203D1FF20F530FEF706FBCA
:1032900040211E48FEF720FB641CE4B20A2CE9D34F
:1032A00001211948FEF708FB40211848FEF704FBEE
:1032B000FDF7BCFF08F474D001F07AFCFAE70000D7
:1032C00000000201004000016170706C696361746C
:1032D000696F6E2031207374617274206E6577207F
:1032E0002E2E2E0D0A0000006170706C69636174EF
:1032F000696F6E2032207374617274206E6577205E
:103300002E2E2E0D0A000000000C01400008014086
:1033100010B50124E4022046FDF792F9002802D0FE
:103320002046FDF787F9012424032046FDF788F99C
:1033300000280FD02046FDF77DF901F01BFB08A007
:10334000FDF7ACFCBFF34F8F0D490C48C860BFF3CD
:103350004F8FFEE70B484068002800D0804710BD23
:103360004E5253542D3E4E5649435F537973746504
:103370006D52657365740D0A000000000400FA05C3
:1033800000ED00E040430020EFF3088401F0F2FA82
:1033900015A0FDF783FC214621A0FDF77FFC24A0AA
:1033A00062682168FDF77AFC29A0E268A168FDF750
:1033B00075FC2FA062692169FDF770FC34A0E269F9
:1033C000A169FDF76BFC3A480068002800D08047EF
:1033D000384939A0FDF762FCBFF34F8F39493848AF
:1033E000C860BFF34F8FFEE72A2A2A2A2A2A2A2AF0
:1033F0002A2A2A2A2A2A486172644661756C742036
:103400004552524F523A52454720494E464F2A2A7A
:103410002A2A2A2A2A2A2A2A2A2A2A2A2E0D0A006F
:103420006D7370203D203078253038782E0D0A00DD
:10343000723020203D203078253038782C200972D9
:10344000312020203D203078253038782E0D0A009C
:10345000723220203D203078253038782C200972B7
:10346000332020203D203078253038782E0D0A007A
:10347000723132203D203078253038782C20096C8C
:10348000722020203D203078253038782E0D0A001B
:10349000706320203D203078253038782C20097842
:1034A000707372203D203078253038782E0D0A0058
:1034B00040430020A064020125730D0A00000000B3
:1034C0000400FA0500ED00E0064A11780A2907D247
:1034D0008900891848601078401C107001207047DE
:1034E000002070472846002010B5084C084AE179B2
:1034F00013780020994207D28800801840688047DE
:10350000E079401CE071012010BD0000A8460020B9
:103510002846002070B52E4C062621792046052528
:10352000807908290CD20A007A44127992189744BB
:1035300003080D1010131525052801D0FDF7E6FE30
:1035400070BD022805D0FEF797F870BDFEF7CEF8E3
:1035500070BDFEF72DF970BD267170BD02230322E8
:1035600007211C48FCF79AFFA5210170E178417002
:10357000FCF79AFF07202071657170BD02230322BA
:1035800007211548FCF78AFFA7210170E1784170F7
:10359000FCF78AFF6671002020710320FCF7C0FF52
:1035A000032813D0A0790D49012804D0022802D0A5
:1035B00003280BD104E0087D002801D0032003E09C
:1035C000887E002802D00420A07170BDA57170BD56
:1035D000A8460020A20D0000A30D0000A447002073
:1035E00010B5002804D0014660220A48FCF7BAFD55
:1035F0000948C1781C2901D91C21C1700748C1782C
:103600001F2901D91F21C170017BE22901D9E221C3
:10361000017310BD6447002084470020A4470020A8
:1036200011490122087907280CD08879002809D08F
:10363000012801D0052806D10C48827B002A03D03E
:1036400002200CE08A717047027D002A01D003201D
:1036500005E0807E002801D0042000E0052088716C
:1036600010B5FDF753FE10BDA8460020A44700206A
:1036700070B5104C0525A079062809D201007944BF
:10368000097949188F44020204040403A57170BD2E
:10369000A5710223032207210748FCF7FFFEA5219D
:1036A0000170E1784170FCF7FFFE07202071657121
:1036B00070BD0000A8460020A20D000010B5022336
:1036C000032207210748FCF7E9FEA721064C0170F9
:1036D000E1784170FCF7E8FE044900204871FF20C2
:1036E000E07010BDA30D0000E8460020A8460020B1
:1036F00010B50223032207210748FCF7CFFEA721BC
:10370000064C0170A1784170FCF7CEFE0449002000
:103710004871FF20A07010BDA30D0000E8460020F6
:10372000A846002010B50848022380780322010231
:1037300006480831FCF7B2FE0121017013214170E7
:10374000FCF7B2FE10BD0000A8460020040E0000E9
:1037500010B584B0002804D001462A220E48FCF798
:1037600001FD0EA00FC86C460FC40B4B002069462C
:103770001C180A5C247922430A54401CC0B2062853
:10378000F6D310220A48FCF7EDFC0A490A48FCF778
:103790007FFE04B010BD0000384700205019219072
:1037A0001F04D5624FA489AB90D0CF230000000046
:1037B000B74600203C470020FC0000200020074BBB
:1037C00001460A01D2184032127EFF2A01D0401C65
:1037D000C0B2491CC9B20329F3D37047A8460020E0
:1037E000F8B5184C07460D462088FCF799FE0128CD
:1037F00027D015480078002823D001212088FCF725
:103800007DFE492001F0F4FA06462846083083B2CE
:103810000E48728880780102C1200001891DFCF7E2
:103820003DFE044612202070B1882046491DA1802B
:10383000E5802A4639460830FCF794FC2046FCF720
:1038400033FEF8BD3443002026440020A846002063
:10385000F8B507460B46282043430D4603220721AF
:103860000E489B1CFCF71AFE9121017000240646AD
:103870004570002D0ED9204628214843C119002249
:10388000CA7180192822801CFCF76CFC641CE4B20D
:10389000AC42F0D33046FCF707FEF8BD910D0000B6
:1038A000F8B57D253D262024ED00194B3601194938
:1038B000032813D00A6A01273A430A620A6A920768
:1038C000FCD50A6AA2430A6201281BD002281BD039
:1038D0001D60FCF755FE10490860F8BD0F480F2722
:1038E00082683F023A438260086A042210430862F9
:1038F000086A0007FCD5086A2043086206481D6074
:103900000660F8BD1E60E4E705481860E1E70000C6
:103910008C000020001002409000002000100140A8
:103920005704000010B50446084804238078032299
:1039300001020748891DFCF7B1FD06494C800121B1
:10394000017000214180FCF7AFFD10BDA8460020AA
:10395000010C0000F00B0020084A11780A290AD255
:10396000C9004368891800688B6048601078401C63
:10397000107001207047002070470000544600205E
:10398000FFB581B01C00064618D01078411CA1423A
:1039900014D8032C12D3401EC5B25078971CB042E5
:1039A00006D12A4638460299FCF700FC002808D0C8
:1039B0007A19601B801E0406240EE6D1002005B093
:1039C000F0BD012005B0F0BDF0B56B4E83B00546EB
:1039D00030688003FCD56A4C6A48684FA168C162B0
:1039E00069490163E16A8162E16B4163A16B8163B3
:1039F00021467C2240313846FCF7B4FB0020786039
:103A0000F86078626149B9627864B864F8643866CD
:103A10005F49B9665F4939625F49604A08700321AE
:103A200011705F49FA140A6012040A6092140A6065
:103A3000E1685C4A0F46491E09885B4B914200D001
:103A40001F60246E611E0988914200D05C600121D4
:103A5000090300200091019069460871082048710F
:103A600001278F716846FCF7F9FD2C7A032C00D9E9
:103A700000242046FFF714FF032C0ED001F0F2F8CB
:103A8000306BFF21090288433063306B3F214902CC
:103A900008433063306B3843306301212020FCF74A
:103AA0004BFF424800260663414901200870414807
:103AB000434906704048FF270670404808600120CF
:103AC0004049C002088040494F2008703F49082003
:103AD00008703F480721077047708770C1700671F2
:103AE00046718671C67127483A49C1613A490162F7
:103AF0003A494162002001F059FA90213848FCF718
:103B00004AFB2A213748FCF746FB60213648FCF780
:103B100042FB36483649C661066246628662C66224
:103B2000066346630320FCF731FD00210320FCF708
:103B3000E5FC2B4E2F48F7708770C77000200101FD
:103B400089194031401CC0B20F760328F7D30123F6
:103B5000032207212848FCF7A1FC01210170FCF792
:103B6000A3FC002001F0A8F9244804732868F0643D
:103B70006868306503B0F0BD00100240C009002045
:103B800000000201C00000208933020155430020DB
:103B9000B951020111330201C6000020D8000020F3
:103BA00000E100E0FEE7000040430020007000401C
:103BB00060000020C9000020610000200090D003B8
:103BC0006C000020680000206300002064000020DA
:103BD00008010020594D0201814E0201214E0201CF
:103BE000A84600203847002064470020A84700204E
:103BF00044660201E8460020020D0000284700202C
:103C0000F8B52E4D0646E8780F46FF282DD03A230A
:103C1000032207212A48FCF741FC0446A420207017
:103C2000E87860700021A1700120E0701920400147
:103C3000E08020812348028CE281428C2282828CA7
:103C40006282C08CA082E182FF2041302083382034
:103C50000755204631463230FCF71AFCE0788107E0
:103C60001ED50220FFF716FA21E06D200223032261
:103C700007214001FCF712FCA22101701149C9780B
:103C80004170FCF711FC6F7131460F48FCF700FCE6
:103C9000012028710D480222417811434170F8BD7E
:103CA000400701D5032000E00120FFF7F3F920468B
:103CB000FCF7FAFB06490C204871F8BDE8460020E5
:103CC000A10D000038470020EE460020C447002028
:103CD000A8460020F8B52A4E2A4DB1780127687809
:103CE000FF2927D0C10735D0B84368703A23032293
:103CF00007212548FCF7D2FBA4210170B17841705F
:103D000029780446817068788006810F217169885E
:103D1000E180A9882181E988E18129892182687867
:103D2000400718D50220E07068886081A888A081CB
:103D3000032012E0384368706D200223032207211C
:103D40004001FCF7ABFBA12101701049C97841701B
:103D5000FCF7AAFBF8BDE7700120FFF79BF9687834
:103D600008250007002802DAE0782843E0702046A2
:103D7000FCF79AFB0648457100203071F8BD000041
:103D8000E8460020C4470020A10D0000384700206D
:103D9000A846002010B50223032207210548FCF79E
:103DA0007DFBA5210170044989784170FCF77CFBFB
:103DB00010BD0000A20D0000E846002070B50446CA
:103DC0001E480E238078032201021D480831FCF7AB
:103DD00065FB05466088A1880246491C19234A43B1
:103DE000DB019A420FDC06280DD3228890420AD3C9
:103DF000E2887D23DB009A4205D84B00C91848436E
:103E0000D100884208DD0FA0FCF748FF28460C3897
:103E1000FCF792FB002070BD092028702088688084
:103E20006088A880A088E880E08828810C486881A4
:103E3000A8812846FCF738FB012070BDA846002069
:103E40000E0E000072657175657374207061726189
:103E50006D6574657273206572726F720D0A000071
:103E6000FFFF000010B5084A084B9069018884786C
:103E7000994206D1917CA14204D20024FCF71AFD9C
:103E800000E00024204610BD084600203412000047
:103E900030B58FB004463C216846FCF77CF9FFF74B
:103EA000E1FF401EC1B209483A2280695143091816
:103EB0006846091DFCF756F908A8007CA0710AA9FC
:103EC00020460231FCF7E4FA0FB030BD084600206E
:103ED00030B58FB004463C216846FCF75CF9FFF72B
:103EE000C1FF1549401EC0B23A22896950434118AA
:103EF0006846091DFCF736F90AA920460231FCF78D
:103F0000C7FA08A8007CA071204606A91022083034
:103F10000231FCF727F90948C178204618300129F9
:103F200004D01021FCF737F90FB030BD102204493E
:103F3000FCF718F90FB030BD0846002038470020C4
:103F4000B7460020F0B5FA491D46144603784E786E
:103F5000F64A411CB1B0092B2BD21F007F443F7998
:103F6000FF19BF4426042835F0EFEEEDF1004B7841
:103F70000C781B0223435BBA6C4623800379C47818
:103F80001B0223435BBA6C4663804B790C791902A0
:103F9000214349BA6C46A180017AC37908021843CB
:103FA00040BAE080012010756846FFF707FF002047
:103FB000287031B0F0BD01205075487809780002B2
:103FC000084340BAFFF7AEFC0020287031B0F0BDC6
:103FD000D74F00227A60D74A002313605360936062
:103FE000D36013614A780B7812021A43C37852BA2D
:103FF00012041B021A4303790E791A434B791B02F0
:104000003343C6795BBA1B0436023343067A334323
:104010009C464B7A0E7A1B0233435BBA1E04C37A6A
:104020001B021E43037B1E434B7B097B1B020B437E
:1040300059BAC37B09041B021943007CC04B0143DE
:104040000291002078709B6D0193BD4BBA49BB482B
:10405000DB6D0093814226D1B94B0720D9688003DC
:1040600081420CD882420AD86046002807D002203C
:104070007870B04861460160812149042DE00099C3
:104080000198FDF7EDFBAE49096E884204D1AC48BA
:10409000416E0298814222D203207870A548A94936
:1040A0000660416023E081235B0499421FD1072110
:1040B00089038A4216D900990198FDF7D1FBA049DE
:1040C000096E884204D19E48416E0298814206D210
:1040D0000320787097489B490660416007E0042000
:1040E000787004E00121797092490A6048600320E9
:1040F000207093484169090E61704169090CA170F3
:10410000818A090AE170017D2171C16B090E61711B
:10411000C16B090CA171818F090AE171818F217234
:10412000416E090E6172416E090CA172416E090A5D
:10413000E172406E2073787860730E209EE003E099
:104140009FE073E045E030E00026C0227C496846ED
:10415000FCF708F8701E0690109001201A90BC2100
:1041600001A8FDF77DFB784F00903846FCF7A2FBD5
:10417000C02269463846FCF7BFFBBC21381DFDF75D
:104180006FFB0099884200D0022608202070022090
:1041900066702870002E00D018E77D22D20003211F
:1041A0006A48FCF787F931B0F0BD4A780B78110204
:1041B000194349BAC2780904120200791143014334
:1041C0005B4881600121017000214160297031B09C
:1041D000F0BD4A780B7812021A43C37852BA12041F
:1041E0001B021A4303791A43524B9A604A790C799D
:1041F00012022243C47952BA120424022243047ADE
:104200002243DA604A7A0C7A1102214349BAC27A0F
:1042100009041202007B1143014319614448022141
:10422000017000214160297031B0F0BD062020707E
:1042300000206070012E04D0022E0BD0032E12D06D
:104240001BE0434EB1687068FDF70AFBF1688842D5
:1042500011D112E03E4EB1697069FDF701FBF169C1
:10426000884208D109E03A4EB16A706AFDF7F8FA5F
:10427000F16A884201D0022060700220287031B0BB
:10428000F0BD0027C0222E496846FBF76BFF781E61
:10429000069010901A900190012E04D0022E0ED09C
:1042A000032E19D023E02548029029488168039104
:1042B00001690591C06804900120069017E08120F3
:1042C00040040C90224881690D91016A0F91C069E8
:1042D0000E90012010900AE01A4816901C48816A3E
:1042E0001791016B1991C06A189001201A90BC2196
:1042F00001A8FDF7B5FA144E00903046FCF7DAFA43
:10430000C02269463046FCF7F7FABC21301DFDF7A4
:10431000A7FA0099884200D00227072020700220C7
:1043200067702870002F15D137E70000E84600209D
:1043300080430020E047002000000201004000010F
:104340000020000100C0030100200001040F000054
:10435000F447002031B0F0BD08B505490968009167
:104360006946487002216846FFF73AFA08BD000026
:104370000468020108B5054949680091694648701A
:1043800002216846FFF72CFA08BD0000046802010C
:10439000F0B50C464E4E014630464E4B40683278E2
:1043A0004D4D18184D4F97B0012A1AD0022A7DD1D1
:1043B0002246FBF7D7FE706800197060F9688142E9
:1043C0007CD80020307070604248FDF749FA3969A6
:1043D0000024814274D1B96878684118080544D036
:1043E0004BE02246FBF7BEFE706800197060B168B2
:1043F000884263D300207060307074223549384899
:10440000FBF7B0FE364C7021201DFDF729FA21681C
:10441000814222D1384618300FC802AE0FC6384646
:1044200028300FC80FC638370FCF0FC600240EAA8A
:10443000302102A800F084FA002807D1294B20225D
:104440000EA9294800F028FA002800D00324A86803
:1044500000906846447002212EE0E8680090022037
:10446000694648700146684626E020A0FCF716FC25
:10447000B96878684018FCF71DFAB968786841187F
:1044800023A0FCF70BFCB9687868FA68401811495A
:10449000FCF732FAB96878684018F968FDF7E0F976
:1044A0003969884200D00324286901E006E007E06A
:1044B0000090684644700221FFF792F917B0F0BDF2
:1044C0006869009002206946487001466846F3E733
:1044D000804300206848002004680201E047002073
:1044E000F447002028480020802000016273705F9C
:1044F000666C6173685F65726173655F7365637431
:104500006F72202D2D3E203078253038580D0A004E
:104510006273705F666C6173685F7772697465203F
:104520002D2D3E203078253038580D0A000000002F
:10453000F7B506460D46492000F05AFC04690746C7
:10454000002C14D02079B0420BD16079A8420CD055
:10455000384621461030FBF7D7FF2046FBF7B6FF61
:1045600005E02468002CEDD101E0002C0AD128469A
:1045700001210830FBF7B6FF0446014638461030EB
:10458000FBF7C8FF267165712A46A01D0299FBF74B
:10459000E9FD002003B0F0BDF7B5104D104EC7681F
:1045A0000124162161434819028A5204920F09D14D
:1045B0004078695C00020818B04203D1E1B201986A
:1045C00000F000F9641C072CEBDB3846019900F081
:1045D000E5FC0021FBF792FF03B0F0BD8C43002007
:1045E00002290000F8B50C4D0C4E0F46012416218F
:1045F00061434819028A5204920F09D14078695CDC
:1046000000020818B04203D1E1B2384600F0DAF8EF
:10461000641C072CEBDBF8BD8C4300200229000052
:1046200070B5C46805462069002803D00020002822
:1046300002D00EE00120FAE7264610363046FBF79E
:104640003FFFFBF743FF2069002808D00021002925
:10465000F4D00020E8602046FBF738FF70BD012150
:10466000F5E700000149002008707047264400204B
:10467000FFB505461E4622A00FC889B004AC0FC482
:104680007F20089030460E210840298A0023204AC6
:1046900040300093029201910390072308AA04A9D5
:1046A0000A98FBF779FF070026D101211C20FBF7B0
:1046B00019FF0446E8600A980188A1800721A171CA
:1046C000F00701D00120C0030B9908432080288AFD
:1046D000608049206882284600F098F82046103013
:1046E000FBF706FF07210A4800F016F80949288A57
:1046F00008800021FBF702FF38460DB0F0BD000036
:1047000011111111111111111111111101001111BA
:104710008C43002034430020F3B583B00020019087
:1047200004980125012845DD1621039A694388185C
:10473000028A5204920F39D1039A4078515C0002E8
:1047400009181D48814231D101A80290EFB2042618
:10475000492000F04DFB00900469002C14D0207912
:10476000B8420BD16079B0420CD00098214610308D
:10477000FBF7CAFE2046FBF7A9FE05E02468002CE3
:10478000EDD101E0002C0AD1304601210830FBF7C1
:10479000A9FE0446014600981030FBF7BBFE2771C6
:1047A00066713246A01D0299FBF7DCFC04986D1C73
:1047B0008542B9DB05B0F0BD022900000048704712
:1047C00040640201F8B5064615460C46492000F043
:1047D0000FFB016900290AD00A79A24204D14A7963
:1047E000881D002903D004E009680029F4D10022C3
:1047F0001046014617466846FBF7B4FC68468555E7
:104800006A4639462046FFF793FEF8BD10B50446C8
:10481000492000F0EDFA044921600421618118303B
:1048200060600120208110BD5064020100B508467F
:10483000498887B0022925D00022052912D00629EF
:1048400024D18188022921D18179C07908181149A0
:10485000012802D0002803D018E00120087015E0DC
:104860000A7013E069460A75017905AB6A46801D36
:10487000FFF768FB6946097D002907D06846FEF707
:10488000AFFF03E08188801DFFF782FD002007B0A5
:1048900000BD000026440020F0B5ABB094460246AF
:1048A00029A8002522AC0330A04205D30E7806705B
:1048B000401E491CA042F9D209A902AC20200331B4
:1048C0001E46A14205D31F780F70491E5B1CA142F2
:1048D000F9D2231831181818401E984205D30C78C5
:1048E0000470401E491C9842F9D219A812AB20242A
:1048F000033011461746984205D30E780670401EC5
:10490000491C9842F9D21A1910193919401E9042BF
:1049100005D30B780370401E491C9042F9D207481A
:10492000009002AB624622A912A800F041FE0128C5
:1049300000D0012528462BB0F0BD000054670201CD
:1049400070B59CB0064614460D46684600F02CFD36
:104950002A463146684600F001FE002802D00120B8
:104960001CB070BD00222146684600F095FC002076
:104970001CB070BD30B5002189B00846FBF7CEFFF2
:104980000120FBF7F1FF01210920FBF7E1FF684659
:10499000FBF7F8FE02240094042005906946019478
:1049A0000B48FBF793FE0B4D2846FBF701FFE12078
:1049B0004002069008206946888380010884002010
:1049C0004884CC8306A92846FBF70AFF09B030BD0E
:1049D000000C014000480040F0B5FFB084B080A852
:1049E00006F43CD643490024886AC96A809A0123A8
:1049F000811A09010909DB06994203D9101A00013D
:104A00000009414240296BDD3B48FF217590D531BB
:104A10006846FBF7C0FB394F787CBD69002832D06F
:104A2000FFF720FA69468870B97C6E4688420BD23F
:104A30003A2148430246291D301DFBF793FB694686
:104A40008878401C887008E03A21401E484302469E
:104A500029463E31301DFBF785FB694688783A21AF
:104A6000484380190A4636387599FBF77BFB244882
:104A700069460880B869FBF71DFFFF22D5326946F9
:104A8000B869FBF739FF1FA0FCF708F97694779413
:104A9000789479947A9418487B947C947D947E944D
:104AA0007F94418D70AA1183818D5183C08D908335
:104AB00019481A49007C9077102278A8FBF752FB1E
:104AC0001748C078012804D1102216497CA8FBF7AA
:104AD00049FB15480121017776A8FEF7B9FE04E0ED
:104AE000142203211148FBF7E5FC7FB0002004B03D
:104AF000F0BD0000C0800240CC45002008460020E8
:104B000034120000426F6E6420696E666F20737409
:104B10006F7265640D0A0000EC450020E645002038
:104B200038470020B7460020C8460020030F000089
:104B300001480078704700000846002001480079CD
:104B4000704700000846002070B517493CC80E4663
:104B500084B040363CC64368026880684B65134C9D
:104B60000A658865607C002818D0002569460D72AA
:104B7000FBF7B2FEFFF776F969460872E069012695
:104B8000002806D000950E7002A80190E1696846E1
:104B900088476846007A002802D0267004B070BDAD
:104BA000257004B070BD0000CC45002008460020F0
:104BB00030B5284D83B02868002849D1EFF3108420
:104BC000012080F31088FCF7F1FD00F05FFA012866
:104BD00004D002280FD1FDF739F90CE0FBF7A6FC51
:104BE0001D480168F022114001601C490869FB2240
:104BF0001040086130BFFFF7BDFE84F3108869687C
:104C000008880922104221D019200B884002134243
:104C100004D0401E02D00B881342FAD1684606F435
:104C20001DD50F488068411C10D0009A0123811ABD
:104C300009010909DB06994203D9101A000100098C
:104C40004142002902DA0320FBF7ACFCFCF7AFFD80
:104C500003B030BD384300200070004000ED00E09C
:104C6000A802002004490868401C0860012801D0FF
:104C7000012070470020704738430020034908682E
:104C8000002802D0401E08600120704738430020F1
:104C9000F8B50C462849294B4118294F294A0026C6
:104CA000069D002908D0012922D0274940180A284A
:104CB0002FD301202870F8BD20780A2838D2214946
:104CC00080000958214A914203D11E490E501E50BE
:104CD0002EE0B9422CD10322082311461C48FBF7D1
:104CE000DDFB2178017061684160FBF7DDFB1FE0AF
:104CF00020780A281CD280001158B94218D11958BE
:104D0000115020781349626840180321FBF7D2FB49
:104D10000EE0C0B20A280BD284001159002907D036
:104D2000B94205D0094FB94202D016511E518847E9
:104D30002E700020F8BD0000FBF0FFFFA44500200E
:104D4000AF5502017C450020F9F0FFFFAD5502018F
:104D5000060F0000070F0000F3B5054681B00026DE
:104D6000408800F003F901000AD01C4F6A88002037
:104D700014234343DB195B8A934203D142262AE082
:104D8000402628E0401CC0B20A28F1D3002E22D1D0
:104D9000002414206043C019408AFF2806D0641CF8
:104DA000E4B20A2CF5D30A2C14D014E028460830BB
:104DB000009014206043C0190E686B78AA880746DB
:104DC000A91DB0470600EED1688878820298398A1A
:104DD0000180E8E74B26304603B0F0BD6044002078
:104DE00002885004400CD20B01D0090208437047DE
:104DF00010B40024094A214614234B439B185B8AB4
:104E0000834204D1142041438818C46803E0491C3C
:104E1000C9B20A29F0D3204610BC70476044002074
:104E200030B4FF23040AC5B20A49002014224243C9
:104E30005218128AAA4204D1142250434018438ABD
:104E400003E0401CC0B20A28F0D3200230BC184353
:104E50007047000060440020084A11780A290AD2ED
:104E6000C9004368891800688B6048601078401C4E
:104E70001070012070470020704700002845002076
:104E800030B4FF23040AC5B20A4900201422424369
:104E90005218528AAA4204D1142250434018038A5D
:104EA00003E0401CC0B20A28F0D3200230BC1843F3
:104EB0007047000060440020F1B582B00299294E8D
:104EC0000020002900D1307000250298002804D06D
:104ED000012834D002283ED10FE029461422514344
:104EE000214A284609308C182082C0B2FBF760FBAB
:104EF000207C2146FBF74AFB2DE02846142148433D
:104F0000194900234718B87C009030781C460028C7
:104F10000DD9E0008019828800998A4202D1806808
:104F200080470346641C3078E4B2A042F1D8002BDD
:104F300002D0596838468847387CFBF73FFB14227B
:104F4000094B6A430021D018FF24C1604482995064
:104F50004160018141816D1CEDB20A2DB5D303B0D2
:104F6000F0BD0000284500206044002070B50146D7
:104F7000094DCEB200202978044600290BD9E10062
:104F800049198A88B24201D188688047641C29780F
:104F9000E4B2A142F3D870BD2845002042885004F5
:104FA000400CD20B01D009020843704710B5012410
:104FB000002064072060FBF707FB2748028827488A
:104FC00001680020FBF706FB254802882548016898
:104FD0000120FBF7FFFA2448008882B223480168C9
:104FE0000220FBF7F7FA2248008882B221480168C4
:104FF0000320FBF7EFFA2048416AF0221143416297
:105000001E4805F46DD51F491D480860FEF75AF883
:105010002068C0B2FBF7E4FA1B480078002806D0ED
:10502000002006F4A3D001460020FBF7DFFA206839
:10503000C0B2FBF7E1FAFBF7E5FA2068C0B205F46D
:1050400021D62068C0B205F42BD62068C0B205F482
:10505000E9D70120206010BD1C01002018010020AC
:105060002401002020010020340100203001002014
:105070002C0100202801002040250240740200205D
:10508000500250008080024062000020F0B540488D
:105090000025007883B0002877D03E4EB07EC00750
:1050A00003D1FBF7B5FA00286FD0708B01250028DB
:1050B0006BD1684606F4D2D20098317FC01C000143
:1050C0000009002902D07D24240201E01924A40152
:1050D000B168314A4B1C0BD00B1A1B011B099342C0
:1050E00003D9411A090109094B429C4200DB1C46C5
:1050F00031684B1C0BD00B1A1B011B09934203D9BF
:10510000411A090109094B429C4200DB1C467168A7
:105110004B1C0BD00B1A1B011B09934203D9401ADD
:105120000001000943429C4200DB1C46102C2CDD90
:105130001A48007B032813D01948416BC9070FD0C8
:10514000806B184909680091FAF7E4FF0746009858
:105150000A4641081046FAF7DDFF39181248016087
:1051600012492046484310490968FAF7D3FF71698C
:10517000401E491C814208D80D4902254863082079
:1051800006F4A6D00B48806A8047284603B0F0BDDD
:105190007A000020A8020020000000082847002014
:1051A0000010024084000020900000201027000022
:1051B0000080024074020020F8B52C4CE0698007A2
:1051C00052D502202062A56B082006F473D001207E
:1051D00006F47ED02648016949194E087200891AE2
:1051E000016124480068FBF769F82349FBF728F8B8
:1051F00007463E204543A819FBF760F83946FAF701
:10520000E2FFFBF762F805461C49FAF783FF1B49EA
:1052100027224143691A1201511AD2060243184843
:1052200089B242600160206B0821884308432063F3
:10523000A0690721090788430025A061A169012011
:1052400081430143A1612062FDF73CFF0D480F4AF5
:105250000078410041180C4808184178D1610C4988
:105260008078C8600B480570F8BD000000800240DF
:10527000A80200209000002000007A447102000083
:10528000408002403043002060630201402502401C
:105290008025024080000020F8B504461646006CC8
:1052A0000D46802200213828225407D2401C38287D
:1052B00013D22154401C3828FBD30EE0401C402858
:1052C00003D22154401C4028FBD32146084600F05D
:1052D00091F838212046FAF75EFF236CA16C580F35
:1052E000DB00E26CC9184241E26413060F0A204653
:1052F0001F432030A164C177877713040F0C1F432D
:105300001202090E477711430177E16CC1760A0A50
:1053100082760A0C4276090E01762146084600F094
:1053200069F8002E1ED00022E16ED000C140A954C1
:10533000A36EC340A9180B71636EC3400B72236E3A
:10534000C3400B73E36DC3400B74A36DC3400B7577
:10535000636DC3400B76236DC340521C0B77042A48
:10536000E2D31FE000221826D000216D301AC14080
:10537000A954636DC340A9180B71A36DC3400B7290
:10538000E36DC3400B73236EC3400B74636EC34065
:105390000B75A36EC3400B76E36EC340521C0B77B4
:1053A000042AE1D30020F8BD002101648164C164B6
:1053B0000849016508494165084981650849C16591
:1053C0000849016608494166084981660849C1667D
:1053D0000020704767E6096A85AE67BB72F36E3CD2
:1053E0003AF54FA57F520E518C68059BABD9831FB0
:1053F00019CDE05BF0B50022CDB014460B195D78F5
:105400001F782D023D439F786DBA2D043F023D4326
:10541000DB7897001D430CAB521C241DDD51102A74
:10542000ECD3402A22D291008C46C91880398B6F68
:1054300011251C46EC4113251E46EE4174409B0A83
:105440005C404B6C07271D46FD4112271E46FE415E
:105450007540DB085D4063194C6E096C521C611885
:105460005C1861460CAB5C50402ADCD3026D0B9299
:10547000436D0A93876D0997C16D06910191016E85
:105480000891446E0794A646846E05940094C46EF9
:10549000049402940024A44606260C46F4410B26EC
:1054A0000D46F5416C4019260D46F5416C40009EB5
:1054B00075460D408E436E40A6196446A400264DE5
:1054C00003942D59029C2C193619039C0CAD2C59B0
:1054D00015463419039402261446F4410D26F5416D
:1054E000654016261446F44165401C467C401E4625
:1054F00014403E4074402D19009C029474468E4620
:1055000001990094039C01971F46134609196219DB
:105510006446641CA446402CBED30B9CA2180265B2
:105520000A9AD2184265099AD2198265019B069A95
:10553000D218C265089A51180166079A7146511827
:105540004166009A059989188166029A049989181A
:10555000C1664DB0F0BD000050660201002A03D0C4
:10556000002901D101207047F8B5002516460F46E5
:105570000446002A18D9216C785D6054206C401CC8
:10558000206440280DD121460846FFF733FF012350
:10559000A16C5B020022E06CC91822645041A16436
:1055A000E0646D1CB542E6D30020F8BD704770473B
:1055B000FFB5FFB086B08E9C11900220205E0025C2
:1055C0001F30C117C90E0818401141B265578E002F
:1055D000019124A9711800208039C8673CA971186D
:1055E0008039C8674CA971188039C86701202056D6
:1055F0003CA9002803D0401E1A5C0A54FBD10120AC
:1056000020564CA9C218002803D0401E135C0B542E
:10561000FBD100213CAA0846002D7DDD8300D35834
:10562000401C194340B2A842F8DB002974D0002185
:105630004CAA0846002D6FDD8300D358401C194347
:1056400040B2A842F8DB002966D0204624303CA9AD
:10565000019A0E9000F0B6F901285DD14CA9019A8B
:105660000E9800F0AFF9012856D14CA902A8019B71
:105670000E9A00F0D8F92CA9711800208039C8675B
:10568000869810900223E35E8799D81DC217520FA7
:105690001018C21018461F30C317DF0E38184011FB
:1056A0002CAE0F90914200D9114643B200203246F1
:1056B0009C460093002B06DD00238700401C40B26F
:1056C000D3516045F9DB109F3246080003D0401EDD
:1056D0003B5C1354FBD1C8000221615E884227D98C
:1056E000471A0F98002280008119081FB1420ED975
:1056F0002021C91B8C4601680B46FB4013436246C0
:1057000091400A4601460360001FB142F3D820468B
:1057100024303146074600E031E1009A00F052F9AA
:10572000012805D031463A460846009B00F04DFC62
:10573000019800902CA902AA08460E9B00F0B1FA2D
:105740000198009002AA3CA95CA80E9B00F0A9FA5F
:105750002A4614A8119900F02AFCAE00119812965E
:10576000311814A837182A46384600F020FC214684
:1057700044312A4634A80F9100F019FC31192A4609
:1057800044A8443100F013FC231D34AA14A902A834
:10579000009500F04FFB3B4614AA44A934A800949E
:1057A000FBF718FA02A92B46221D084600F03BF928
:1057B000234602AA394614A8FCF733F800200A90C1
:1057C0000F980B9011980C9014A80D902CA801998B
:1057D00000F0B9FB06465CA8019900F0B4FB8642D4
:1057E00000DD30460646401E00B2421192002CA950
:1057F0008B58C006C00E012181400B4201D0012010
:1058000000E000205CAB9A580A4201D0012100E080
:1058100000214900084381000AA847582A46394612
:1058200024A800F0C4FB12982A46C11964A800F00D
:10583000BEFB002002AA002D06DD00218300401CD3
:1058400040B2D150A842F9DB0120B61E36B2029018
:10585000002E69DB204680300F90476A234602AA5B
:1058600064A924A8B84771118A002CA88158F306AE
:10587000DB0E01209840014000D001215CAB9A581A
:10588000024201D0012000E00020400001438900D5
:105890000AA84758002F41D02A46394634A800F0BC
:1058A00086FB12982A46C11944A800F080FB34A850
:1058B000109044A802AF0090394654A823460A46E7
:1058C00000F0A8FA1099234654AA084600F0A2FA5C
:1058D00054A923463A46084600F09CFA009923460C
:1058E00054AA084600F096FA231D34AA24A97CA8DD
:1058F000009500F09FFA64AB24AA44A934A8009450
:10590000FBF768F9002339467CAAE3566CA800F03F
:10591000A1FA0F986CA9C26A38469047761E36B233
:10592000002E01DB0F9898E702A92B46221D08469E
:1059300000F079F8234602AA64A924A8FBF771FFB6
:1059400024A9019A0E9800F03DF8012805D024A959
:105950000846019B0E9A00F038FB6D1E002168B2CC
:1059600024AE3CAC00280EDB8200B358A258401E87
:105970005340194340B20028F6DA002903D07FB023
:1059800000200AB0F0BD7FB001200AB0F0BDF0B435
:105990008C46014600200446002B11DDA60065461A
:1059A000AD599759EF193F18BD4204D0BD4201D9F6
:1059B000012000E00020641C64B28F519C42EDDBAA
:1059C000F0BC7047521E10B452B2002A11DB930093
:1059D000C458CB589C4202D910BC012070479C424D
:1059E00003D2002010BCC0437047521E52B2002A9E
:1059F000EDDA10BC0020704770B5049C1D460646C9
:105A00002346FFF7C4FF002806D122463146284628
:105A1000FFF7D8FF012805D0314623462A4608461D
:105A200000F0D3FA70BDFFB51C460F460B460021AF
:105A3000A5B0154608460E46002C7DDD82009A581A
:105A4000401C114340B22246A042F7DB00297FD020
:105A5000194610A800F0ABFA224629461AA800F011
:105A6000A6FA00206A46002C05DD8100401C40B2E9
:105A70005650A042F9DB01200090002008A9002C1C
:105A800005DD8200401C40B28E50A042F9DB224668
:105A90001AA910A8FFF796FF00287ED0A10010AA2F
:105AA0008A1823926A468A18803A22921AAA8A1879
:105AB000199208AA8E18803E1099C90754D01A99D5
:105AC000C90778D00028234669DD10A91AAA08461C
:105AD00000F07BFA239910AB0022081F994208D9E5
:105AE00001684F081743CA0701460760001F994223
:105AF000F6D8224608A96846FFF764FF002805DAB1
:105B0000694623462A460846FFF741FF6946234671
:105B100008AA084600F059FA68461890009800272D
:105B2000C00706D0189923462A460846FFF72FFFDC
:105B300007462146189800E00AE000F026FA002FF8
:105B400060D022980122C16FD2071143C16799E04A
:105B500000202599002C05DD8200401C40B28E50AB
:105B6000A042F9DB29B0F0BD239910AB0022081F39
:105B7000994208D901684F081743CA0701460760D0
:105B8000001F9942F6D86846189000980027C00771
:105B90000AD023462A46189902E07BE00BE032E067
:105BA0000846FFF7F4FE07462146189800F0EDF985
:105BB000002FC6D166E019991AAB0022081F99423E
:105BC00008D901684F081743CA0701460760001F3C
:105BD0009942F6D808A8189008980027C00706D060
:105BE000189923462A460846FFF7D1FE0746214664
:105BF000189800F0CAF9002F44D00121F06FC907AE
:105C00000843F0673EE01AA910AA084600F0DDF943
:105C100019991AAB0022081F994208D901684F0848
:105C20001743CA0701460760001F9942F6D822466B
:105C3000694608A8FFF7C6FE002805DA08A923462A
:105C40002A460846FFF7A3FE08A923466A460846E7
:105C500000F0BBF908A8189008980027C00706D0E4
:105C6000189923462A460846FFF791FE0746214623
:105C7000189800F08AF9002F04D00120F16FC007B6
:105C80000143F16722461AA910A8FFF79BFE0028DE
:105C900000D011E722466946259800F088F929B01E
:105CA000F0BDF0B5BBB0409C1E46054623461AA881
:105CB00000F0D0F81AA82AA9059502910390009443
:105CC0002146304600F03FF9009C0022A101081A4D
:105CD00004B2E017C00E0119481149094901611ABF
:105CE00040B249B294460AAB002806DD0025970071
:105CF000521C52B2DD518242F9DB1D46002919DDEA
:105D0000009B0022002B1BD920235B1A01939300D8
:105D10009E46F35867468B403B438718BF00EB51C4
:105D20007346F358019FFB409C46009B521C9A42CD
:105D3000EDD305E0800040193146009A00F037F9B4
:105D40000123002C5DDB0098400084460098810010
:105D500048198646081808907046803804910190CA
:105D600000226146104600291CDD0126F61A02A910
:105D7000B6008E5907969E0089590691860089596A
:105D8000AF59CF1BBF1AB94204D0B94201D2012288
:105D900000E000220799401C40B28F51844501DD8C
:105DA0000699EBE7934201D1012300E000237146FD
:105DB0000AAE0022081FB64508D901684F081743EC
:105DC000CA0701460760001FB142F6D8049901983E
:105DD000695CC06FC907084301990026C867089A23
:105DE0007046111F824208D90A6857083743D60700
:105DF0000A460F60091F8242F6D8641E24B2002CA6
:105E0000AEDA990002A84158009A059800F0CFF840
:105E10003BB0F0BD30B51C4691B005460023E356BB
:105E2000684600F017F88034E26A694628469047D1
:105E300011B030BD70B5049C1D460646234600F0E7
:105E4000C4F8002805D0314623462A460846FFF705
:105E50009EFD70BDFFB5002085B01E4600900190EC
:105E600005460290002B2EDD0024002D1DDB069838
:105E7000A1004058291B8A0007998958FAF7CEFBE0
:105E8000009B019A1B184A419446029F181A8A41A6
:105E900001D2012000E0002038180290641C604606
:105EA00064B200930190AC42E1DDAA00059800992C
:105EB0008150019800900298019000206D1C6DB2F5
:105EC0000290B542D0DB7000401E35460390A842D8
:105ED00031DDA81B401C44B2B4421DDA0698A10073
:105EE0004058291B8A0007998958FAF797FB009BAD
:105EF000019A1B184A419446029F181A8A4101D2FE
:105F0000012000E0002038180290641C604664B252
:105F100000930190B442E1DBAA00059800998150FA
:105F20000198009002980190002002906D1C039847
:105F30006DB2A842CDDC0598F200101880380099A7
:105F4000C16709B0F0BD491E034649B201E0491ED0
:105F500049B2002903DB8A009A58002AF7D0491C6D
:105F60004AB2002A0FD09100C8188038C06F0021B3
:105F7000002803D04008491C0028FBD150012038DC
:105F8000401800B270470020704789000A1810B40A
:105F90000023111F824208D90A6854081C43D30702
:105FA0000A460C60091F8242F6D810BC70470023D5
:105FB000002A09DD30B49C005B1C0D595BB2055111
:105FC0009342F8DB30BC70477047F0B48C46014612
:105FD00000200446002B11DDA6006546AD599759F7
:105FE000EF1B3F1ABD4204D0BD4201D2012000E0A8
:105FF0000020641C64B28F519C42EDDBF0BC704702
:10600000F0B589B00C4605460822FFF7D0FF002600
:10601000029601960096E06A0390206B0490606BF4
:106020000590A06B0690E06B6A4611460790082326
:106030000846FFF7ACFC0746294608236A4608468F
:10604000FFF7A5FCC719206B0390606B0490A06B51
:106050000590E06B6A4611460690082307960846AD
:10606000FFF795FCC719294608236A460846FFF73B
:106070008EFCC719206A0090606A0190A06A05969C
:10608000049603960290A06B0690E06B2946079059
:1060900008236A460846FFF77AFCC719606A009031
:1060A000A06A0190E06A0290606B0390A06B04907C
:1060B000E06B0590606B0690206A294607900823E4
:1060C0006A460846FFF763FCC719E06A0090206B38
:1060D0000190606B0596049603960290206A0690E4
:1060E000A06A2946079008236A460846FFF76DFF15
:1060F0003F1A206B0090606B0190A06B0290E06BE8
:10610000059604960390606A0690E06A2946079017
:1061100008236A460846FFF758FF3F1A606B009055
:10612000A06B0190E06B0290206A0390606A04907B
:10613000A06A06960590206B2946079008236A46B8
:106140000846FFF742FF3F1AA06B0090E06B0296F3
:106150000190606A0390A06A0490E06A0696059038
:10616000606B2946079008236A460846FFF72DFF13
:106170000F4E3C1A10D529460823321D0846FFF75A
:1061800006FC0419F7D409B0F0BD29460823321DD6
:106190000846FFF71AFF241A002CF6D108222946D8
:1061A000301DFFF70FFC0128EFD109B0F0BD000052
:1061B00054670201F0B50D468BB0002106460391ED
:1061C000049113480591069107910891099100687F
:1061D00002901446575613462A4630461146FFF79A
:1061E00019FE3146231D02AA08460097FFF722FE3A
:1061F000314623462A460846FFF70CFE2246314622
:10620000231D843208460097FFF7F6FB0BB0F0BD64
:106210005067020140BA7047C0BA70470138FDD1DB
:1062200070470000F7B50325AD06286A82B0164610
:106230000C46400840002862286A02210843286270
:10624000286A8007FCD46620686001272F61A86A4D
:10625000C005FCD5992068602F61A86AC005FCD5EF
:10626000FF209130FFF7DAFFFF230133AB6268466E
:10627000EF60352169602F61A96AC905FCD5AB6261
:10628000A969EF60C9B205226A602F61AA6AD205C6
:10629000FCD5AB62AA690902D2B211430180C807DA
:1062A00002D0032005B0F0BDAB626869FF21083160
:1062B000884368616869C91E0843686102980002E2
:1062C000483068600820A860EE602F61A86AC005A9
:1062D000FCD5FF200130A8620023F61CB0080ED0C8
:1062E000B2081148006899006054060A09194E70F6
:1062F000060C000E8E705B1CC8709A42F1D8FF200D
:106300000130A8626869FF210831884368616869C3
:1063100038436861286A800880002862286A384308
:106320002862002005B0F0BD8000000C032080062C
:106330004169FF22083291434161426901210A43C8
:106340004261026A920892000262026A0A43026291
:106350007047000000000102000000000102030479
:1063600000171300171100170F00170B0017060076
:10637000170000171600171901171601171900004A
:1063800000280002000000000328000200000000B6
:10639000292A00020080800003280002000000007B
:1063A000242A000200808000032800020000000070
:1063B000252A00020080800003280002000000005F
:1063C000272A00020080800003280002000000004D
:1063D000262A00020080800003280002000000003E
:1063E000282A00020080800003280002000000002C
:1063F000232A000200800800032800020000000099
:106400002A2A000200800800032800020000000081
:10641000502A000200800700F11902017F190201D1
:106420007D1902017B19020100140000991A020172
:10643000130C0000192D020103140000551B02016A
:106440007146020121460201E5450201994502011A
:10645000130C0000DD2D0201150C0000E92E0201D5
:10646000170C0000292C0201000C0000692C02010D
:10647000FFFF000075160201130E0000B91F020194
:10648000150E00000D1F0201170E00003924020135
:10649000190E0000112402017064020105000000C1
:1064A0006E735F486172644661756C745F48616EBB
:1064B000646C6572000000280002000000000328E0
:1064C000000200000000002A000A008020000328CB
:1064D000000200000000012A0002008002000328E0
:1064E000000200000000042A0002008008000328C7
:1064F000000200000000A62A00020080010003281C
:10650000000200000000C92A0002008001000028EB
:106510000002000000000328000200000000052A1D
:106520000020008004000229000A00000200032865
:10653000000200000000292B000A00801000032840
:106540000002000000002A2B00020080100067619A
:10655000706D5F636D705F6576745F68616E646CAB
:10656000657200676170635F636F6E6E6563746907
:106570006F6E5F7265715F696E645F68616E646C97
:1065800065720000FFFF000069140201A40D000005
:1065900001270201A50D0000312702011A0D00009C
:1065A000F12B0201150D000081270201000D0000F2
:1065B000852702011C0D00001D2C0201020C0000A9
:1065C000CD2C0201000C0000852C0201010E000000
:1065D000452202010F0E000039260201110E0000B3
:1065E000992602012C0E000019260201030E00005C
:1065F000952302010A0E000069250201300E0000F9
:10660000E92502010C0E0000C1260201000E000067
:1066100099210201090E0000DD210201010F000095
:106620006D150201020F0000FD120201030F0000B0
:10663000D9490201040F0000F5130201A70D000063
:106640002D2B0201846502017E4300200100180009
:10665000982F8A4291443771CFFBC0B5A5DBB5E9CD
:106660005BC25639F111F159A4823F92D55E1CAB41
:1066700098AA07D8015B8312BE853124C37D0C55CF
:10668000745DBE72FEB1DE80A706DC9B74F19BC117
:10669000C1699BE48647BEEFC69DC10FCCA10C2407
:1066A0006F2CE92DAA84744ADCA9B05CDA88F976EB
:1066B00052513E986DC631A8C82703B0C77F59BF55
:1066C000F30BE0C64791A7D55163CA066729291481
:1066D000850AB72738211B2EFC6D2C4D130D38531E
:1066E00054730A65BB0A6A762EC9C281852C7292E0
:1066F000A1E8BFA24B661AA8708B4BC2A3516CC70E
:1067000019E892D1240699D685350EF470A06A1046
:1067100016C1A419086C371E4C774827B5BCB03495
:10672000B30C1C394AAAD84E4FCA9C5BF36F2E6833
:10673000EE828F746F63A5781478C8840802C78CC2
:10674000FAFFBE90EB6C50A4F7A3F9BEF27871C6C5
:106750000300000008200001FFFFFFFFFFFFFFFF15
:10676000FFFFFFFF0000000000000000000000002D
:1067700001000000FFFFFFFF512563FCC2CAB9F30F
:10678000849E17A7ADFAE6BCFFFFFFFFFFFFFFFFE8
:1067900000000000FFFFFFFF96C298D84539A1F422
:1067A000A033EB2D817D0377F240A463E5E6BCF8CE
:1067B00047422CE1F2D1176BF551BF376840B6CB99
:1067C000CE5E316B5733CE2B169E0F7C4AEBE78E95
:1067D0009B7F1AFEE242E34F4B60D2273E3CCE3B0A
:1067E000F6B053CCB0061D65BC86987655BDEBB3AC
:1067F000E7933AAAD835C65AE71C0201B5610201EF
:10680000016002010100000002000000040000001D
:106810000400000005000000050000000214000054
:10682000D11B02011C6802010100000002490000A6
:106830002D48020104490000654602012C6802014E
:106840000200000064680201004000202C040000E7
:106850003A040201686B02012C4400203C14000041
:10686000F02A0000C1270138FDD17047100CF0B4A8
:106870000324A406236A5B085B28092362236A02B7
:10688000252B430818189B07FCD4FF230133A36270
:106890006569DE1DB543656165691E1D350811100A
:1068A00018026B3060600820A060E260012626615B
:1068B000A06AC005FCD5A362100C23D21C90080E60
:1068C000D095080F4813689A100B8854070A52187D
:1068D0005770070C18190E97705B1CD0709D42F111
:1068E000D86069FF2108318843606160693006160D
:1068F000206A800880100B2062206A30432062F0FA
:10690000BC252070478010080CF8B50646012028E9
:106910000C25C004864201D90520F8BDA83E206A96
:106920004008402E1C02210830193E29A8162701D4
:1069300037A76214F0BBF8580F2801D0032515E0E3
:10694000062060600121219C1EA762300220B489CC
:1069500010130C481BF0C82E11ACD10225921A015D
:1069600056A9942964252846F8BD14E696013AF7FD
:1069700094180AC00482B0154686420296100E058D
:10698000B0F0BD03208006016A4908492809016268
:10699000016A02221143082A8998100C21013181D1
:1069A00062F2B28C1AA54216D8ACB2039812901BB0
:1069B000F06878180840D10621480641A41E0161FC
:1069C000816AC994292C294A181081624169FF22E1
:1069D0000832914341614169044E100B416131021B
:1069E00032314160C4601222142C16D9100C9887E1
:1069F000183B78F87819467B781012061B02194369
:106A0000BB781B04194301430802F97838120A09BC
:106A100006084319490860121DA242E8D30121A0CB
:106A200099661C816212FE100B49F8A54209D00339
:106A30009836192810192D1BFF2401340390A54204
:106A4000ADD8ABE730A9843A018419D23B0889E27A
:106A500029E01139FA2280240C1A062D38B40125B8
:106A600036680A6A46C56035214160056E19569838
:106A70000A84628169C560CBB205181011846280F6
:106A8000691902C0B2014388B21180C007100AD050
:106A9000012038BC7047F8B41A214A281122920606
:106AA0006B46D560352454601561946AE44A180F2A
:106AB00027013797629469D560E4B2052656181C01
:106AC000966AF6181017976296692402F6B2344354
:106AD0001C80E30722D0814202D9F8BCCC20704749
:106AE000464B491C480914441A92441810D2B21457
:106AF00043A2B21C80D207DCD1F8BC01423142A0D3
:106B0000520113C2028220100C03B401480190010B
:106B1000BDEDC3021710B5074CE069100A0408D593
:106B2000FFF7F3FF05481278300C2802D10120C08E
:106B300003206210BD25800240C64B20F447A1F21D
:106B4000283A025AE916420A9A11011A020E111243
:106B5000041340F70B1202292C0920422A03421287
:086B6000180B15C0144261007E
:04000005010200C133
:00000001FF
