Component: ARM Compiler 5.06 update 7 (build 960) Tool: armlink [4d3601]

==============================================================================

Section Cross References

    startup_n32wb03x.o(RESET) refers to startup_n32wb03x.o(STACK) for __initial_sp
    startup_n32wb03x.o(RESET) refers to startup_n32wb03x.o(.text) for Reset_Handler
    startup_n32wb03x.o(RESET) refers to rtc.o(i.RTC_IRQHandler) for RTC_IRQHandler
    startup_n32wb03x.o(RESET) refers to exti.o(i.EXTI0_1_IRQHandler) for EXTI0_1_IRQHandler
    startup_n32wb03x.o(RESET) refers to exti.o(i.EXTI2_3_IRQHandler) for EXTI2_3_IRQHandler
    startup_n32wb03x.o(RESET) refers to exti.o(i.EXTI4_12_IRQHandler) for EXTI4_12_IRQHandler
    startup_n32wb03x.o(RESET) refers to app_usart.o(i.DMA_Channel1_2_3_4_IRQHandler) for DMA_Channel1_2_3_4_IRQHandler
    startup_n32wb03x.o(RESET) refers to pwm.o(i.TIM1_BRK_UP_TRG_COM_IRQHandler) for TIM1_BRK_UP_TRG_COM_IRQHandler
    startup_n32wb03x.o(RESET) refers to pwm.o(i.TIM3_IRQHandler) for TIM3_IRQHandler
    startup_n32wb03x.o(RESET) refers to pwm.o(i.TIM6_IRQHandler) for TIM6_IRQHandler
    startup_n32wb03x.o(RESET) refers to app_usart.o(i.USART1_IRQHandler) for USART1_IRQHandler
    startup_n32wb03x.o(RESET) refers to lpuart.o(i.LPUART1_IRQHandler) for LPUART1_IRQHandler
    startup_n32wb03x.o(.text) refers to system_n32wb03x.o(i.SystemInit) for SystemInit
    startup_n32wb03x.o(.text) refers to entry.o(.ARM.Collect$$$$00000000) for __main
    system_n32wb03x.o(i.SystemCoreClockUpdate) refers to system_n32wb03x.o(.data) for .data
    system_n32wb03x.o(i.SystemGetMacAddr) refers to memcpya.o(.text) for __aeabi_memcpy
    system_n32wb03x.o(i.SystemGetMacAddr) refers to system_n32wb03x.o(.bss) for .bss
    system_n32wb03x.o(i.SystemGetMacAddr) refers to system_n32wb03x.o(.constdata) for .constdata
==============================================================================

Removing Unused input sections from the image.

    Removing startup_n32wb03x.o(HEAP), (512 bytes).
    Removing system_n32wb03x.o(i.SystemCoreClockUpdate), (16 bytes).
    Removing system_n32wb03x.o(i.SystemGetUUID), (80 bytes).
    Removing system_n32wb03x.o(i.SystemTrimValueRead), (44 bytes).
    Removing system_n32wb03x.o(i.system_delay_n_10us), (12 bytes).
    Removing system_n32wb03x.o(.data), (4 bytes).
    Removing misc.o(.emb_text), (8 bytes).
    Removing misc.o(i.SysTick_CLKSourceConfig), (24 bytes).
    Removing n32wb03x_adc.o(.emb_text), (8 bytes).
    Removing n32wb03x_adc.o(i.ADC_ConfigAnalogWatchdogThresholds), (24 bytes).
    Removing n32wb03x_adc.o(i.ADC_ConfigContinuousMode), (18 bytes).
    Removing n32wb03x_adc.o(i.ADC_ConfigEDThreshold), (34 bytes).
    Removing n32wb03x_adc.o(i.ADC_ConfigInt), (16 bytes).
    Removing n32wb03x_adc.o(i.ADC_ConfigVoiceZcrThresholds), (20 bytes).
    Removing n32wb03x_adc.o(i.ADC_ConverValueToTemperature), (84 bytes).
    Removing n32wb03x_adc.o(i.ADC_DeInit), (84 bytes).
    Removing n32wb03x_adc.o(i.ADC_EnableAUDIOPGA), (18 bytes).
    Removing n32wb03x_adc.o(i.ADC_EnableAWD), (18 bytes).
==============================================================================

Adding Veneers to the image

    Adding TT veneer (12 bytes, Long) for call to '__ARM_common_memcpy1_6' from user_ble.o(i.COMM_ConvertProcess_QT).
    Adding TT veneer (12 bytes, Long) for call to '__ARM_common_memclr1_6' from stmflash.o(i.User_Read_Data_From_StmFlash).
    Adding TT veneer (12 bytes, Long) for call to 'attmdb_get_attribute' from lib_att.o(i.attm_att_set_value).
    Adding TT veneer (12 bytes, Long) for call to 'attmdb_uuid16_comp' from lib_att.o(i.attm_att_set_value).
    Adding TT veneer (12 bytes, Long) for call to 'co_list_pop_front' from diss.o(i.diss_destroy).
    Adding TT veneer (12 bytes, Long) for call to 'attm_svc_create_db' from diss.o(i.diss_init).
    Adding TT veneer (12 bytes, Long) for call to 'co_list_init' from diss.o(i.diss_init).
    Adding TT veneer (12 bytes, Long) for call to 'co_list_extract' from diss_task.o(i.diss_set_value_req_handler).
    Adding TT veneer (12 bytes, Long) for call to 'co_list_push_back' from diss_task.o(i.diss_set_value_req_handler).
    Adding TT veneer (12 bytes, Long) for call to 'EXTI_PA11_Configuration' from ns_sleep.o(i.entry_idle).
    Adding TT veneer (12 bytes, Long) for call to '__ARM_common_memcpy1_8' from ns_ble_task.o(i.gapm_gen_rand_nb_ind_handler).
    Adding TT veneer (12 bytes, Long) for call to 'attmdb_att_get_permission' from rdtss_task.o(i.gattc_write_req_ind_handler).
    Adding TT veneer (12 bytes, Long) for call to 'attmdb_get_service' from rdts_common.o(i.get_cfg_handle).
    Adding TT veneer (12 bytes, Long) for call to 'attmdb_get_uuid' from rdts_common.o(i.get_cfg_handle).
    Adding TT veneer (12 bytes, Long) for call to 'calib_lsi_clk' from ns_ble.o(i.ns_ble_lsc_config).
    Adding TT veneer (12 bytes, Long) for call to 'attm_svc_create_db_128' from rdtss.o(i.rdtss_init).
    Adding TT veneer (12 bytes, Long) for call to 'ahi_init' from rwip.o(i.rwip_init).

17 Veneer(s) (total 204 bytes) added to the image.

==============================================================================

Image Symbol Table

    Local Symbols

    Symbol Name                              Value     Ov Type        Size  Object(Section)

    ../clib/../cmprslib/zerorunl2.c          0x00000000   Number         0  __dczerorl2.o ABSOLUTE
    ../clib/microlib/ctype/ctype.c           0x00000000   Number         0  isprint_o.o ABSOLUTE
    ../clib/microlib/ctype/ctype.c           0x00000000   Number         0  ctype_o.o ABSOLUTE
    ../clib/microlib/ctype/ctype.c           0x00000000   Number         0  isdigit_o.o ABSOLUTE
    ../clib/microlib/ctype/ctype.c           0x00000000   Number         0  ispunct_o.o ABSOLUTE
    ../clib/microlib/ctype/ctype.c           0x00000000   Number         0  isalnum_o.o ABSOLUTE
    ../clib/microlib/ctype/ctype.c           0x00000000   Number         0  isgraph_o.o ABSOLUTE
    ../clib/microlib/ctype/ctype.c           0x00000000   Number         0  isspace_o.o ABSOLUTE
    ../clib/microlib/ctype/ctype.c           0x00000000   Number         0  isalpha_o.o ABSOLUTE
    ../clib/microlib/ctype/ctype.c           0x00000000   Number         0  islower_o.o ABSOLUTE
    ../clib/microlib/ctype/ctype.c           0x00000000   Number         0  isxdigit_o.o ABSOLUTE
    ../clib/microlib/ctype/ctype.c           0x00000000   Number         0  isblank_o.o ABSOLUTE
    ../clib/microlib/ctype/ctype.c           0x00000000   Number         0  isupper_o.o ABSOLUTE
    ../clib/microlib/ctype/ctype.c           0x00000000   Number         0  iscntrl_o.o ABSOLUTE
    ../clib/microlib/ctype/toupper.c         0x00000000   Number         0  toupper.o ABSOLUTE
    ../clib/microlib/division.c              0x00000000   Number         0  uidiv.o ABSOLUTE
    ../clib/microlib/division.c              0x00000000   Number         0  idiv.o ABSOLUTE
    ../clib/microlib/division.c              0x00000000   Number         0  uldiv.o ABSOLUTE
    ../clib/microlib/errno.c                 0x00000000   Number         0  errno.o ABSOLUTE
    ../clib/microlib/init/entry.s            0x00000000   Number         0  entry11a.o ABSOLUTE
    ../clib/microlib/init/entry.s            0x00000000   Number         0  entry11b.o ABSOLUTE
    ../clib/microlib/init/entry.s            0x00000000   Number         0  entry12b.o ABSOLUTE
    ../clib/microlib/init/entry.s            0x00000000   Number         0  entry5.o ABSOLUTE
    ../clib/microlib/init/entry.s            0x00000000   Number         0  entry2.o ABSOLUTE
    ../clib/microlib/init/entry.s            0x00000000   Number         0  entry10b.o ABSOLUTE
    ../clib/microlib/init/entry.s            0x00000000   Number         0  entry9b.o ABSOLUTE
    ../clib/microlib/init/entry.s            0x00000000   Number         0  entry10a.o ABSOLUTE
    ../clib/microlib/init/entry.s            0x00000000   Number         0  entry9a.o ABSOLUTE
    ../clib/microlib/init/entry.s            0x00000000   Number         0  entry12a.o ABSOLUTE
    ../clib/microlib/init/entry.s            0x00000000   Number         0  entry.o ABSOLUTE
    ../clib/microlib/init/entry.s            0x00000000   Number         0  entry8b.o ABSOLUTE
    ../clib/microlib/init/entry.s            0x00000000   Number         0  entry8a.o ABSOLUTE
    ../clib/microlib/init/entry.s            0x00000000   Number         0  entry7b.o ABSOLUTE
    ../clib/microlib/init/entry.s            0x00000000   Number         0  entry7a.o ABSOLUTE
    ../clib/microlib/longlong.c              0x00000000   Number         0  llsshr.o ABSOLUTE
    ../clib/microlib/longlong.c              0x00000000   Number         0  llmul.o ABSOLUTE
    ../clib/microlib/longlong.c              0x00000000   Number         0  llushr.o ABSOLUTE
    ../clib/microlib/longlong.c              0x00000000   Number         0  llshl.o ABSOLUTE
    ../clib/microlib/stdio/fflush.c          0x00000000   Number         0  fflush.o ABSOLUTE
    ../clib/microlib/stdio/fputc.c           0x00000000   Number         0  fputc.o ABSOLUTE
    ../clib/microlib/stdio/semi.s            0x00000000   Number         0  semi.o ABSOLUTE
    ../clib/microlib/stdlib/rand.c           0x00000000   Number         0  rand.o ABSOLUTE
    ../clib/microlib/string/memcmp.c         0x00000000   Number         0  memcmp.o ABSOLUTE
    ../clib/microlib/string/memcpy.c         0x00000000   Number         0  memcpyb.o ABSOLUTE
    ../clib/microlib/string/memcpy.c         0x00000000   Number         0  memcpya.o ABSOLUTE
    ../clib/microlib/string/memset.c         0x00000000   Number         0  memseta.o ABSOLUTE
    ../clib/microlib/string/strcmp.c         0x00000000   Number         0  strcmp.o ABSOLUTE
    ../clib/microlib/string/strlen.c         0x00000000   Number         0  strlen.o ABSOLUTE
    ../clib/microlib/stubs.s                 0x00000000   Number         0  iusesemip.o ABSOLUTE
    ../clib/microlib/stubs.s                 0x00000000   Number         0  useno.o ABSOLUTE
    ../clib/microlib/stubs.s                 0x00000000   Number         0  iusefp.o ABSOLUTE
    ../clib/scanf.c                          0x00000000   Number         0  _strtoul.o ABSOLUTE
    ../clib/scanf.c                          0x00000000   Number         0  _chval.o ABSOLUTE
    ../clib/scanf.c                          0x00000000   Number         0  atoi.o ABSOLUTE
    ../clib/scanf.c                          0x00000000   Number         0  strtol.o ABSOLUTE
    ../fplib/microlib/d2f.c                  0x00000000   Number         0  d2f.o ABSOLUTE
    ../fplib/microlib/f2d.c                  0x00000000   Number         0  f2d.o ABSOLUTE
    ../fplib/microlib/fpadd.c                0x00000000   Number         0  fadd.o ABSOLUTE
    ../fplib/microlib/fpadd.c                0x00000000   Number         0  dadd.o ABSOLUTE
    ../fplib/microlib/fpdiv.c                0x00000000   Number         0  fdiv.o ABSOLUTE
    ../fplib/microlib/fpdiv.c                0x00000000   Number         0  ddiv.o ABSOLUTE
    ../fplib/microlib/fpepilogue.c           0x00000000   Number         0  depilogue.o ABSOLUTE
    ../fplib/microlib/fpepilogue.c           0x00000000   Number         0  fepilogue.o ABSOLUTE
    ../fplib/microlib/fpfix.c                0x00000000   Number         0  ffixui.o ABSOLUTE
    ../fplib/microlib/fpflt.c                0x00000000   Number         0  ffltui.o ABSOLUTE
    ../fplib/microlib/fpmul.c                0x00000000   Number         0  fmul.o ABSOLUTE
    ..\..\..\..\..\firmware\CMSIS\device\startup\startup_n32wb03x.s 0x00000000   Number         0  startup_n32wb03x.o ABSOLUTE
    ..\..\..\..\..\firmware\CMSIS\device\system_n32wb03x.c 0x00000000   Number         0  system_n32wb03x.o ABSOLUTE
    ..\..\..\..\..\firmware\n32wb03x_std_periph_driver\src\misc.c 0x00000000   Number         0  misc.o ABSOLUTE
    ..\..\..\..\..\firmware\n32wb03x_std_periph_driver\src\n32wb03x_adc.c 0x00000000   Number         0  n32wb03x_adc.o ABSOLUTE
    ..\..\..\..\..\firmware\n32wb03x_std_periph_driver\src\n32wb03x_crc.c 0x00000000   Number         0  n32wb03x_crc.o ABSOLUTE
    ..\..\..\..\..\firmware\n32wb03x_std_periph_driver\src\n32wb03x_dma.c 0x00000000   Number         0  n32wb03x_dma.o ABSOLUTE
    ..\..\..\..\..\firmware\n32wb03x_std_periph_driver\src\n32wb03x_exti.c 0x00000000   Number         0  n32wb03x_exti.o ABSOLUTE
    ..\..\..\..\..\firmware\n32wb03x_std_periph_driver\src\n32wb03x_gpio.c 0x00000000   Number         0  n32wb03x_gpio.o ABSOLUTE
    ..\..\..\..\..\firmware\n32wb03x_std_periph_driver\src\n32wb03x_iwdg.c 0x00000000   Number         0  n32wb03x_iwdg.o ABSOLUTE
    ..\..\..\..\..\firmware\n32wb03x_std_periph_driver\src\n32wb03x_lpuart.c 0x00000000   Number         0  n32wb03x_lpuart.o ABSOLUTE
    ..\..\..\..\..\firmware\n32wb03x_std_periph_driver\src\n32wb03x_pwr.c 0x00000000   Number         0  n32wb03x_pwr.o ABSOLUTE
    ..\..\..\..\..\firmware\n32wb03x_std_periph_driver\src\n32wb03x_qflash.c 0x00000000   Number         0  n32wb03x_qflash.o ABSOLUTE
    ..\..\..\..\..\firmware\n32wb03x_std_periph_driver\src\n32wb03x_rcc.c 0x00000000   Number         0  n32wb03x_rcc.o ABSOLUTE
    ..\..\..\..\..\firmware\n32wb03x_std_periph_driver\src\n32wb03x_rtc.c 0x00000000   Number         0  n32wb03x_rtc.o ABSOLUTE
    ..\..\..\..\..\firmware\n32wb03x_std_periph_driver\src\n32wb03x_spi.c 0x00000000   Number         0  n32wb03x_spi.o ABSOLUTE
    ..\..\..\..\..\firmware\n32wb03x_std_periph_driver\src\n32wb03x_tim.c 0x00000000   Number         0  n32wb03x_tim.o ABSOLUTE
    ..\..\..\..\..\firmware\n32wb03x_std_periph_driver\src\n32wb03x_usart.c 0x00000000   Number         0  n32wb03x_usart.o ABSOLUTE
    ..\..\..\..\..\middlewares\Nationstech\ble_library\ns_ble_profile\bas\bass\src\bass.c 0x00000000   Number         0  bass.o ABSOLUTE
    ..\..\..\..\..\middlewares\Nationstech\ble_library\ns_ble_profile\bas\bass\src\bass_task.c 0x00000000   Number         0  bass_task.o ABSOLUTE
    ..\..\..\..\..\middlewares\Nationstech\ble_library\ns_ble_profile\dis\diss\src\diss.c 0x00000000   Number         0  diss.o ABSOLUTE
    ..\..\..\..\..\middlewares\Nationstech\ble_library\ns_ble_profile\dis\diss\src\diss_task.c 0x00000000   Number         0  diss_task.o ABSOLUTE
    ..\..\..\..\..\middlewares\Nationstech\ble_library\ns_ble_profile\prf.c 0x00000000   Number         0  prf.o ABSOLUTE
    ..\..\..\..\..\middlewares\Nationstech\ble_library\ns_ble_profile\prf_utils.c 0x00000000   Number         0  prf_utils.o ABSOLUTE
    ..\..\..\..\..\middlewares\Nationstech\ble_library\ns_ble_profile\rdts\rdts_common.c 0x00000000   Number         0  rdts_common.o ABSOLUTE
    ..\..\..\..\..\middlewares\Nationstech\ble_library\ns_ble_profile\rdts\rdtss\src\rdtss.c 0x00000000   Number         0  rdtss.o ABSOLUTE
    ..\..\..\..\..\middlewares\Nationstech\ble_library\ns_ble_profile\rdts\rdtss\src\rdtss_task.c 0x00000000   Number         0  rdtss_task.o ABSOLUTE
    ..\..\..\..\..\middlewares\Nationstech\ble_library\ns_ble_stack\ip\ble\hl\src\att\lib_att.c 0x00000000   Number         0  lib_att.o ABSOLUTE
    ..\..\..\..\..\middlewares\Nationstech\ble_library\ns_ble_stack\stack_common\rwip.c 0x00000000   Number         0  rwip.o ABSOLUTE
    ..\..\..\..\..\middlewares\Nationstech\ble_library\ns_ble_stack\stack_common\rwip_driver.c 0x00000000   Number         0  rwip_driver.o ABSOLUTE
    ..\..\..\..\..\middlewares\Nationstech\ble_library\ns_library\ble\ns_ble.c 0x00000000   Number         0  ns_ble.o ABSOLUTE
    ..\..\..\..\..\middlewares\Nationstech\ble_library\ns_library\ble\ns_ble_task.c 0x00000000   Number         0  ns_ble_task.o ABSOLUTE
    ..\..\..\..\..\middlewares\Nationstech\ble_library\ns_library\error\ns_error.c 0x00000000   Number         0  ns_error.o ABSOLUTE
    ..\..\..\..\..\middlewares\Nationstech\ble_library\ns_library\log\ns_log_lpuart.c 0x00000000   Number         0  ns_log_lpuart.o ABSOLUTE
    ..\..\..\..\..\middlewares\Nationstech\ble_library\ns_library\sec\ns_sec.c 0x00000000   Number         0  ns_sec.o ABSOLUTE
    ..\..\..\..\..\middlewares\Nationstech\ble_library\ns_library\sleep\ns_sleep.c 0x00000000   Number         0  ns_sleep.o ABSOLUTE
    ..\..\..\..\..\middlewares\Nationstech\ble_library\ns_library\timer\ns_timer.c 0x00000000   Number         0  ns_timer.o ABSOLUTE
    ..\Ble_App_Data\ADC\adc.c                0x00000000   Number         0  adc.o ABSOLUTE
    ..\Ble_App_Data\BAT\bat.c                0x00000000   Number         0  bat.o ABSOLUTE
    ..\Ble_App_Data\DU_EYE\DU_EYE.c          0x00000000   Number         0  du_eye.o ABSOLUTE
    ..\Ble_App_Data\EXTI\exti.c              0x00000000   Number         0  exti.o ABSOLUTE
    ..\Ble_App_Data\IWDG\iwdg.c              0x00000000   Number         0  iwdg.o ABSOLUTE
    ..\Ble_App_Data\LED\led.c                0x00000000   Number         0  led.o ABSOLUTE
    ..\Ble_App_Data\LPUART\lpuart.c          0x00000000   Number         0  lpuart.o ABSOLUTE
    ..\Ble_App_Data\PWM\PWM.c                0x00000000   Number         0  pwm.o ABSOLUTE
    ..\Ble_App_Data\RTC\rtc.c                0x00000000   Number         0  rtc.o ABSOLUTE
    ..\Ble_App_Data\SEGGER_RTT\SEGGER_RTT.c  0x00000000   Number         0  segger_rtt.o ABSOLUTE
    ..\Ble_App_Data\SEGGER_RTT\SEGGER_RTT_printf.c 0x00000000   Number         0  segger_rtt_printf.o ABSOLUTE
    ..\Ble_App_Data\SEGGER_RTT\Syscalls\SEGGER_RTT_Syscalls_KEIL.c 0x00000000   Number         0  segger_rtt_syscalls_keil.o ABSOLUTE
    ..\Ble_App_Data\STMFLASH\stmflash.c      0x00000000   Number         0  stmflash.o ABSOLUTE
    ..\Ble_App_Data\SYS\gy_common.c          0x00000000   Number         0  gy_common.o ABSOLUTE
    ..\Ble_App_Data\USER_BLE\USER_BLE.c      0x00000000   Number         0  user_ble.o ABSOLUTE
    ..\Ble_App_Data\WNT6170\WNT6170.c        0x00000000   Number         0  wnt6170.o ABSOLUTE
    ..\\..\\..\\..\\..\\firmware\\CMSIS\\device\\system_n32wb03x.c 0x00000000   Number         0  system_n32wb03x.o ABSOLUTE
    ..\\..\\..\\..\\..\\firmware\\n32wb03x_std_periph_driver\\src\\misc.c 0x00000000   Number         0  misc.o ABSOLUTE
    ..\\..\\..\\..\\..\\firmware\\n32wb03x_std_periph_driver\\src\\n32wb03x_adc.c 0x00000000   Number         0  n32wb03x_adc.o ABSOLUTE
    ..\\..\\..\\..\\..\\firmware\\n32wb03x_std_periph_driver\\src\\n32wb03x_crc.c 0x00000000   Number         0  n32wb03x_crc.o ABSOLUTE
    ..\\..\\..\\..\\..\\firmware\\n32wb03x_std_periph_driver\\src\\n32wb03x_dma.c 0x00000000   Number         0  n32wb03x_dma.o ABSOLUTE
    ..\\..\\..\\..\\..\\firmware\\n32wb03x_std_periph_driver\\src\\n32wb03x_exti.c 0x00000000   Number         0  n32wb03x_exti.o ABSOLUTE
    ..\\..\\..\\..\\..\\firmware\\n32wb03x_std_periph_driver\\src\\n32wb03x_gpio.c 0x00000000   Number         0  n32wb03x_gpio.o ABSOLUTE
    ..\\..\\..\\..\\..\\firmware\\n32wb03x_std_periph_driver\\src\\n32wb03x_iwdg.c 0x00000000   Number         0  n32wb03x_iwdg.o ABSOLUTE
    ..\\..\\..\\..\\..\\firmware\\n32wb03x_std_periph_driver\\src\\n32wb03x_lpuart.c 0x00000000   Number         0  n32wb03x_lpuart.o ABSOLUTE
    ..\\..\\..\\..\\..\\firmware\\n32wb03x_std_periph_driver\\src\\n32wb03x_pwr.c 0x00000000   Number         0  n32wb03x_pwr.o ABSOLUTE
    ..\\..\\..\\..\\..\\firmware\\n32wb03x_std_periph_driver\\src\\n32wb03x_qflash.c 0x00000000   Number         0  n32wb03x_qflash.o ABSOLUTE
    ..\\..\\..\\..\\..\\firmware\\n32wb03x_std_periph_driver\\src\\n32wb03x_rcc.c 0x00000000   Number         0  n32wb03x_rcc.o ABSOLUTE
    ..\\..\\..\\..\\..\\firmware\\n32wb03x_std_periph_driver\\src\\n32wb03x_rtc.c 0x00000000   Number         0  n32wb03x_rtc.o ABSOLUTE
    ..\\..\\..\\..\\..\\firmware\\n32wb03x_std_periph_driver\\src\\n32wb03x_spi.c 0x00000000   Number         0  n32wb03x_spi.o ABSOLUTE
    ..\\..\\..\\..\\..\\firmware\\n32wb03x_std_periph_driver\\src\\n32wb03x_tim.c 0x00000000   Number         0  n32wb03x_tim.o ABSOLUTE
    ..\\..\\..\\..\\..\\firmware\\n32wb03x_std_periph_driver\\src\\n32wb03x_usart.c 0x00000000   Number         0  n32wb03x_usart.o ABSOLUTE
    ..\\..\\..\\..\\..\\middlewares\\Nationstech\\ble_library\\ns_ble_profile\\bas\\bass\\src\\bass.c 0x00000000   Number         0  bass.o ABSOLUTE
    ..\\..\\..\\..\\..\\middlewares\\Nationstech\\ble_library\\ns_ble_profile\\bas\\bass\\src\\bass_task.c 0x00000000   Number         0  bass_task.o ABSOLUTE
    ..\\..\\..\\..\\..\\middlewares\\Nationstech\\ble_library\\ns_ble_profile\\dis\\diss\\src\\diss.c 0x00000000   Number         0  diss.o ABSOLUTE
    ..\\..\\..\\..\\..\\middlewares\\Nationstech\\ble_library\\ns_ble_profile\\dis\\diss\\src\\diss_task.c 0x00000000   Number         0  diss_task.o ABSOLUTE
    ..\\..\\..\\..\\..\\middlewares\\Nationstech\\ble_library\\ns_ble_profile\\prf.c 0x00000000   Number         0  prf.o ABSOLUTE
    ..\\..\\..\\..\\..\\middlewares\\Nationstech\\ble_library\\ns_ble_profile\\prf_utils.c 0x00000000   Number         0  prf_utils.o ABSOLUTE
    ..\\..\\..\\..\\..\\middlewares\\Nationstech\\ble_library\\ns_ble_profile\\rdts\\rdts_common.c 0x00000000   Number         0  rdts_common.o ABSOLUTE
    ..\\..\\..\\..\\..\\middlewares\\Nationstech\\ble_library\\ns_ble_profile\\rdts\\rdtss\\src\\rdtss.c 0x00000000   Number         0  rdtss.o ABSOLUTE
    ..\\..\\..\\..\\..\\middlewares\\Nationstech\\ble_library\\ns_ble_profile\\rdts\\rdtss\\src\\rdtss_task.c 0x00000000   Number         0  rdtss_task.o ABSOLUTE
    ..\\..\\..\\..\\..\\middlewares\\Nationstech\\ble_library\\ns_ble_stack\\ip\\ble\\hl\\src\\att\\lib_att.c 0x00000000   Number         0  lib_att.o ABSOLUTE
    ..\\..\\..\\..\\..\\middlewares\\Nationstech\\ble_library\\ns_ble_stack\\stack_common\\rwip.c 0x00000000   Number         0  rwip.o ABSOLUTE
    ..\\..\\..\\..\\..\\middlewares\\Nationstech\\ble_library\\ns_ble_stack\\stack_common\\rwip_driver.c 0x00000000   Number         0  rwip_driver.o ABSOLUTE
    ..\\..\\..\\..\\..\\middlewares\\Nationstech\\ble_library\\ns_library\\ble\\ns_ble.c 0x00000000   Number         0  ns_ble.o ABSOLUTE
    ..\\..\\..\\..\\..\\middlewares\\Nationstech\\ble_library\\ns_library\\ble\\ns_ble_task.c 0x00000000   Number         0  ns_ble_task.o ABSOLUTE
    ..\\..\\..\\..\\..\\middlewares\\Nationstech\\ble_library\\ns_library\\log\\ns_log_lpuart.c 0x00000000   Number         0  ns_log_lpuart.o ABSOLUTE
    ..\\..\\..\\..\\..\\middlewares\\Nationstech\\ble_library\\ns_library\\sec\\ns_sec.c 0x00000000   Number         0  ns_sec.o ABSOLUTE
    ..\\..\\..\\..\\..\\middlewares\\Nationstech\\ble_library\\ns_library\\sleep\\ns_sleep.c 0x00000000   Number         0  ns_sleep.o ABSOLUTE
    ..\\..\\..\\..\\..\\middlewares\\Nationstech\\ble_library\\ns_library\\timer\\ns_timer.c 0x00000000   Number         0  ns_timer.o ABSOLUTE
    ..\\Ble_App_Data\\ADC\\adc.c             0x00000000   Number         0  adc.o ABSOLUTE
    ..\\Ble_App_Data\\BAT\\bat.c             0x00000000   Number         0  bat.o ABSOLUTE
    ..\\Ble_App_Data\\DU_EYE\\DU_EYE.c       0x00000000   Number         0  du_eye.o ABSOLUTE
    ..\\Ble_App_Data\\EXTI\\exti.c           0x00000000   Number         0  exti.o ABSOLUTE
    ..\\Ble_App_Data\\IWDG\\iwdg.c           0x00000000   Number         0  iwdg.o ABSOLUTE
    ..\\Ble_App_Data\\LED\\led.c             0x00000000   Number         0  led.o ABSOLUTE
    ..\\Ble_App_Data\\LPUART\\lpuart.c       0x00000000   Number         0  lpuart.o ABSOLUTE
    ..\\Ble_App_Data\\PWM\\PWM.c             0x00000000   Number         0  pwm.o ABSOLUTE
    ..\\Ble_App_Data\\RTC\\rtc.c             0x00000000   Number         0  rtc.o ABSOLUTE
    ..\\Ble_App_Data\\STMFLASH\\stmflash.c   0x00000000   Number         0  stmflash.o ABSOLUTE
    ..\\Ble_App_Data\\USER_BLE\\USER_BLE.c   0x00000000   Number         0  user_ble.o ABSOLUTE
    ..\\Ble_App_Data\\WNT6170\\WNT6170.c     0x00000000   Number         0  wnt6170.o ABSOLUTE
    ..\\src\\app_ble.c                       0x00000000   Number         0  app_ble.o ABSOLUTE
    ..\\src\\app_gpio.c                      0x00000000   Number         0  app_gpio.o ABSOLUTE
    ..\\src\\app_profile\\app_batt.c         0x00000000   Number         0  app_batt.o ABSOLUTE
    ..\\src\\app_profile\\app_dis.c          0x00000000   Number         0  app_dis.o ABSOLUTE
    ..\\src\\app_profile\\app_rdtss.c        0x00000000   Number         0  app_rdtss.o ABSOLUTE
    ..\\src\\app_usart.c                     0x00000000   Number         0  app_usart.o ABSOLUTE
    ..\\src\\main.c                          0x00000000   Number         0  main.o ABSOLUTE
    ..\src\app_ble.c                         0x00000000   Number         0  app_ble.o ABSOLUTE
    ..\src\app_gpio.c                        0x00000000   Number         0  app_gpio.o ABSOLUTE
    ..\src\app_profile\app_batt.c            0x00000000   Number         0  app_batt.o ABSOLUTE
    ..\src\app_profile\app_dis.c             0x00000000   Number         0  app_dis.o ABSOLUTE
    ..\src\app_profile\app_rdtss.c           0x00000000   Number         0  app_rdtss.o ABSOLUTE
    ..\src\app_usart.c                       0x00000000   Number         0  app_usart.o ABSOLUTE
    ..\src\main.c                            0x00000000   Number         0  main.o ABSOLUTE
    dc.s                                     0x00000000   Number         0  dc.o ABSOLUTE
    init.s                                   0x00000000   Number         0  init.o ABSOLUTE
    RESET                                    0x01000000   Section      192  startup_n32wb03x.o(RESET)
    .ARM.Collect$$$$00000000                 0x010000c0   Section        0  entry.o(.ARM.Collect$$$$00000000)
    .ARM.Collect$$$$00000001                 0x010000c0   Section        4  entry2.o(.ARM.Collect$$$$00000001)
    .ARM.Collect$$$$00000004                 0x010000c4   Section        4  entry5.o(.ARM.Collect$$$$00000004)
    .ARM.Collect$$$$00000008                 0x010000c8   Section        0  entry7b.o(.ARM.Collect$$$$00000008)
    .ARM.Collect$$$$0000000A                 0x010000c8   Section        0  entry8b.o(.ARM.Collect$$$$0000000A)
    .ARM.Collect$$$$0000000B                 0x010000c8   Section        8  entry9a.o(.ARM.Collect$$$$0000000B)
    .ARM.Collect$$$$0000000E                 0x010000d0   Section        4  entry12b.o(.ARM.Collect$$$$0000000E)
    .ARM.Collect$$$$0000000F                 0x010000d4   Section        0  entry10a.o(.ARM.Collect$$$$0000000F)
    .ARM.Collect$$$$00000011                 0x010000d4   Section        0  entry11a.o(.ARM.Collect$$$$00000011)
    .ARM.Collect$$$$00002712                 0x010000d4   Section        4  entry2.o(.ARM.Collect$$$$00002712)
    __lit__00000000                          0x010000d4   Data           4  entry2.o(.ARM.Collect$$$$00002712)
    .emb_text                                0x010000d8   Section       14  system_n32wb03x.o(.emb_text)
    .text                                    0x010000e8   Section       28  startup_n32wb03x.o(.text)
    .text                                    0x01000104   Section        0  uidiv.o(.text)
    .text                                    0x01000130   Section        0  idiv.o(.text)
    .text                                    0x01000158   Section        0  rand.o(.text)
    .text                                    0x0100017c   Section        0  memcpya.o(.text)
    .text                                    0x010001a0   Section        0  memseta.o(.text)
    .text                                    0x010001c4   Section        0  memcmp.o(.text)
    .text                                    0x010001de   Section        0  atoi.o(.text)
    .text                                    0x010001f8   Section        0  fmul.o(.text)
    .text                                    0x01000272   Section        0  fdiv.o(.text)
    .text                                    0x010002ee   Section        0  ffltui.o(.text)
    .text                                    0x010002fc   Section        0  ffixui.o(.text)
    .text                                    0x01000324   Section        0  strtol.o(.text)
    .text                                    0x01000394   Section        0  fepilogue.o(.text)
    .text                                    0x01000394   Section        0  iusefp.o(.text)
    .text                                    0x01000418   Section       36  init.o(.text)
    .text                                    0x0100043c   Section        0  ctype_o.o(.text)
    .text                                    0x01000444   Section        0  _strtoul.o(.text)
    .text                                    0x010004ea   Section        0  _chval.o(.text)
    .text                                    0x01000508   Section        0  __dczerorl2.o(.text)
    i.ADC_ClearFlag                          0x0100062c   Section        0  n32wb03x_adc.o(i.ADC_ClearFlag)
    i.ADC_ConfigChannel                      0x01000632   Section        0  n32wb03x_adc.o(i.ADC_ConfigChannel)
    i.ADC_ConverValueToVoltage               0x01000640   Section        0  n32wb03x_adc.o(i.ADC_ConverValueToVoltage)
    i.ADC_Enable                             0x010006d4   Section        0  n32wb03x_adc.o(i.ADC_Enable)
    i.ADC_EnableBypassFilter                 0x010006e8   Section        0  n32wb03x_adc.o(i.ADC_EnableBypassFilter)
    i.ADC_GetDat                             0x010006fa   Section        0  n32wb03x_adc.o(i.ADC_GetDat)
    i.ADC_GetFlagStatus                      0x01000700   Section        0  n32wb03x_adc.o(i.ADC_GetFlagStatus)
    i.APP_IO_Init                            0x01000710   Section        0  led.o(i.APP_IO_Init)
    i.APP_Led_callback                       0x0100078c   Section        0  user_ble.o(i.APP_Led_callback)
    i.Adc_Init                               0x010007b4   Section        0  adc.o(i.Adc_Init)
    i.BLE_Send_Ble_MAC_Addr                  0x0100080c   Section        0  user_ble.o(i.BLE_Send_Ble_MAC_Addr)
    i.BLE_Send_OneData                       0x01000870   Section        0  user_ble.o(i.BLE_Send_OneData)
    i.BLE_Send_OneDatau32                    0x010008a0   Section        0  user_ble.o(i.BLE_Send_OneDatau32)
    i.COMM_ConvertProcess_QT                 0x010008e8   Section        0  user_ble.o(i.COMM_ConvertProcess_QT)
    i.DBG_ConfigPeriph                       0x01000d14   Section        0  n32wb03x_rcc.o(i.DBG_ConfigPeriph)
    i.DMA_Channel1_2_3_4_IRQHandler          0x01000d2c   Section        0  app_usart.o(i.DMA_Channel1_2_3_4_IRQHandler)
    i.DMA_ClearFlag                          0x01000d94   Section        0  n32wb03x_dma.o(i.DMA_ClearFlag)
    i.DMA_EnableChannel                      0x01000d98   Section        0  n32wb03x_dma.o(i.DMA_EnableChannel)
    i.DMA_GetCurrDataCounter                 0x01000db0   Section        0  n32wb03x_dma.o(i.DMA_GetCurrDataCounter)
    i.DMA_GetFlagStatus                      0x01000db6   Section        0  n32wb03x_dma.o(i.DMA_GetFlagStatus)
    i.DMA_Init                               0x01000dc4   Section        0  n32wb03x_dma.o(i.DMA_Init)
    i.DMA_SetCurrDataCounter                 0x01000e04   Section        0  n32wb03x_dma.o(i.DMA_SetCurrDataCounter)
    i.EXTI0_1_IRQHandler                     0x01000e08   Section        0  exti.o(i.EXTI0_1_IRQHandler)
    i.EXTI2_3_IRQHandler                     0x01000ecc   Section        0  exti.o(i.EXTI2_3_IRQHandler)
    i.EXTI4_12_IRQHandler                    0x01000f74   Section        0  exti.o(i.EXTI4_12_IRQHandler)
    i.EXTIX_Init                             0x0100101c   Section        0  exti.o(i.EXTIX_Init)
    i.EXTI_ClrITPendBit                      0x01001184   Section        0  n32wb03x_exti.o(i.EXTI_ClrITPendBit)
    i.EXTI_GetITStatus                       0x01001190   Section        0  n32wb03x_exti.o(i.EXTI_GetITStatus)
    i.EXTI_InitPeripheral                    0x010011ac   Section        0  n32wb03x_exti.o(i.EXTI_InitPeripheral)
    i.Entry_Power_Off                        0x0100121c   Section        0  pwm.o(i.Entry_Power_Off)
    i.Eye_Task_Functiont                     0x010012a4   Section        0  du_eye.o(i.Eye_Task_Functiont)
    i.Eye_Task_Pause                         0x01001348   Section        0  du_eye.o(i.Eye_Task_Pause)
    i.Eye_Task_Start                         0x01001388   Section        0  du_eye.o(i.Eye_Task_Start)
    i.Eye_Task_Stop                          0x010013d0   Section        0  du_eye.o(i.Eye_Task_Stop)
    i.GPIO_ConfigEXTILine                    0x01001410   Section        0  n32wb03x_gpio.o(i.GPIO_ConfigEXTILine)
    i.GPIO_InitPeripheral                    0x01001564   Section        0  n32wb03x_gpio.o(i.GPIO_InitPeripheral)
    i.GPIO_InitStruct                        0x0100161c   Section        0  n32wb03x_gpio.o(i.GPIO_InitStruct)
    i.GPIO_ReadInputDataBit                  0x01001638   Section        0  n32wb03x_gpio.o(i.GPIO_ReadInputDataBit)
    i.GPIO_ResetBits                         0x01001646   Section        0  n32wb03x_gpio.o(i.GPIO_ResetBits)
    i.GPIO_SetBits                           0x0100164a   Section        0  n32wb03x_gpio.o(i.GPIO_SetBits)
    i.GetDateTimeFromSecond                  0x01001650   Section        0  rtc.o(i.GetDateTimeFromSecond)
    i.GetLithium_BAT                         0x010016f0   Section        0  bat.o(i.GetLithium_BAT)
    i.GetSecondFromDateTime                  0x01001718   Section        0  rtc.o(i.GetSecondFromDateTime)
    i.Get_Adc_Voltage_Mid                    0x010017e0   Section        0  adc.o(i.Get_Adc_Voltage_Mid)
    i.Get_Bat_Electric_Quantity              0x01001878   Section        0  user_ble.o(i.Get_Bat_Electric_Quantity)
    i.Get_Compile_Time                       0x0100188c   Section        0  gy_common.o(i.Get_Compile_Time)
    i.IWDG_CntReload                         0x0100193c   Section        0  n32wb03x_iwdg.o(i.IWDG_CntReload)
    i.IWDG_Enable                            0x01001948   Section        0  n32wb03x_iwdg.o(i.IWDG_Enable)
    i.IWDG_Feed                              0x01001958   Section        0  iwdg.o(i.IWDG_Feed)
    i.IWDG_Init                              0x01001960   Section        0  iwdg.o(i.IWDG_Init)
    i.IWDG_ReloadKey                         0x010019a4   Section        0  n32wb03x_iwdg.o(i.IWDG_ReloadKey)
    i.IWDG_SetPrescalerDiv                   0x010019b4   Section        0  n32wb03x_iwdg.o(i.IWDG_SetPrescalerDiv)
    i.IWDG_WriteConfig                       0x010019c0   Section        0  n32wb03x_iwdg.o(i.IWDG_WriteConfig)
    i.Key_PutCmd                             0x010019cc   Section        0  du_eye.o(i.Key_PutCmd)
    i.Key_Task_Functiont                     0x010019e8   Section        0  du_eye.o(i.Key_Task_Functiont)
    i.LED_Init                               0x01001c28   Section        0  led.o(i.LED_Init)
    i.LPUART1_IRQHandler                     0x01001c7c   Section        0  lpuart.o(i.LPUART1_IRQHandler)
    i.LPUART_ClrIntPendingBit                0x01001cd4   Section        0  n32wb03x_lpuart.o(i.LPUART_ClrIntPendingBit)
    i.LPUART_GetIntStatus                    0x01001cda   Section        0  n32wb03x_lpuart.o(i.LPUART_GetIntStatus)
    i.LPUART_ReceiveData                     0x01001d00   Section        0  n32wb03x_lpuart.o(i.LPUART_ReceiveData)
    i.Line_2A_WTN6                           0x01001d04   Section        0  wnt6170.o(i.Line_2A_WTN6)
    i.Line_2A_WTN6_FourLink                  0x01001d6c   Section        0  wnt6170.o(i.Line_2A_WTN6_FourLink)
    i.Line_2A_WTN6_ISR                       0x01001e48   Section        0  wnt6170.o(i.Line_2A_WTN6_ISR)
    i.Line_2A_WTN6_TwoLink                   0x01001e90   Section        0  wnt6170.o(i.Line_2A_WTN6_TwoLink)
    i.Line_2A_WTN6_init                      0x01001f50   Section        0  wnt6170.o(i.Line_2A_WTN6_init)
    i.MOTOR_Init                             0x01001f84   Section        0  du_eye.o(i.MOTOR_Init)
    i.Motor_Set_Sta                          0x01001fa4   Section        0  du_eye.o(i.Motor_Set_Sta)
    i.Motor_Wait_callback                    0x01002020   Section        0  du_eye.o(i.Motor_Wait_callback)
    Motor_Wait_callback                      0x01002021   Thumb Code    22  du_eye.o(i.Motor_Wait_callback)
    i.My_RTC_Init                            0x0100203c   Section        0  rtc.o(i.My_RTC_Init)
    i.NVIC_Init                              0x010021cc   Section        0  misc.o(i.NVIC_Init)
    i.PD_Mode_Init                           0x01002244   Section        0  pwm.o(i.PD_Mode_Init)
    i.PWR_EnterPDMode                        0x0100230c   Section        0  n32wb03x_pwr.o(i.PWR_EnterPDMode)
    i.PowerKey_timers_callback               0x0100233c   Section        0  pwm.o(i.PowerKey_timers_callback)
    PowerKey_timers_callback                 0x0100233d   Thumb Code    68  pwm.o(i.PowerKey_timers_callback)
    i.PowerKey_timers_start                  0x010023a4   Section        0  pwm.o(i.PowerKey_timers_start)
    i.Qflash_Erase_Sector                    0x010023c8   Section        0  n32wb03x_qflash.o(i.Qflash_Erase_Sector)
    i.Qflash_Init                            0x010023ec   Section        0  n32wb03x_qflash.o(i.Qflash_Init)
    i.Qflash_Read                            0x0100240c   Section        0  n32wb03x_qflash.o(i.Qflash_Read)
    i.Qflash_Write                           0x01002430   Section        0  n32wb03x_qflash.o(i.Qflash_Write)
    i.RCC_ClrFlag                            0x01002454   Section        0  n32wb03x_rcc.o(i.RCC_ClrFlag)
    i.RCC_ConfigAdcClk                       0x0100246c   Section        0  n32wb03x_rcc.o(i.RCC_ConfigAdcClk)
    i.RCC_ConfigLSXSEL                       0x01002480   Section        0  n32wb03x_rcc.o(i.RCC_ConfigLSXSEL)
    i.RCC_ConfigLse                          0x01002498   Section        0  n32wb03x_rcc.o(i.RCC_ConfigLse)
    i.RCC_EnableAHBPeriphClk                 0x010024c0   Section        0  n32wb03x_rcc.o(i.RCC_EnableAHBPeriphClk)
    i.RCC_EnableAPB1PeriphClk                0x010024d8   Section        0  n32wb03x_rcc.o(i.RCC_EnableAPB1PeriphClk)
    i.RCC_EnableAPB2PeriphClk                0x010024f0   Section        0  n32wb03x_rcc.o(i.RCC_EnableAPB2PeriphClk)
    i.RCC_EnableLsi                          0x01002508   Section        0  n32wb03x_rcc.o(i.RCC_EnableLsi)
    i.RCC_EnableRtcClk                       0x01002524   Section        0  n32wb03x_rcc.o(i.RCC_EnableRtcClk)
    i.RCC_Enable_ADC_CLK_SRC_AUDIOPLL        0x01002540   Section        0  n32wb03x_rcc.o(i.RCC_Enable_ADC_CLK_SRC_AUDIOPLL)
    i.RCC_GetFlagStatus                      0x0100255c   Section        0  n32wb03x_rcc.o(i.RCC_GetFlagStatus)
    i.RTC_ByteToBcd2                         0x0100258c   Section        0  n32wb03x_rtc.o(i.RTC_ByteToBcd2)
    RTC_ByteToBcd2                           0x0100258d   Thumb Code    26  n32wb03x_rtc.o(i.RTC_ByteToBcd2)
    i.RTC_ClrIntPendingBit                   0x010025a8   Section        0  n32wb03x_rtc.o(i.RTC_ClrIntPendingBit)
    i.RTC_ConfigInt                          0x010025c4   Section        0  n32wb03x_rtc.o(i.RTC_ConfigInt)
    i.RTC_ConfigTime                         0x010025ec   Section        0  n32wb03x_rtc.o(i.RTC_ConfigTime)
    i.RTC_ConfigWakeUpClock                  0x01002678   Section        0  n32wb03x_rtc.o(i.RTC_ConfigWakeUpClock)
    i.RTC_EnableWakeUp                       0x010026a0   Section        0  n32wb03x_rtc.o(i.RTC_EnableWakeUp)
    i.RTC_EnableWriteProtection              0x010026f8   Section        0  n32wb03x_rtc.o(i.RTC_EnableWriteProtection)
    i.RTC_EnterInitMode                      0x0100271c   Section        0  n32wb03x_rtc.o(i.RTC_EnterInitMode)
    i.RTC_GetDate                            0x01002760   Section        0  n32wb03x_rtc.o(i.RTC_GetDate)
    i.RTC_GetITStatus                        0x010027bc   Section        0  n32wb03x_rtc.o(i.RTC_GetITStatus)
    i.RTC_GetTime                            0x010027e0   Section        0  n32wb03x_rtc.o(i.RTC_GetTime)
    i.RTC_Get_ALL_Time                       0x0100283c   Section        0  rtc.o(i.RTC_Get_ALL_Time)
    i.RTC_IRQHandler                         0x01002884   Section        0  rtc.o(i.RTC_IRQHandler)
    i.RTC_Init                               0x01002a2c   Section        0  n32wb03x_rtc.o(i.RTC_Init)
    i.RTC_SetDate                            0x01002a78   Section        0  n32wb03x_rtc.o(i.RTC_SetDate)
    i.RTC_SetWakeUpCounter                   0x01002b00   Section        0  n32wb03x_rtc.o(i.RTC_SetWakeUpCounter)
    i.RTC_Set_ALL_Time                       0x01002b1c   Section        0  rtc.o(i.RTC_Set_ALL_Time)
    i.RTC_Set_WakeUp_Counter                 0x01002b60   Section        0  rtc.o(i.RTC_Set_WakeUp_Counter)
    i.RTC_WaitForSynchro                     0x01002bf8   Section        0  n32wb03x_rtc.o(i.RTC_WaitForSynchro)
    i.SEGGER_RTT_ConfigUpBuffer              0x01002c3c   Section        0  segger_rtt.o(i.SEGGER_RTT_ConfigUpBuffer)
    i.SEGGER_RTT_Init                        0x01002c98   Section        0  segger_rtt.o(i.SEGGER_RTT_Init)
    i.SEGGER_RTT_Write                       0x01002ca0   Section        0  segger_rtt.o(i.SEGGER_RTT_Write)
    i.SEGGER_RTT_WriteNoLock                 0x01002cd4   Section        0  segger_rtt.o(i.SEGGER_RTT_WriteNoLock)
    i.SEGGER_RTT_printf                      0x01002d40   Section        0  segger_rtt_printf.o(i.SEGGER_RTT_printf)
    i.SEGGER_RTT_vprintf                     0x01002d58   Section        0  segger_rtt_printf.o(i.SEGGER_RTT_vprintf)
    i.SetDateTimeFromSecond                  0x01002fd4   Section        0  rtc.o(i.SetDateTimeFromSecond)
    i.Syd_8801_hex2chr                       0x01002fea   Section        0  gy_common.o(i.Syd_8801_hex2chr)
    i.SystemGetMacAddr                       0x01003004   Section        0  system_n32wb03x.o(i.SystemGetMacAddr)
    i.SystemInit                             0x01003054   Section        0  system_n32wb03x.o(i.SystemInit)
    i.SystemTrimValueGet                     0x010031d0   Section        0  system_n32wb03x.o(i.SystemTrimValueGet)
    i.TIM1_BRK_UP_TRG_COM_IRQHandler         0x0100321c   Section        0  pwm.o(i.TIM1_BRK_UP_TRG_COM_IRQHandler)
    i.TIM3_IRQHandler                        0x0100328c   Section        0  pwm.o(i.TIM3_IRQHandler)
    i.TIM3_PWM_TWO_Init                      0x010032a8   Section        0  pwm.o(i.TIM3_PWM_TWO_Init)
    i.TIM6_IRQHandler                        0x01003364   Section        0  pwm.o(i.TIM6_IRQHandler)
    i.TIM6_Int_Init                          0x010033c0   Section        0  pwm.o(i.TIM6_Int_Init)
    i.TIM_ClearFlag                          0x0100342c   Section        0  n32wb03x_tim.o(i.TIM_ClearFlag)
    i.TIM_ClrIntPendingBit                   0x01003434   Section        0  n32wb03x_tim.o(i.TIM_ClrIntPendingBit)
    i.TIM_ConfigArPreload                    0x0100343c   Section        0  n32wb03x_tim.o(i.TIM_ConfigArPreload)
    i.TIM_ConfigInt                          0x0100344e   Section        0  n32wb03x_tim.o(i.TIM_ConfigInt)
    i.TIM_ConfigOc2Preload                   0x01003460   Section        0  n32wb03x_tim.o(i.TIM_ConfigOc2Preload)
    i.TIM_Enable                             0x01003474   Section        0  n32wb03x_tim.o(i.TIM_Enable)
    i.TIM_EnableOc1Preload                   0x01003488   Section        0  n32wb03x_tim.o(i.TIM_EnableOc1Preload)
    i.TIM_GetIntStatus                       0x01003494   Section        0  n32wb03x_tim.o(i.TIM_GetIntStatus)
    i.TIM_InitOc1                            0x010034ac   Section        0  n32wb03x_tim.o(i.TIM_InitOc1)
    i.TIM_InitOc2                            0x0100350c   Section        0  n32wb03x_tim.o(i.TIM_InitOc2)
    i.TIM_InitTimBaseStruct                  0x0100357c   Section        0  n32wb03x_tim.o(i.TIM_InitTimBaseStruct)
    i.TIM_InitTimeBase                       0x01003598   Section        0  n32wb03x_tim.o(i.TIM_InitTimeBase)
    i.TIM_SetCmp1                            0x01003648   Section        0  n32wb03x_tim.o(i.TIM_SetCmp1)
    i.TIM_SetCmp2                            0x0100364c   Section        0  n32wb03x_tim.o(i.TIM_SetCmp2)
    i.TIM_SetCnt                             0x01003650   Section        0  n32wb03x_tim.o(i.TIM_SetCnt)
    i.USART1_IRQHandler                      0x01003654   Section        0  app_usart.o(i.USART1_IRQHandler)
    i.USART_GetFlagStatus                    0x010036f0   Section        0  n32wb03x_usart.o(i.USART_GetFlagStatus)
    i.User_Qflash_Init                       0x010036fe   Section        0  stmflash.o(i.User_Qflash_Init)
    i.User_Read_Data                         0x0100370c   Section        0  stmflash.o(i.User_Read_Data)
    i.User_Read_Data_From_StmFlash           0x01003740   Section        0  stmflash.o(i.User_Read_Data_From_StmFlash)
    i.User_Write_Data                        0x01003830   Section        0  stmflash.o(i.User_Write_Data)
    i.WNT6170Delay_callback                  0x01003868   Section        0  wnt6170.o(i.WNT6170Delay_callback)
    i.WNT6170Delay_timers_start              0x01003894   Section        0  wnt6170.o(i.WNT6170Delay_timers_start)
    i.WTN6_Send_Data                         0x010038d8   Section        0  wnt6170.o(i.WTN6_Send_Data)
    WTN6_Send_Data                           0x010038d9   Thumb Code    60  wnt6170.o(i.WTN6_Send_Data)
    i._DoInit                                0x01003918   Section        0  segger_rtt.o(i._DoInit)
    _DoInit                                  0x01003919   Thumb Code    76  segger_rtt.o(i._DoInit)
    i._PrintUnsigned                         0x01003984   Section        0  segger_rtt_printf.o(i._PrintUnsigned)
    _PrintUnsigned                           0x01003985   Thumb Code   222  segger_rtt_printf.o(i._PrintUnsigned)
    i._StoreChar                             0x01003a68   Section        0  segger_rtt_printf.o(i._StoreChar)
    _StoreChar                               0x01003a69   Thumb Code    62  segger_rtt_printf.o(i._StoreChar)
    i._WriteBlocking                         0x01003aa6   Section        0  segger_rtt.o(i._WriteBlocking)
    _WriteBlocking                           0x01003aa7   Thumb Code    96  segger_rtt.o(i._WriteBlocking)
    i._WriteNoCheck                          0x01003b06   Section        0  segger_rtt.o(i._WriteNoCheck)
    _WriteNoCheck                            0x01003b07   Thumb Code    64  segger_rtt.o(i._WriteNoCheck)
    i.__ARM_common_memcpy4_7                 0x01003b46   Section        0  segger_rtt.o(i.__ARM_common_memcpy4_7)
    i.__aeabi_errno_addr                     0x01003b54   Section        0  errno.o(i.__aeabi_errno_addr)
    i.app_ble_adv_init                       0x01003b5c   Section        0  app_ble.o(i.app_ble_adv_init)
    i.app_ble_adv_msg_handler                0x01003bd0   Section        0  app_ble.o(i.app_ble_adv_msg_handler)
    i.app_ble_gap_params_init                0x01003c60   Section        0  app_ble.o(i.app_ble_gap_params_init)
    i.app_ble_init                           0x01003d8c   Section        0  app_ble.o(i.app_ble_init)
    i.app_ble_msg_handler                    0x01003de0   Section        0  app_ble.o(i.app_ble_msg_handler)
    i.app_ble_sec_init                       0x01003e64   Section        0  app_ble.o(i.app_ble_sec_init)
    i.app_conn_params_update_evt_handler     0x01003eb4   Section        0  ns_ble_task.o(i.app_conn_params_update_evt_handler)
    app_conn_params_update_evt_handler       0x01003eb5   Thumb Code    12  ns_ble_task.o(i.app_conn_params_update_evt_handler)
    i.app_create_advertising                 0x01003ec4   Section        0  ns_ble.o(i.app_create_advertising)
    app_create_advertising                   0x01003ec5   Thumb Code   216  ns_ble.o(i.app_create_advertising)
    i.app_dis_add_dis                        0x01003fac   Section        0  app_dis.o(i.app_dis_add_dis)
    i.app_entry_point_handler                0x01004008   Section        0  ns_ble_task.o(i.app_entry_point_handler)
    i.app_lsi_calib_evt_handler              0x0100410c   Section        0  ns_ble_task.o(i.app_lsi_calib_evt_handler)
    app_lsi_calib_evt_handler                0x0100410d   Thumb Code   140  ns_ble_task.o(i.app_lsi_calib_evt_handler)
    i.app_rdtss_add_rdts                     0x010041b8   Section        0  app_rdtss.o(i.app_rdtss_add_rdts)
    i.app_sec_msg_dflt_handler               0x01004220   Section        0  ns_sec.o(i.app_sec_msg_dflt_handler)
    app_sec_msg_dflt_handler                 0x01004221   Thumb Code     4  ns_sec.o(i.app_sec_msg_dflt_handler)
    i.app_set_adv_data                       0x01004224   Section        0  ns_ble.o(i.app_set_adv_data)
    app_set_adv_data                         0x01004225   Thumb Code    94  ns_ble.o(i.app_set_adv_data)
    i.app_set_scan_rsp_data                  0x01004298   Section        0  ns_ble.o(i.app_set_scan_rsp_data)
    app_set_scan_rsp_data                    0x01004299   Thumb Code   166  ns_ble.o(i.app_set_scan_rsp_data)
    i.app_start_advertising                  0x01004358   Section        0  ns_ble.o(i.app_start_advertising)
    app_start_advertising                    0x01004359   Thumb Code   100  ns_ble.o(i.app_start_advertising)
    i.app_usart_rx_data_fifo_enter           0x010043c8   Section        0  app_usart.o(i.app_usart_rx_data_fifo_enter)
    i.app_usart_tx_process                   0x0100446c   Section        0  app_usart.o(i.app_usart_tx_process)
    i.app_user_msg_handler                   0x010044ac   Section        0  app_ble.o(i.app_user_msg_handler)
    i.attm_att_set_value                     0x010044c0   Section        0  lib_att.o(i.attm_att_set_value)
    i.check_client_char_cfg                  0x01004580   Section        0  rdts_common.o(i.check_client_char_cfg)
    i.diss_check_val_len                     0x010045aa   Section        0  diss.o(i.diss_check_val_len)
    i.diss_cleanup                           0x010045d4   Section        0  diss.o(i.diss_cleanup)
    diss_cleanup                             0x010045d5   Thumb Code     2  diss.o(i.diss_cleanup)
    i.diss_create                            0x010045d6   Section        0  diss.o(i.diss_create)
    diss_create                              0x010045d7   Thumb Code     2  diss.o(i.diss_create)
    i.diss_destroy                           0x010045d8   Section        0  diss.o(i.diss_destroy)
    diss_destroy                             0x010045d9   Thumb Code    62  diss.o(i.diss_destroy)
    i.diss_handle_to_value                   0x01004616   Section        0  diss.o(i.diss_handle_to_value)
    i.diss_init                              0x0100464c   Section        0  diss.o(i.diss_init)
    diss_init                                0x0100464d   Thumb Code   152  diss.o(i.diss_init)
    i.diss_prf_itf_get                       0x010046ec   Section        0  diss.o(i.diss_prf_itf_get)
    i.diss_set_value_req_handler             0x010046f4   Section        0  diss_task.o(i.diss_set_value_req_handler)
    diss_set_value_req_handler               0x010046f5   Thumb Code   152  diss_task.o(i.diss_set_value_req_handler)
    i.diss_task_init                         0x01004790   Section        0  diss_task.o(i.diss_task_init)
    i.diss_value_cfm_handler                 0x010047b0   Section        0  diss_task.o(i.diss_value_cfm_handler)
    diss_value_cfm_handler                   0x010047b1   Thumb Code   120  diss_task.o(i.diss_value_cfm_handler)
    i.diss_value_req_ind_handler             0x0100482c   Section        0  app_dis.o(i.diss_value_req_ind_handler)
    diss_value_req_ind_handler               0x0100482d   Thumb Code   118  app_dis.o(i.diss_value_req_ind_handler)
    i.diss_value_to_handle                   0x010048ec   Section        0  diss.o(i.diss_value_to_handle)
    i.entry_idle                             0x01004928   Section        0  ns_sleep.o(i.entry_idle)
    i.gapc_bond_ind_handler                  0x01004950   Section        0  ns_sec.o(i.gapc_bond_ind_handler)
    gapc_bond_ind_handler                    0x01004951   Thumb Code   144  ns_sec.o(i.gapc_bond_ind_handler)
    i.gapc_bond_req_ind_handler              0x010049fc   Section        0  ns_sec.o(i.gapc_bond_req_ind_handler)
    gapc_bond_req_ind_handler                0x010049fd   Thumb Code   444  ns_sec.o(i.gapc_bond_req_ind_handler)
    i.gapc_cmp_evt_handler                   0x01004bdc   Section        0  ns_ble_task.o(i.gapc_cmp_evt_handler)
    gapc_cmp_evt_handler                     0x01004bdd   Thumb Code    36  ns_ble_task.o(i.gapc_cmp_evt_handler)
    i.gapc_conn_rssi_ind_handler             0x01004c04   Section        0  ns_ble_task.o(i.gapc_conn_rssi_ind_handler)
    gapc_conn_rssi_ind_handler               0x01004c05   Thumb Code    88  ns_ble_task.o(i.gapc_conn_rssi_ind_handler)
    i.gapc_connection_req_ind_handler        0x01004c6c   Section        0  ns_ble_task.o(i.gapc_connection_req_ind_handler)
    gapc_connection_req_ind_handler          0x01004c6d   Thumb Code   288  ns_ble_task.o(i.gapc_connection_req_ind_handler)
    i.gapc_disconnect_ind_handler            0x01004dbc   Section        0  ns_ble_task.o(i.gapc_disconnect_ind_handler)
    gapc_disconnect_ind_handler              0x01004dbd   Thumb Code    80  ns_ble_task.o(i.gapc_disconnect_ind_handler)
    i.gapc_encrypt_ind_handler               0x01004e38   Section        0  ns_sec.o(i.gapc_encrypt_ind_handler)
    gapc_encrypt_ind_handler                 0x01004e39   Thumb Code    34  ns_sec.o(i.gapc_encrypt_ind_handler)
    i.gapc_encrypt_req_ind_handler           0x01004e60   Section        0  ns_sec.o(i.gapc_encrypt_req_ind_handler)
    gapc_encrypt_req_ind_handler             0x01004e61   Thumb Code   280  ns_sec.o(i.gapc_encrypt_req_ind_handler)
    i.gapc_get_dev_info_req_ind_handler      0x01004f90   Section        0  ns_ble_task.o(i.gapc_get_dev_info_req_ind_handler)
    gapc_get_dev_info_req_ind_handler        0x01004f91   Thumb Code   116  ns_ble_task.o(i.gapc_get_dev_info_req_ind_handler)
    i.gapc_le_phy_ind_handler                0x01005010   Section        0  ns_ble_task.o(i.gapc_le_phy_ind_handler)
    gapc_le_phy_ind_handler                  0x01005011   Thumb Code    26  ns_ble_task.o(i.gapc_le_phy_ind_handler)
    i.gapc_le_pkt_size_ind_handler           0x01005044   Section        0  ns_ble_task.o(i.gapc_le_pkt_size_ind_handler)
    gapc_le_pkt_size_ind_handler             0x01005045   Thumb Code    24  ns_ble_task.o(i.gapc_le_pkt_size_ind_handler)
    i.gapc_param_update_req_ind_handler      0x01005064   Section        0  ns_ble_task.o(i.gapc_param_update_req_ind_handler)
    gapc_param_update_req_ind_handler        0x01005065   Thumb Code    92  ns_ble_task.o(i.gapc_param_update_req_ind_handler)
    i.gapc_param_updated_ind_handler         0x010050c4   Section        0  ns_ble_task.o(i.gapc_param_updated_ind_handler)
    gapc_param_updated_ind_handler           0x010050c5   Thumb Code    36  ns_ble_task.o(i.gapc_param_updated_ind_handler)
    i.gapc_set_dev_info_req_ind_handler      0x010050ec   Section        0  ns_ble_task.o(i.gapc_set_dev_info_req_ind_handler)
    gapc_set_dev_info_req_ind_handler        0x010050ed   Thumb Code    52  ns_ble_task.o(i.gapc_set_dev_info_req_ind_handler)
    i.gapm_activity_created_ind_handler      0x0100512c   Section        0  ns_ble_task.o(i.gapm_activity_created_ind_handler)
    gapm_activity_created_ind_handler        0x0100512d   Thumb Code    42  ns_ble_task.o(i.gapm_activity_created_ind_handler)
    i.gapm_activity_stopped_ind_handler      0x0100515c   Section        0  ns_ble_task.o(i.gapm_activity_stopped_ind_handler)
    gapm_activity_stopped_ind_handler        0x0100515d   Thumb Code    70  ns_ble_task.o(i.gapm_activity_stopped_ind_handler)
    i.gapm_addr_solved_ind_handler           0x010051ac   Section        0  ns_ble_task.o(i.gapm_addr_solved_ind_handler)
    gapm_addr_solved_ind_handler             0x010051ad   Thumb Code     4  ns_ble_task.o(i.gapm_addr_solved_ind_handler)
    i.gapm_cmp_evt_handler                   0x010051b0   Section        0  ns_ble_task.o(i.gapm_cmp_evt_handler)
    gapm_cmp_evt_handler                     0x010051b1   Thumb Code   834  ns_ble_task.o(i.gapm_cmp_evt_handler)
    i.gapm_ext_adv_repoer_ind_handler        0x0100555c   Section        0  ns_ble_task.o(i.gapm_ext_adv_repoer_ind_handler)
    gapm_ext_adv_repoer_ind_handler          0x0100555d   Thumb Code   184  ns_ble_task.o(i.gapm_ext_adv_repoer_ind_handler)
    i.gapm_gen_rand_nb_ind_handler           0x01005620   Section        0  ns_ble_task.o(i.gapm_gen_rand_nb_ind_handler)
    gapm_gen_rand_nb_ind_handler             0x01005621   Thumb Code    30  ns_ble_task.o(i.gapm_gen_rand_nb_ind_handler)
    i.gapm_profile_added_ind_handler         0x0100564c   Section        0  ns_ble_task.o(i.gapm_profile_added_ind_handler)
    gapm_profile_added_ind_handler           0x0100564d   Thumb Code    12  ns_ble_task.o(i.gapm_profile_added_ind_handler)
    i.gattc_att_info_req_ind_handler         0x01005658   Section        0  rdtss_task.o(i.gattc_att_info_req_ind_handler)
    gattc_att_info_req_ind_handler           0x01005659   Thumb Code    58  rdtss_task.o(i.gattc_att_info_req_ind_handler)
    i.gattc_cmp_evt_handler                  0x01005698   Section        0  rdtss_task.o(i.gattc_cmp_evt_handler)
    gattc_cmp_evt_handler                    0x01005699   Thumb Code    28  rdtss_task.o(i.gattc_cmp_evt_handler)
    i.gattc_cmp_evt_handler                  0x010056b4   Section        0  ns_ble_task.o(i.gattc_cmp_evt_handler)
    gattc_cmp_evt_handler                    0x010056b5   Thumb Code    36  ns_ble_task.o(i.gattc_cmp_evt_handler)
    i.gattc_mtu_changed_ind_handler          0x010056dc   Section        0  ns_ble_task.o(i.gattc_mtu_changed_ind_handler)
    gattc_mtu_changed_ind_handler            0x010056dd   Thumb Code    68  ns_ble_task.o(i.gattc_mtu_changed_ind_handler)
    i.gattc_read_req_ind_handler             0x01005728   Section        0  diss_task.o(i.gattc_read_req_ind_handler)
    gattc_read_req_ind_handler               0x01005729   Thumb Code   188  diss_task.o(i.gattc_read_req_ind_handler)
    i.gattc_read_req_ind_handler             0x010057ec   Section        0  rdtss_task.o(i.gattc_read_req_ind_handler)
    gattc_read_req_ind_handler               0x010057ed   Thumb Code   234  rdtss_task.o(i.gattc_read_req_ind_handler)
    i.gattc_write_req_ind_handler            0x010058e4   Section        0  rdtss_task.o(i.gattc_write_req_ind_handler)
    gattc_write_req_ind_handler              0x010058e5   Thumb Code   290  rdtss_task.o(i.gattc_write_req_ind_handler)
    i.get_cfg_handle                         0x01005a14   Section        0  rdts_common.o(i.get_cfg_handle)
    i.get_value_handle                       0x01005a80   Section        0  rdts_common.o(i.get_value_handle)
    i.llhwc_modem_setmode                    0x01005ad4   Section        0  rwip_driver.o(i.llhwc_modem_setmode)
    i.llhwc_phy_prerx_flash                  0x01005b04   Section        0  rwip_driver.o(i.llhwc_phy_prerx_flash)
    i.llhwc_setmode_reg_config               0x01005c04   Section        0  rwip_driver.o(i.llhwc_setmode_reg_config)
    llhwc_setmode_reg_config                 0x01005c05   Thumb Code    82  rwip_driver.o(i.llhwc_setmode_reg_config)
    i.main                                   0x01005c90   Section        0  main.o(i.main)
    i.ns_EXTI4_12_IRQHandler                 0x01005d80   Section        0  ns_ble.o(i.ns_EXTI4_12_IRQHandler)
    i.ns_HardFault_Handler                   0x01005e08   Section        0  ns_ble.o(i.ns_HardFault_Handler)
    i.ns_ble_active_rssi                     0x01005f68   Section        0  ns_ble.o(i.ns_ble_active_rssi)
    i.ns_ble_add_prf_func_register           0x01005f98   Section        0  ns_ble.o(i.ns_ble_add_prf_func_register)
    i.ns_ble_add_svc                         0x01005fb8   Section        0  ns_ble.o(i.ns_ble_add_svc)
    i.ns_ble_adv_fsm_next                    0x01005fe4   Section        0  ns_ble.o(i.ns_ble_adv_fsm_next)
    i.ns_ble_adv_init                        0x010060b0   Section        0  ns_ble.o(i.ns_ble_adv_init)
    i.ns_ble_adv_start                       0x010060f0   Section        0  ns_ble.o(i.ns_ble_adv_start)
    i.ns_ble_adv_stop                        0x01006140   Section        0  ns_ble.o(i.ns_ble_adv_stop)
    i.ns_ble_delete_init                     0x0100618c   Section        0  ns_ble.o(i.ns_ble_delete_init)
    i.ns_ble_delete_scan                     0x010061c0   Section        0  ns_ble.o(i.ns_ble_delete_scan)
    i.ns_ble_disconnect                      0x010061f4   Section        0  ns_ble.o(i.ns_ble_disconnect)
    i.ns_ble_gap_init                        0x01006220   Section        0  ns_ble.o(i.ns_ble_gap_init)
    i.ns_ble_get_connection_num              0x0100628c   Section        0  ns_ble.o(i.ns_ble_get_connection_num)
    i.ns_ble_list_set_ral                    0x010062b0   Section        0  ns_ble.o(i.ns_ble_list_set_ral)
    i.ns_ble_lsc_config                      0x01006300   Section        0  ns_ble.o(i.ns_ble_lsc_config)
    i.ns_ble_prf_task_register               0x01006384   Section        0  ns_ble.o(i.ns_ble_prf_task_register)
    i.ns_ble_scan_data_find                  0x010063ac   Section        0  ns_ble.o(i.ns_ble_scan_data_find)
    i.ns_ble_stack_init                      0x010063f4   Section        0  ns_ble.o(i.ns_ble_stack_init)
    i.ns_ble_start_init                      0x0100662c   Section        0  ns_ble.o(i.ns_ble_start_init)
    i.ns_ble_start_scan                      0x01006700   Section        0  ns_ble.o(i.ns_ble_start_scan)
    i.ns_ble_stop_scan                       0x010067c0   Section        0  ns_ble.o(i.ns_ble_stop_scan)
    i.ns_ble_update_param                    0x010067e8   Section        0  ns_ble.o(i.ns_ble_update_param)
    i.ns_bond_db_get_size                    0x01006894   Section        0  ns_sec.o(i.ns_bond_db_get_size)
    ns_bond_db_get_size                      0x01006895   Thumb Code    36  ns_sec.o(i.ns_bond_db_get_size)
    i.ns_bond_last_bonded_peer_id            0x010068c0   Section        0  ns_sec.o(i.ns_bond_last_bonded_peer_id)
    i.ns_bond_last_bonded_ral_info           0x01006900   Section        0  ns_sec.o(i.ns_bond_last_bonded_ral_info)
    i.ns_sec_bond_store_evt_handler          0x01006974   Section        0  ns_sec.o(i.ns_sec_bond_store_evt_handler)
    i.ns_sec_get_bond_status                 0x01006acc   Section        0  ns_sec.o(i.ns_sec_get_bond_status)
    i.ns_sec_get_iocap                       0x01006ad8   Section        0  ns_sec.o(i.ns_sec_get_iocap)
    i.ns_sec_init                            0x01006ae4   Section        0  ns_sec.o(i.ns_sec_init)
    i.ns_sleep_lock_acquire                  0x01006b4c   Section        0  ns_sleep.o(i.ns_sleep_lock_acquire)
    i.ns_sleep_lock_release                  0x01006b64   Section        0  ns_sleep.o(i.ns_sleep_lock_release)
    i.ns_timer_api_process_handler           0x01006b78   Section        0  ns_timer.o(i.ns_timer_api_process_handler)
    i.ns_timer_cancel                        0x01006c40   Section        0  ns_timer.o(i.ns_timer_cancel)
    i.ns_timer_create                        0x01006c8c   Section        0  ns_timer.o(i.ns_timer_create)
    i.prf_add_profile                        0x01006ccc   Section        0  prf.o(i.prf_add_profile)
    i.prf_dst_task_get                       0x01006d54   Section        0  prf.o(i.prf_dst_task_get)
    i.prf_env_get                            0x01006d64   Section        0  prf.o(i.prf_env_get)
    i.prf_get_id_from_task                   0x01006d94   Section        0  prf.o(i.prf_get_id_from_task)
    i.prf_get_itf_func_register              0x01006dcc   Section        0  prf.o(i.prf_get_itf_func_register)
    i.prf_get_task_from_id                   0x01006df4   Section        0  prf.o(i.prf_get_task_from_id)
    i.prf_init                               0x01006e2c   Section        0  prf.o(i.prf_init)
    i.prf_itf_get                            0x01006ee0   Section        0  prf.o(i.prf_itf_get)
    prf_itf_get                              0x01006ee1   Thumb Code    44  prf.o(i.prf_itf_get)
    i.prf_src_task_get                       0x01006f10   Section        0  prf.o(i.prf_src_task_get)
    i.rdtss_att_info_rsp_handler             0x01006f20   Section        0  rdtss_task.o(i.rdtss_att_info_rsp_handler)
    rdtss_att_info_rsp_handler               0x01006f21   Thumb Code    60  rdtss_task.o(i.rdtss_att_info_rsp_handler)
    i.rdtss_att_set_value                    0x01006f60   Section        0  rdtss_task.o(i.rdtss_att_set_value)
    rdtss_att_set_value                      0x01006f61   Thumb Code   104  rdtss_task.o(i.rdtss_att_set_value)
    i.rdtss_cleanup                          0x01006fc8   Section        0  rdtss.o(i.rdtss_cleanup)
    rdtss_cleanup                            0x01006fc9   Thumb Code    84  rdtss.o(i.rdtss_cleanup)
    i.rdtss_create                           0x01007020   Section        0  rdtss.o(i.rdtss_create)
    rdtss_create                             0x01007021   Thumb Code    70  rdtss.o(i.rdtss_create)
    i.rdtss_destroy                          0x0100706c   Section        0  rdtss.o(i.rdtss_destroy)
    rdtss_destroy                            0x0100706d   Thumb Code    66  rdtss.o(i.rdtss_destroy)
    i.rdtss_exe_operation                    0x010070b0   Section        0  rdtss_task.o(i.rdtss_exe_operation)
    rdtss_exe_operation                      0x010070b1   Thumb Code   232  rdtss_task.o(i.rdtss_exe_operation)
    i.rdtss_get_att_handle                   0x010071a0   Section        0  rdts_common.o(i.rdtss_get_att_handle)
    i.rdtss_get_att_idx                      0x010071bc   Section        0  rdts_common.o(i.rdtss_get_att_idx)
    i.rdtss_init                             0x010071e4   Section        0  rdtss.o(i.rdtss_init)
    rdtss_init                               0x010071e5   Thumb Code   152  rdtss.o(i.rdtss_init)
    i.rdtss_init_ccc_values                  0x0100727c   Section        0  rdtss_task.o(i.rdtss_init_ccc_values)
    i.rdtss_prf_itf_get                      0x01007320   Section        0  rdtss.o(i.rdtss_prf_itf_get)
    i.rdtss_send_notify                      0x01007328   Section        0  app_rdtss.o(i.rdtss_send_notify)
    i.rdtss_set_ccc_value                    0x01007370   Section        0  rdtss_task.o(i.rdtss_set_ccc_value)
    i.rdtss_task_init                        0x010073b8   Section        0  rdtss_task.o(i.rdtss_task_init)
    i.rdtss_val_ind_req_handler              0x010073d8   Section        0  rdtss_task.o(i.rdtss_val_ind_req_handler)
    rdtss_val_ind_req_handler                0x010073d9   Thumb Code    82  rdtss_task.o(i.rdtss_val_ind_req_handler)
    i.rdtss_val_ntf_cfm_handler              0x0100742a   Section        0  app_rdtss.o(i.rdtss_val_ntf_cfm_handler)
    rdtss_val_ntf_cfm_handler                0x0100742b   Thumb Code    10  app_rdtss.o(i.rdtss_val_ntf_cfm_handler)
    i.rdtss_val_ntf_req_handler              0x01007434   Section        0  rdtss_task.o(i.rdtss_val_ntf_req_handler)
    rdtss_val_ntf_req_handler                0x01007435   Thumb Code   104  rdtss_task.o(i.rdtss_val_ntf_req_handler)
    i.rdtss_val_set_req_handler              0x0100749c   Section        0  rdtss_task.o(i.rdtss_val_set_req_handler)
    rdtss_val_set_req_handler                0x0100749d   Thumb Code    32  rdtss_task.o(i.rdtss_val_set_req_handler)
    i.rdtss_val_write_ind_handler            0x010074bc   Section        0  app_rdtss.o(i.rdtss_val_write_ind_handler)
    rdtss_val_write_ind_handler              0x010074bd   Thumb Code    36  app_rdtss.o(i.rdtss_val_write_ind_handler)
    i.rdtss_value_req_ind_handler            0x010074e0   Section        0  app_rdtss.o(i.rdtss_value_req_ind_handler)
    rdtss_value_req_ind_handler              0x010074e1   Thumb Code    48  app_rdtss.o(i.rdtss_value_req_ind_handler)
    i.rdtss_value_req_rsp_handler            0x0100751c   Section        0  rdtss_task.o(i.rdtss_value_req_rsp_handler)
    rdtss_value_req_rsp_handler              0x0100751d   Thumb Code   124  rdtss_task.o(i.rdtss_value_req_rsp_handler)
    i.rf_tx_power_set                        0x0100759c   Section        0  rwip_driver.o(i.rf_tx_power_set)
    i.rwip_init                              0x01007618   Section        0  rwip.o(i.rwip_init)
    i.rwip_slp_isr                           0x010076f8   Section        0  rwip_driver.o(i.rwip_slp_isr)
    i.timer_canceled_handler                 0x010077d8   Section        0  ns_timer.o(i.timer_canceled_handler)
    timer_canceled_handler                   0x010077d9   Thumb Code     2  ns_timer.o(i.timer_canceled_handler)
    i.timer_modified_handler                 0x010077da   Section        0  ns_timer.o(i.timer_modified_handler)
    timer_modified_handler                   0x010077db   Thumb Code     2  ns_timer.o(i.timer_modified_handler)
    i.usart_forward_to_ble_loop              0x010077dc   Section        0  app_usart.o(i.usart_forward_to_ble_loop)
    i.usart_rx_check_in_irq                  0x01007828   Section        0  app_usart.o(i.usart_rx_check_in_irq)
    i.usart_tx_dma_send                      0x0100787c   Section        0  app_usart.o(i.usart_tx_dma_send)
    .constdata                               0x010078d8   Section      320  system_n32wb03x.o(.constdata)
    .constdata                               0x01007a18   Section       30  rwip_driver.o(.constdata)
    TXPWR_MAP                                0x01007a18   Data          30  rwip_driver.o(.constdata)
    .constdata                               0x01007a38   Section      168  diss.o(.constdata)
    .constdata                               0x01007ae0   Section       24  diss_task.o(.constdata)
    diss_msg_handler_tab                     0x01007ae0   Data          24  diss_task.o(.constdata)
    .constdata                               0x01007af8   Section       16  rdtss.o(.constdata)
    .constdata                               0x01007b08   Section       72  rdtss_task.o(.constdata)
    rdtss_msg_handler_tab                    0x01007b08   Data          72  rdtss_task.o(.constdata)
    .constdata                               0x01007b50   Section       40  ns_sec.o(.constdata)
    .constdata                               0x01007b78   Section        8  ns_sec.o(.constdata)
    .constdata                               0x01007b80   Section       21  ns_ble.o(.constdata)
    __func__                                 0x01007b80   Data          21  ns_ble.o(.constdata)
    .constdata                               0x01007b96   Section      205  ns_ble_task.o(.constdata)
    gapm_att_db                              0x01007b96   Data          88  ns_ble_task.o(.constdata)
    gattm_att_db                             0x01007bee   Data          64  ns_ble_task.o(.constdata)
    __func__                                 0x01007c2e   Data          21  ns_ble_task.o(.constdata)
    __func__                                 0x01007c43   Data          32  ns_ble_task.o(.constdata)
    .constdata                               0x01007c64   Section      184  ns_ble_task.o(.constdata)
    app_msg_handler_tab                      0x01007c64   Data         184  ns_ble_task.o(.constdata)
    .constdata                               0x01007d1c   Section       12  ns_ble_task.o(.constdata)
    .constdata                               0x01007d28   Section        8  app_dis.o(.constdata)
    .constdata                               0x01007d30   Section        8  app_dis.o(.constdata)
    .constdata                               0x01007d38   Section      178  app_rdtss.o(.constdata)
    .constdata                               0x01007dec   Section       24  app_rdtss.o(.constdata)
    .constdata                               0x01007e04   Section       48  gy_common.o(.constdata)
    .constdata                               0x01007e34   Section       60  rtc.o(.constdata)
    mon_table                                0x01007e34   Data          12  rtc.o(.constdata)
    mon_yday                                 0x01007e40   Data          48  rtc.o(.constdata)
    .constdata                               0x01007e70   Section       40  user_ble.o(.constdata)
    .constdata                               0x01007e98   Section      404  bat.o(.constdata)
    Lithium_BAT                              0x01007e98   Data         404  bat.o(.constdata)
    .constdata                               0x0100802c   Section       38  du_eye.o(.constdata)
    .constdata                               0x01008052   Section       16  segger_rtt_printf.o(.constdata)
    _aV2C                                    0x01008052   Data          16  segger_rtt_printf.o(.constdata)
    .constdata                               0x01008062   Section      129  ctype_o.o(.constdata)
    .constdata                               0x010080e4   Section        4  ctype_o.o(.constdata)
    table                                    0x010080e4   Data           4  ctype_o.o(.constdata)
    .conststring                             0x010080e8   Section       48  gy_common.o(.conststring)
    .data                                    0x20004000   Section      816  n32wb03x_qflash.o(.data)
    _acCMD_BIN                               0x2000400c   Data         804  n32wb03x_qflash.o(.data)
    .data                                    0x20004330   Section        3  rwip_driver.o(.data)
    modem_setmode                            0x20004331   Data           2  rwip_driver.o(.data)
    .data                                    0x20004334   Section        8  ns_sleep.o(.data)
    .data                                    0x2000433c   Section       60  ns_ble.o(.data)
    rwip_fifo_isr_codeArray                  0x20004344   Data          52  ns_ble.o(.data)
    .data                                    0x20004378   Section        2  ns_ble_task.o(.data)
    calib_times                              0x20004378   Data           2  ns_ble_task.o(.data)
    .data                                    0x2000437a   Section        1  ns_ble_task.o(.data)
    .data                                    0x2000437c   Section        4  gy_common.o(.data)
    .data                                    0x20004380   Section       10  rtc.o(.data)
    .data                                    0x2000438a   Section        1  pwm.o(.data)
    PowerKey_Counter                         0x2000438a   Data           1  pwm.o(.data)
    .data                                    0x2000438c   Section       28  user_ble.o(.data)
    .data                                    0x200043a8   Section        2  wnt6170.o(.data)
    .data                                    0x200043aa   Section       16  du_eye.o(.data)
    Frist_Key_Flag                           0x200043aa   Data           1  du_eye.o(.data)
    .data                                    0x200043bc   Section       40  app_usart.o(.data)
    .data                                    0x200043e4   Section        4  rand.o(.data)
    _rand_state                              0x200043e4   Data           4  rand.o(.data)
    .data                                    0x200043e8   Section        4  errno.o(.data)
    _errno                                   0x200043e8   Data           4  errno.o(.data)
    .bss                                     0x200043ec   Section       52  system_n32wb03x.o(.bss)
    .bss                                     0x20004420   Section      284  prf.o(.bss)
    .bss                                     0x2000453c   Section       80  ns_timer.o(.bss)
    timer_callback_array                     0x2000453c   Data          40  ns_timer.o(.bss)
    modified_timer_callback_array            0x20004564   Data          40  ns_timer.o(.bss)
    .bss                                     0x2000458c   Section       92  ns_sec.o(.bss)
    .bss                                     0x200045e8   Section      436  ns_ble.o(.bss)
    .bss                                     0x2000479c   Section       16  stmflash.o(.bss)
    .bss                                     0x200047ac   Section     1088  app_usart.o(.bss)
    .bss                                     0x20004bec   Section     1208  segger_rtt.o(.bss)
    _acUpBuffer                              0x20004c94   Data        1024  segger_rtt.o(.bss)
    _acDownBuffer                            0x20005094   Data          16  segger_rtt.o(.bss)
    STACK                                    0x200050a8   Section     2048  startup_n32wb03x.o(STACK)

    Global Symbols

    Symbol Name                              Value     Ov Type        Size  Object(Section)

    BuildAttributes$$THM_ISAv3M$S$PE$A:L22$X:L11$S22$IEEE1$IW$USESV6$~STKCKD$USESV7$~SHL$OTIME$ROPI$EBA8$MICROLIB$REQ8$PRES8$EABIv2 0x00000000   Number         0  anon$$obj.o ABSOLUTE
    __ARM_use_no_argv                        0x00000000   Number         0  main.o ABSOLUTE
    __use_no_errno                           0x00000000   Number         0  useno.o ABSOLUTE
    __use_no_exception_handling              0x00000000   Number         0  useno.o ABSOLUTE
    __use_no_fp                              0x00000000   Number         0  useno.o ABSOLUTE
    __use_no_heap                            0x00000000   Number         0  useno.o ABSOLUTE
    __use_no_heap_region                     0x00000000   Number         0  useno.o ABSOLUTE
    __use_no_semihosting                     0x00000000   Number         0  useno.o ABSOLUTE
    __use_no_semihosting_swi                 0x00000000   Number         0  useno.o ABSOLUTE
    __use_no_signal_handling                 0x00000000   Number         0  useno.o ABSOLUTE
    __arm_fini_                               - Undefined Weak Reference
    __cpp_initialize__aeabi_                  - Undefined Weak Reference
    __cxa_finalize                            - Undefined Weak Reference
    _clock_init                               - Undefined Weak Reference
    _microlib_exit                            - Undefined Weak Reference
    __Vectors_Size                           0x000000c0   Number         0  startup_n32wb03x.o ABSOLUTE
    Adc_IRQHandler                           0x00000a9d   Thumb Code     0  symbol_g15.obj ABSOLUTE
    Add2SelfBigHex256                        0x00000abd   Thumb Code     0  symbol_g15.obj ABSOLUTE
    AddBigHex256                             0x00000b05   Thumb Code     0  symbol_g15.obj ABSOLUTE
    AddBigHexModP256                         0x00000b55   Thumb Code     0  symbol_g15.obj ABSOLUTE
    AddP256                                  0x00000ba5   Thumb Code     0  symbol_g15.obj ABSOLUTE
    AddPdiv2_256                             0x00000bd5   Thumb Code     0  symbol_g15.obj ABSOLUTE
    BT_set_advert_data                       0x00000cdd   Thumb Code     0  symbol_g15.obj ABSOLUTE
    EXTI_PA11_Configuration                  0x00001079   Thumb Code     0  symbol_g15.obj ABSOLUTE
    ModuleIrqRegister                        0x00002211   Thumb Code     0  symbol_g15.obj ABSOLUTE
    ModuleIrqRemoval                         0x0000223d   Thumb Code     0  symbol_g15.obj ABSOLUTE
    Spi2_IRQHandler                          0x000025d9   Thumb Code     0  symbol_g15.obj ABSOLUTE
    SubtractBigHex256                        0x000025f9   Thumb Code     0  symbol_g15.obj ABSOLUTE
    SubtractBigHexMod256                     0x00002655   Thumb Code     0  symbol_g15.obj ABSOLUTE
    SubtractFromSelfBigHex256                0x00002751   Thumb Code     0  symbol_g15.obj ABSOLUTE
    SubtractFromSelfBigHexSign256            0x000027a5   Thumb Code     0  symbol_g15.obj ABSOLUTE
    SysTick_IRQHandler                       0x0000286d   Thumb Code     0  symbol_g15.obj ABSOLUTE
    Tim1BrkUpRrgCom_IRQHandler               0x00002895   Thumb Code     0  symbol_g15.obj ABSOLUTE
    Tim1Cc_IRQHandler                        0x000028b5   Thumb Code     0  symbol_g15.obj ABSOLUTE
    Tim3_IRQHandler                          0x000028d5   Thumb Code     0  symbol_g15.obj ABSOLUTE
    Tim6_IRQHandler                          0x000028f5   Thumb Code     0  symbol_g15.obj ABSOLUTE
    Usart1_IRQHandler                        0x00002915   Thumb Code     0  symbol_g15.obj ABSOLUTE
    Usart2_IRQHandler                        0x00002935   Thumb Code     0  symbol_g15.obj ABSOLUTE
    Wdt_IRQHandler                           0x00002955   Thumb Code     0  symbol_g15.obj ABSOLUTE
    __ARM_common_ll_muluu                    0x00002985   Thumb Code     0  symbol_g15.obj ABSOLUTE
    __ARM_common_memclr1_5                   0x000029b7   Thumb Code     0  symbol_g15.obj ABSOLUTE
    __ARM_common_memclr1_6                   0x000029c5   Thumb Code     0  symbol_g15.obj ABSOLUTE
    __ARM_common_memclr1_8                   0x000029d5   Thumb Code     0  symbol_g15.obj ABSOLUTE
    __ARM_common_memclr2_10                  0x000029e9   Thumb Code     0  symbol_g15.obj ABSOLUTE
    __ARM_common_memclr2_6                   0x000029f7   Thumb Code     0  symbol_g15.obj ABSOLUTE
    __ARM_common_memclr2_8                   0x00002a01   Thumb Code     0  symbol_g15.obj ABSOLUTE
    __ARM_common_memcpy1_5                   0x00002a0d   Thumb Code     0  symbol_g15.obj ABSOLUTE
    __ARM_common_memcpy1_6                   0x00002a23   Thumb Code     0  symbol_g15.obj ABSOLUTE
    __ARM_common_memcpy1_8                   0x00002a3d   Thumb Code     0  symbol_g15.obj ABSOLUTE
    __ARM_common_memcpy2_5                   0x00002a5f   Thumb Code     0  symbol_g15.obj ABSOLUTE
    __ARM_common_memcpy2_6                   0x00002a6d   Thumb Code     0  symbol_g15.obj ABSOLUTE
    __ARM_common_memcpy2_8                   0x00002a7b   Thumb Code     0  symbol_g15.obj ABSOLUTE
    __ARM_common_memcpy4_5                   0x00002a8d   Thumb Code     0  symbol_g15.obj ABSOLUTE
    __ARM_common_memset1_5                   0x00002a97   Thumb Code     0  symbol_g15.obj ABSOLUTE
    __ARM_common_memset4_5                   0x00002aa5   Thumb Code     0  symbol_g15.obj ABSOLUTE
    __scatterload_copy                       0x00002ae1   Thumb Code     0  symbol_g15.obj ABSOLUTE
    __scatterload_null                       0x00002aef   Thumb Code     0  symbol_g15.obj ABSOLUTE
    __scatterload_zeroinit                   0x00002af1   Thumb Code     0  symbol_g15.obj ABSOLUTE
    acl_flow_ctrl_send                       0x00002b1d   Thumb Code     0  symbol_g15.obj ABSOLUTE
    aes_alloc                                0x00002b5d   Thumb Code     0  symbol_g15.obj ABSOLUTE
    aes_c1                                   0x00002b75   Thumb Code     0  symbol_g15.obj ABSOLUTE
    aes_cmac                                 0x00002bf9   Thumb Code     0  symbol_g15.obj ABSOLUTE
    aes_cmac_continue                        0x00002c45   Thumb Code     0  symbol_g15.obj ABSOLUTE
    aes_cmac_start                           0x00002d71   Thumb Code     0  symbol_g15.obj ABSOLUTE
    aes_encrypt                              0x00002da1   Thumb Code     0  symbol_g15.obj ABSOLUTE
    aes_f4                                   0x00002e35   Thumb Code     0  symbol_g15.obj ABSOLUTE
    aes_init                                 0x00002e89   Thumb Code     0  symbol_g15.obj ABSOLUTE
    aes_rand                                 0x00002ed9   Thumb Code     0  symbol_g15.obj ABSOLUTE
    aes_result_handler                       0x00002f09   Thumb Code     0  symbol_g15.obj ABSOLUTE
    aes_rpa_gen                              0x00002f61   Thumb Code     0  symbol_g15.obj ABSOLUTE
    aes_rpa_resolve                          0x00002ff5   Thumb Code     0  symbol_g15.obj ABSOLUTE
    aes_shift_left_128                       0x000030d9   Thumb Code     0  symbol_g15.obj ABSOLUTE
    aes_start                                0x00003101   Thumb Code     0  symbol_g15.obj ABSOLUTE
    aes_xor_128                              0x00003131   Thumb Code     0  symbol_g15.obj ABSOLUTE
    ahi_init                                 0x000043b1   Thumb Code     0  symbol_g15.obj ABSOLUTE
    ahi_send_msg                             0x00004425   Thumb Code     0  symbol_g15.obj ABSOLUTE
    app2ahi_evt_cmd_cmp                      0x0000452d   Thumb Code     0  symbol_g15.obj ABSOLUTE
    app2ahi_evt_other                        0x00004599   Thumb Code     0  symbol_g15.obj ABSOLUTE
    appc_data_lenght_extend                  0x00004cf5   Thumb Code     0  symbol_g15.obj ABSOLUTE
    appm_exchange_mtu                        0x00004d25   Thumb Code     0  symbol_g15.obj ABSOLUTE
    attc_l2cc_pdu_recv_handler               0x00004e3d   Thumb Code     0  symbol_g15.obj ABSOLUTE
    attc_send_att_req                        0x00004e8d   Thumb Code     0  symbol_g15.obj ABSOLUTE
    attm_att_get_perm                        0x00004eb9   Thumb Code     0  symbol_g15.obj ABSOLUTE
    attm_att_update_perm                     0x00004ed1   Thumb Code     0  symbol_g15.obj ABSOLUTE
    attm_convert_to128                       0x00004f4d   Thumb Code     0  symbol_g15.obj ABSOLUTE
    attm_get_value                           0x00004f95   Thumb Code     0  symbol_g15.obj ABSOLUTE
    attm_init                                0x00005119   Thumb Code     0  symbol_g15.obj ABSOLUTE
    attm_is_bt16_uuid                        0x0000513d   Thumb Code     0  symbol_g15.obj ABSOLUTE
    attm_is_bt32_uuid                        0x00005175   Thumb Code     0  symbol_g15.obj ABSOLUTE
    attm_svc_create_db                       0x000051b5   Thumb Code     0  symbol_g15.obj ABSOLUTE
    attm_svc_create_db_128                   0x000052ab   Thumb Code     0  symbol_g15.obj ABSOLUTE
    attm_svc_get_permission                  0x000053d1   Thumb Code     0  symbol_g15.obj ABSOLUTE
    attm_uuid16_comp                         0x000053ef   Thumb Code     0  symbol_g15.obj ABSOLUTE
    attm_uuid_comp                           0x000053fd   Thumb Code     0  symbol_g15.obj ABSOLUTE
    attmdb_add_service                       0x00005469   Thumb Code     0  symbol_g15.obj ABSOLUTE
    attmdb_att_get_permission                0x000054e9   Thumb Code     0  symbol_g15.obj ABSOLUTE
    attmdb_destroy                           0x0000563d   Thumb Code     0  symbol_g15.obj ABSOLUTE
    attmdb_get_attribute                     0x0000566d   Thumb Code     0  symbol_g15.obj ABSOLUTE
    attmdb_get_max_len                       0x000056a1   Thumb Code     0  symbol_g15.obj ABSOLUTE
    attmdb_get_next_att                      0x00005715   Thumb Code     0  symbol_g15.obj ABSOLUTE
    attmdb_get_service                       0x00005799   Thumb Code     0  symbol_g15.obj ABSOLUTE
    attmdb_get_uuid                          0x000057ed   Thumb Code     0  symbol_g15.obj ABSOLUTE
    attmdb_hash_compute                      0x000058d5   Thumb Code     0  symbol_g15.obj ABSOLUTE
    attmdb_svc_check_hdl                     0x00005dfd   Thumb Code     0  symbol_g15.obj ABSOLUTE
    attmdb_uuid16_comp                       0x00006065   Thumb Code     0  symbol_g15.obj ABSOLUTE
    atts_clear_prep_data                     0x000060a9   Thumb Code     0  symbol_g15.obj ABSOLUTE
    atts_clear_read_cache                    0x000060e5   Thumb Code     0  symbol_g15.obj ABSOLUTE
    atts_clear_rsp_data                      0x00006105   Thumb Code     0  symbol_g15.obj ABSOLUTE
    atts_get_dest_task                       0x000067b9   Thumb Code     0  symbol_g15.obj ABSOLUTE
    atts_l2cc_pdu_recv_handler               0x00006861   Thumb Code     0  symbol_g15.obj ABSOLUTE
    atts_process_pdu                         0x00006af1   Thumb Code     0  symbol_g15.obj ABSOLUTE
    atts_send_error                          0x000071d9   Thumb Code     0  symbol_g15.obj ABSOLUTE
    atts_send_event                          0x000071fd   Thumb Code     0  symbol_g15.obj ABSOLUTE
    atts_write_rsp_send                      0x000073b5   Thumb Code     0  symbol_g15.obj ABSOLUTE
    atts_write_signed_cfm                    0x0000746b   Thumb Code     0  symbol_g15.obj ABSOLUTE
    baseband_init                            0x000074b1   Thumb Code     0  symbol_g15.obj ABSOLUTE
    bigHexInversion256                       0x00007549   Thumb Code     0  symbol_g15.obj ABSOLUTE
    ble_util_buf_acl_tx_alloc                0x0000777d   Thumb Code     0  symbol_g15.obj ABSOLUTE
    ble_util_buf_acl_tx_elt_get              0x000077a5   Thumb Code     0  symbol_g15.obj ABSOLUTE
    ble_util_buf_acl_tx_free                 0x0000780d   Thumb Code     0  symbol_g15.obj ABSOLUTE
    ble_util_buf_adv_tx_alloc                0x0000788d   Thumb Code     0  symbol_g15.obj ABSOLUTE
    ble_util_buf_adv_tx_free                 0x000078b5   Thumb Code     0  symbol_g15.obj ABSOLUTE
    ble_util_buf_init                        0x0000791d   Thumb Code     0  symbol_g15.obj ABSOLUTE
    ble_util_buf_llcp_tx_alloc               0x00007a5d   Thumb Code     0  symbol_g15.obj ABSOLUTE
    ble_util_buf_llcp_tx_free                0x00007a79   Thumb Code     0  symbol_g15.obj ABSOLUTE
    ble_util_buf_rx_alloc                    0x00007ac9   Thumb Code     0  symbol_g15.obj ABSOLUTE
    ble_util_buf_rx_free                     0x00007ae1   Thumb Code     0  symbol_g15.obj ABSOLUTE
    calib_clk_init                           0x00007b51   Thumb Code     0  symbol_g15.obj ABSOLUTE
    calib_hsi_clk                            0x00007b65   Thumb Code     0  symbol_g15.obj ABSOLUTE
    calib_lsi_clk                            0x00007c1d   Thumb Code     0  symbol_g15.obj ABSOLUTE
    co_bdaddr_compare                        0x00007e17   Thumb Code     0  symbol_g15.obj ABSOLUTE
    co_ble_pkt_dur_in_us                     0x00007e37   Thumb Code     0  symbol_g15.obj ABSOLUTE
    co_list_extract                          0x00007e69   Thumb Code     0  symbol_g15.obj ABSOLUTE
    co_list_extract_after                    0x00007ea3   Thumb Code     0  symbol_g15.obj ABSOLUTE
    co_list_extract_sublist                  0x00007ebd   Thumb Code     0  symbol_g15.obj ABSOLUTE
    co_list_init                             0x00007ed3   Thumb Code     0  symbol_g15.obj ABSOLUTE
    co_list_insert_after                     0x00007edb   Thumb Code     0  symbol_g15.obj ABSOLUTE
    co_list_insert_before                    0x00007f3d   Thumb Code     0  symbol_g15.obj ABSOLUTE
    co_list_pool_init                        0x00007f8d   Thumb Code     0  symbol_g15.obj ABSOLUTE
    co_list_pop_front                        0x00007faf   Thumb Code     0  symbol_g15.obj ABSOLUTE
    co_list_push_back                        0x00007fc3   Thumb Code     0  symbol_g15.obj ABSOLUTE
    co_list_push_back_sublist                0x00007fe3   Thumb Code     0  symbol_g15.obj ABSOLUTE
    co_list_push_front                       0x00008003   Thumb Code     0  symbol_g15.obj ABSOLUTE
    co_list_size                             0x0000801b   Thumb Code     0  symbol_g15.obj ABSOLUTE
    co_nb_good_le_channels                   0x00008031   Thumb Code     0  symbol_g15.obj ABSOLUTE
    co_util_pack                             0x00008059   Thumb Code     0  symbol_g15.obj ABSOLUTE
    co_util_unpack                           0x00008241   Thumb Code     0  symbol_g15.obj ABSOLUTE
    delay_n_10us                             0x00008471   Thumb Code     0  symbol_g15.obj ABSOLUTE
    delay_n_ms                               0x00008489   Thumb Code     0  symbol_g15.obj ABSOLUTE
    delay_n_us                               0x000084a9   Thumb Code     0  symbol_g15.obj ABSOLUTE
    dl_upd_proc_start                        0x000084c1   Thumb Code     0  symbol_g15.obj ABSOLUTE
    dma_lpuart_read                          0x00008531   Thumb Code     0  symbol_g15.obj ABSOLUTE
    dma_lpuart_rx_len                        0x000085f9   Thumb Code     0  symbol_g15.obj ABSOLUTE
    dma_soft_flow_ctrl_read                  0x00008615   Thumb Code     0  symbol_g15.obj ABSOLUTE
    dma_soft_flow_ctrl_write                 0x00008751   Thumb Code     0  symbol_g15.obj ABSOLUTE
    dma_spis_read                            0x00008885   Thumb Code     0  symbol_g15.obj ABSOLUTE
    dma_spis_rx_len                          0x00008951   Thumb Code     0  symbol_g15.obj ABSOLUTE
    dma_spis_tx_len                          0x0000896d   Thumb Code     0  symbol_g15.obj ABSOLUTE
    dma_spis_write                           0x00008989   Thumb Code     0  symbol_g15.obj ABSOLUTE
    ecc_gen_new_public_key                   0x00008b4d   Thumb Code     0  symbol_g15.obj ABSOLUTE
    ecc_gen_new_secret_key                   0x00008b6d   Thumb Code     0  symbol_g15.obj ABSOLUTE
    ecc_generate_key256                      0x00008c65   Thumb Code     0  symbol_g15.obj ABSOLUTE
    ecc_init                                 0x00008ff5   Thumb Code     0  symbol_g15.obj ABSOLUTE
    entry_shutdown                           0x00009575   Thumb Code     0  symbol_g15.obj ABSOLUTE
    gapc_auth_get                            0x0000998d   Thumb Code     0  symbol_g15.obj ABSOLUTE
    gapc_auth_set                            0x000099c5   Thumb Code     0  symbol_g15.obj ABSOLUTE
    gapc_bond_cfm_handler                    0x00009a25   Thumb Code     0  symbol_g15.obj ABSOLUTE
    gapc_bond_cmd_handler                    0x00009c81   Thumb Code     0  symbol_g15.obj ABSOLUTE
    gapc_con_cleanup                         0x0000a101   Thumb Code     0  symbol_g15.obj ABSOLUTE
    gapc_con_create                          0x0000a111   Thumb Code     0  symbol_g15.obj ABSOLUTE
    gapc_enc_keysize_get                     0x0000a505   Thumb Code     0  symbol_g15.obj ABSOLUTE
    gapc_encrypt_cfm_handler                 0x0000a521   Thumb Code     0  symbol_g15.obj ABSOLUTE
    gapc_encrypt_cmd_handler                 0x0000a5c9   Thumb Code     0  symbol_g15.obj ABSOLUTE
    gapc_get_bdaddr                          0x0000a74d   Thumb Code     0  symbol_g15.obj ABSOLUTE
    gapc_get_chan_sel_algo                   0x0000a771   Thumb Code     0  symbol_g15.obj ABSOLUTE
    gapc_get_conhdl                          0x0000a789   Thumb Code     0  symbol_g15.obj ABSOLUTE
    gapc_get_conidx                          0x0000a7a9   Thumb Code     0  symbol_g15.obj ABSOLUTE
    gapc_get_dest_task                       0x0000a7d5   Thumb Code     0  symbol_g15.obj ABSOLUTE
    gapc_get_operation                       0x0000ab1d   Thumb Code     0  symbol_g15.obj ABSOLUTE
    gapc_get_operation_ptr                   0x0000ab39   Thumb Code     0  symbol_g15.obj ABSOLUTE
    gapc_get_requester                       0x0000ab49   Thumb Code     0  symbol_g15.obj ABSOLUTE
    gapc_get_role                            0x0000ab69   Thumb Code     0  symbol_g15.obj ABSOLUTE
    gapc_hci_handler                         0x0000ab89   Thumb Code     0  symbol_g15.obj ABSOLUTE
    gapc_init                                0x0000abfd   Thumb Code     0  symbol_g15.obj ABSOLUTE
    gapc_is_sec_set                          0x0000ac51   Thumb Code     0  symbol_g15.obj ABSOLUTE
    gapc_lk_sec_lvl_get                      0x0000ace1   Thumb Code     0  symbol_g15.obj ABSOLUTE
    gapc_param_update_sanity                 0x0000af89   Thumb Code     0  symbol_g15.obj ABSOLUTE
    gapc_per_adv_sync_trans_cmd_handler      0x0000b039   Thumb Code     0  symbol_g15.obj ABSOLUTE
    gapc_process_op                          0x0000b0f1   Thumb Code     0  symbol_g15.obj ABSOLUTE
    gapc_reschedule_operation                0x0000b191   Thumb Code     0  symbol_g15.obj ABSOLUTE
    gapc_security_cmd_handler                0x0000b1c5   Thumb Code     0  symbol_g15.obj ABSOLUTE
    gapc_send_complete_evt                   0x0000b261   Thumb Code     0  symbol_g15.obj ABSOLUTE
    gapc_send_disconect_ind                  0x0000b2d5   Thumb Code     0  symbol_g15.obj ABSOLUTE
    gapc_send_error_evt                      0x0000b2f9   Thumb Code     0  symbol_g15.obj ABSOLUTE
    gapc_set_local_addr                      0x0000b469   Thumb Code     0  symbol_g15.obj ABSOLUTE
    gapc_set_operation_ptr                   0x0000b4d9   Thumb Code     0  symbol_g15.obj ABSOLUTE
    gapc_sig_pdu_recv_handler                0x0000b601   Thumb Code     0  symbol_g15.obj ABSOLUTE
    gapc_sign_cmd_handler                    0x0000b639   Thumb Code     0  symbol_g15.obj ABSOLUTE
    gapc_smp_cleanup                         0x0000bb21   Thumb Code     0  symbol_g15.obj ABSOLUTE
    gapc_smp_gapm_cmp_evt_handler            0x0000bc6d   Thumb Code     0  symbol_g15.obj ABSOLUTE
    gapc_smp_pdu_recv                        0x0000c15d   Thumb Code     0  symbol_g15.obj ABSOLUTE
    gapc_smp_rep_attempts_timer_handler      0x0000c5b9   Thumb Code     0  symbol_g15.obj ABSOLUTE
    gapc_smp_timeout_timer_ind_handler       0x0000c7f1   Thumb Code     0  symbol_g15.obj ABSOLUTE
    gapc_update_state                        0x0000ca65   Thumb Code     0  symbol_g15.obj ABSOLUTE
    gapm_activity_create_cmd_handler         0x0000ca9d   Thumb Code     0  symbol_g15.obj ABSOLUTE
    gapm_activity_delete_cmd_handler         0x0000cb7d   Thumb Code     0  symbol_g15.obj ABSOLUTE
    gapm_activity_start_cmd_handler          0x0000cc0d   Thumb Code     0  symbol_g15.obj ABSOLUTE
    gapm_activity_stop_cmd_handler           0x0000cc7d   Thumb Code     0  symbol_g15.obj ABSOLUTE
    gapm_actv_alloc                          0x0000cd55   Thumb Code     0  symbol_g15.obj ABSOLUTE
    gapm_actv_created                        0x0000cd85   Thumb Code     0  symbol_g15.obj ABSOLUTE
    gapm_actv_deleted                        0x0000cdf9   Thumb Code     0  symbol_g15.obj ABSOLUTE
    gapm_actv_get_hci_own_addr_type          0x0000ce75   Thumb Code     0  symbol_g15.obj ABSOLUTE
    gapm_actv_info_get                       0x0000ce99   Thumb Code     0  symbol_g15.obj ABSOLUTE
    gapm_actv_rand_addr_set_ind              0x0000cedd   Thumb Code     0  symbol_g15.obj ABSOLUTE
    gapm_actv_reset                          0x0000cef9   Thumb Code     0  symbol_g15.obj ABSOLUTE
    gapm_actv_retrieve_cmd_cmp_evt           0x0000cf49   Thumb Code     0  symbol_g15.obj ABSOLUTE
    gapm_actv_started                        0x0000cf81   Thumb Code     0  symbol_g15.obj ABSOLUTE
    gapm_actv_stopped                        0x0000cfad   Thumb Code     0  symbol_g15.obj ABSOLUTE
    gapm_addr_init                           0x0000d119   Thumb Code     0  symbol_g15.obj ABSOLUTE
    gapm_addr_renew_cmd_handler              0x0000d135   Thumb Code     0  symbol_g15.obj ABSOLUTE
    gapm_addr_renew_to_ind_handler           0x0000d1d9   Thumb Code     0  symbol_g15.obj ABSOLUTE
    gapm_addr_set_rand_addr                  0x0000d201   Thumb Code     0  symbol_g15.obj ABSOLUTE
    gapm_adv_create                          0x0000d265   Thumb Code     0  symbol_g15.obj ABSOLUTE
    gapm_con_cleanup                         0x0000d989   Thumb Code     0  symbol_g15.obj ABSOLUTE
    gapm_con_create                          0x0000d9bd   Thumb Code     0  symbol_g15.obj ABSOLUTE
    gapm_dev_bdaddr_ind_handler              0x0000da29   Thumb Code     0  symbol_g15.obj ABSOLUTE
    gapm_dle_val_check                       0x0000da6d   Thumb Code     0  symbol_g15.obj ABSOLUTE
    gapm_gen_rand_addr_cmd_handler           0x0000da8d   Thumb Code     0  symbol_g15.obj ABSOLUTE
    gapm_get_address_type                    0x0000db31   Thumb Code     0  symbol_g15.obj ABSOLUTE
    gapm_get_att_handle                      0x0000db41   Thumb Code     0  symbol_g15.obj ABSOLUTE
    gapm_get_bdaddr                          0x0000db85   Thumb Code     0  symbol_g15.obj ABSOLUTE
    gapm_get_dev_info_cmd_handler            0x0000db8d   Thumb Code     0  symbol_g15.obj ABSOLUTE
    gapm_get_id_from_task                    0x0000dcc1   Thumb Code     0  symbol_g15.obj ABSOLUTE
    gapm_get_irk                             0x0000dd15   Thumb Code     0  symbol_g15.obj ABSOLUTE
    gapm_get_max_mtu                         0x0000dd1d   Thumb Code     0  symbol_g15.obj ABSOLUTE
    gapm_get_operation                       0x0000dd29   Thumb Code     0  symbol_g15.obj ABSOLUTE
    gapm_get_ral_addr_cmd_handler            0x0000dd41   Thumb Code     0  symbol_g15.obj ABSOLUTE
    gapm_get_requester                       0x0000dd99   Thumb Code     0  symbol_g15.obj ABSOLUTE
    gapm_get_task_from_id                    0x0000ddb5   Thumb Code     0  symbol_g15.obj ABSOLUTE
    gapm_init                                0x0000de5d   Thumb Code     0  symbol_g15.obj ABSOLUTE
    gapm_is_legacy_pairing_supp              0x0000defd   Thumb Code     0  symbol_g15.obj ABSOLUTE
    gapm_is_pref_con_param_pres              0x0000df0d   Thumb Code     0  symbol_g15.obj ABSOLUTE
    gapm_is_sec_con_pairing_supp             0x0000df1d   Thumb Code     0  symbol_g15.obj ABSOLUTE
    gapm_le_test_mode_ctrl_cmd_handler       0x0000df2d   Thumb Code     0  symbol_g15.obj ABSOLUTE
    gapm_lepsm_register_cmd_handler          0x0000e01d   Thumb Code     0  symbol_g15.obj ABSOLUTE
    gapm_lepsm_unregister_cmd_handler        0x0000e045   Thumb Code     0  symbol_g15.obj ABSOLUTE
    gapm_list_set_cmd_handler                0x0000e06d   Thumb Code     0  symbol_g15.obj ABSOLUTE
    gapm_process_op                          0x0000e271   Thumb Code     0  symbol_g15.obj ABSOLUTE
    gapm_profile_task_add_cmd_handler        0x0000e355   Thumb Code     0  symbol_g15.obj ABSOLUTE
    gapm_reset_cmd_handler                   0x0000e3d9   Thumb Code     0  symbol_g15.obj ABSOLUTE
    gapm_resolv_addr_cmd_handler             0x0000e44d   Thumb Code     0  symbol_g15.obj ABSOLUTE
    gapm_send_complete_evt                   0x0000e49d   Thumb Code     0  symbol_g15.obj ABSOLUTE
    gapm_send_error_evt                      0x0000e4e5   Thumb Code     0  symbol_g15.obj ABSOLUTE
    gapm_set_adv_data_cmd_handler            0x0000e509   Thumb Code     0  symbol_g15.obj ABSOLUTE
    gapm_set_channel_map_cmd_handler         0x0000e669   Thumb Code     0  symbol_g15.obj ABSOLUTE
    gapm_set_dev_config_cmd_handler          0x0000e6c9   Thumb Code     0  symbol_g15.obj ABSOLUTE
    gapm_set_irk_cmd_handler                 0x0000e839   Thumb Code     0  symbol_g15.obj ABSOLUTE
    gapm_use_enc_block_cmd_handler           0x0000ea51   Thumb Code     0  symbol_g15.obj ABSOLUTE
    gattc_cleanup                            0x0000ebcd   Thumb Code     0  symbol_g15.obj ABSOLUTE
    gattc_con_enable                         0x0000ed79   Thumb Code     0  symbol_g15.obj ABSOLUTE
    gattc_con_info_send                      0x0000ee29   Thumb Code     0  symbol_g15.obj ABSOLUTE
    gattc_create                             0x0000ee9d   Thumb Code     0  symbol_g15.obj ABSOLUTE
    gattc_db_updated                         0x0000ef1d   Thumb Code     0  symbol_g15.obj ABSOLUTE
    gattc_get_l2c_code                       0x0000eff5   Thumb Code     0  symbol_g15.obj ABSOLUTE
    gattc_get_mtu                            0x0000f005   Thumb Code     0  symbol_g15.obj ABSOLUTE
    gattc_get_operation                      0x0000f015   Thumb Code     0  symbol_g15.obj ABSOLUTE
    gattc_get_operation_ptr                  0x0000f031   Thumb Code     0  symbol_g15.obj ABSOLUTE
    gattc_init                               0x0000f041   Thumb Code     0  symbol_g15.obj ABSOLUTE
    gattc_is_db_out_of_sync                  0x0000f099   Thumb Code     0  symbol_g15.obj ABSOLUTE
    gattc_process_op                         0x0000f251   Thumb Code     0  symbol_g15.obj ABSOLUTE
    gattc_send_complete_evt                  0x0000f565   Thumb Code     0  symbol_g15.obj ABSOLUTE
    gattc_send_error_evt                     0x0000f5c5   Thumb Code     0  symbol_g15.obj ABSOLUTE
    gattc_set_mtu                            0x0000f649   Thumb Code     0  symbol_g15.obj ABSOLUTE
    gattc_set_operation_ptr                  0x0000f6b1   Thumb Code     0  symbol_g15.obj ABSOLUTE
    gattc_svc_att_info_req_ind_handler       0x0000f6c1   Thumb Code     0  symbol_g15.obj ABSOLUTE
    gattc_svc_chg_ind_send                   0x0000f70d   Thumb Code     0  symbol_g15.obj ABSOLUTE
    gattc_svc_read_req_ind_handler           0x0000f761   Thumb Code     0  symbol_g15.obj ABSOLUTE
    gattc_svc_write_req_ind_handler          0x0000f7fd   Thumb Code     0  symbol_g15.obj ABSOLUTE
    gattc_update_state                       0x0000f931   Thumb Code     0  symbol_g15.obj ABSOLUTE
    gattm_att_hdl_to_idx                     0x0000fb05   Thumb Code     0  symbol_g15.obj ABSOLUTE
    gattm_att_idx_to_hdl                     0x0000fb25   Thumb Code     0  symbol_g15.obj ABSOLUTE
    gattm_cleanup                            0x0000fb6d   Thumb Code     0  symbol_g15.obj ABSOLUTE
    gattm_create                             0x0000fb77   Thumb Code     0  symbol_g15.obj ABSOLUTE
    gattm_db_updated                         0x0000fb81   Thumb Code     0  symbol_g15.obj ABSOLUTE
    gattm_init                               0x0000fbc9   Thumb Code     0  symbol_g15.obj ABSOLUTE
    h4tl_init                                0x0000fee1   Thumb Code     0  symbol_g15.obj ABSOLUTE
    h4tl_read_start_next                     0x0000ff89   Thumb Code     0  symbol_g15.obj ABSOLUTE
    h4tl_write                               0x00010249   Thumb Code     0  symbol_g15.obj ABSOLUTE
    handle_all_data                          0x000102b5   Thumb Code     0  symbol_g15.obj ABSOLUTE
    hci_acl_data_handler                     0x000103d9   Thumb Code     0  symbol_g15.obj ABSOLUTE
    hci_acl_tx_data_alloc                    0x00010545   Thumb Code     0  symbol_g15.obj ABSOLUTE
    hci_acl_tx_data_received                 0x000105ad   Thumb Code     0  symbol_g15.obj ABSOLUTE
    hci_acl_tx_trigger                       0x00010605   Thumb Code     0  symbol_g15.obj ABSOLUTE
    hci_basic_cmd_cmp_evt_cfg_handler        0x00010665   Thumb Code     0  symbol_g15.obj ABSOLUTE
    hci_basic_cmd_cmp_evt_rl_cfg_handler     0x000106f1   Thumb Code     0  symbol_g15.obj ABSOLUTE
    hci_basic_cmd_send_2_controller          0x0001073d   Thumb Code     0  symbol_g15.obj ABSOLUTE
    hci_ble_conhdl_register                  0x00010755   Thumb Code     0  symbol_g15.obj ABSOLUTE
    hci_ble_conhdl_unregister                0x00010765   Thumb Code     0  symbol_g15.obj ABSOLUTE
    hci_cmd_get_max_param_size               0x00010775   Thumb Code     0  symbol_g15.obj ABSOLUTE
    hci_cmd_received                         0x00010789   Thumb Code     0  symbol_g15.obj ABSOLUTE
    hci_command_handler                      0x00010acd   Thumb Code     0  symbol_g15.obj ABSOLUTE
    hci_disconnect_cmd_handler               0x00010b59   Thumb Code     0  symbol_g15.obj ABSOLUTE
    hci_enc_chg_evt_handler                  0x00010bf1   Thumb Code     0  symbol_g15.obj ABSOLUTE
    hci_enc_key_refr_evt_handler             0x00010c13   Thumb Code     0  symbol_g15.obj ABSOLUTE
    hci_evt_mask_set                         0x00010c35   Thumb Code     0  symbol_g15.obj ABSOLUTE
    hci_fc_acl_buf_size_set                  0x00010c8d   Thumb Code     0  symbol_g15.obj ABSOLUTE
    hci_fc_acl_en                            0x00010ca1   Thumb Code     0  symbol_g15.obj ABSOLUTE
    hci_fc_acl_packet_sent                   0x00010cd5   Thumb Code     0  symbol_g15.obj ABSOLUTE
    hci_fc_check_host_available_nb_acl_packets 0x00010ce9   Thumb Code     0  symbol_g15.obj ABSOLUTE
    hci_fc_host_nb_acl_pkts_complete         0x00010d0d   Thumb Code     0  symbol_g15.obj ABSOLUTE
    hci_fc_init                              0x00010d25   Thumb Code     0  symbol_g15.obj ABSOLUTE
    hci_init                                 0x00010e25   Thumb Code     0  symbol_g15.obj ABSOLUTE
    hci_le_add_dev_to_per_adv_list_cmd_handler 0x00010e71   Thumb Code     0  symbol_g15.obj ABSOLUTE
    hci_le_adv_set_term_evt_handler          0x000111fd   Thumb Code     0  symbol_g15.obj ABSOLUTE
    hci_le_ch_sel_algo_evt_handler           0x00011281   Thumb Code     0  symbol_g15.obj ABSOLUTE
    hci_le_clear_adv_sets_cmd_handler        0x000112a5   Thumb Code     0  symbol_g15.obj ABSOLUTE
    hci_le_clear_per_adv_list_cmd_handler    0x00011319   Thumb Code     0  symbol_g15.obj ABSOLUTE
    hci_le_cmd_cmp_evt_addr_handler          0x00011445   Thumb Code     0  symbol_g15.obj ABSOLUTE
    hci_le_cmd_cmp_evt_adv_handler           0x00011465   Thumb Code     0  symbol_g15.obj ABSOLUTE
    hci_le_cmd_cmp_evt_list_handler          0x00011679   Thumb Code     0  symbol_g15.obj ABSOLUTE
    hci_le_con_cte_req_en_cmd_handler        0x000117c9   Thumb Code     0  symbol_g15.obj ABSOLUTE
    hci_le_con_cte_rsp_en_cmd_handler        0x00011909   Thumb Code     0  symbol_g15.obj ABSOLUTE
    hci_le_con_upd_cmd_handler               0x00011b09   Thumb Code     0  symbol_g15.obj ABSOLUTE
    hci_le_create_con_cancel_cmd_handler     0x00011e41   Thumb Code     0  symbol_g15.obj ABSOLUTE
    hci_le_create_con_cmd_handler            0x00011ea1   Thumb Code     0  symbol_g15.obj ABSOLUTE
    hci_le_enh_con_cmp_evt_handler           0x00012275   Thumb Code     0  symbol_g15.obj ABSOLUTE
    hci_le_ext_create_con_cmd_handler        0x0001246d   Thumb Code     0  symbol_g15.obj ABSOLUTE
    hci_le_ltk_req_neg_reply_cmd_handler     0x000129bd   Thumb Code     0  symbol_g15.obj ABSOLUTE
    hci_le_ltk_req_reply_cmd_handler         0x00012a59   Thumb Code     0  symbol_g15.obj ABSOLUTE
    hci_le_ltk_request_evt_handler           0x00012acd   Thumb Code     0  symbol_g15.obj ABSOLUTE
    hci_le_per_adv_create_sync_cancel_cmd_handler 0x00012bf1   Thumb Code     0  symbol_g15.obj ABSOLUTE
    hci_le_per_adv_create_sync_cmd_handler   0x00012cc5   Thumb Code     0  symbol_g15.obj ABSOLUTE
    hci_le_per_adv_set_info_transf_cmd_handler 0x00012d89   Thumb Code     0  symbol_g15.obj ABSOLUTE
    hci_le_per_adv_sync_transf_cmd_handler   0x00012e31   Thumb Code     0  symbol_g15.obj ABSOLUTE
    hci_le_per_adv_term_sync_cmd_handler     0x00012ec1   Thumb Code     0  symbol_g15.obj ABSOLUTE
    hci_le_rd_adv_ch_tx_pw_cmd_handler       0x00012fc1   Thumb Code     0  symbol_g15.obj ABSOLUTE
    hci_le_rd_adv_chnl_tx_pw_cmd_cmp_evt_handler 0x0001300d   Thumb Code     0  symbol_g15.obj ABSOLUTE
    hci_le_rd_chnl_map_cmd_handler           0x000130b5   Thumb Code     0  symbol_g15.obj ABSOLUTE
    hci_le_rd_max_adv_data_len_cmd_handler   0x000131dd   Thumb Code     0  symbol_g15.obj ABSOLUTE
    hci_le_rd_max_data_len_cmd_cmp_evt_handler 0x00013219   Thumb Code     0  symbol_g15.obj ABSOLUTE
    hci_le_rd_nb_supp_adv_sets_cmd_cmp_evt_handler 0x0001328d   Thumb Code     0  symbol_g15.obj ABSOLUTE
    hci_le_rd_nb_supp_adv_sets_cmd_handler   0x000132c9   Thumb Code     0  symbol_g15.obj ABSOLUTE
    hci_le_rd_per_adv_list_size_cmd_handler  0x00013371   Thumb Code     0  symbol_g15.obj ABSOLUTE
    hci_le_rd_phy_cmd_handler                0x00013401   Thumb Code     0  symbol_g15.obj ABSOLUTE
    hci_le_rd_ral_addr_cmd_cmp_evt_handler   0x00013459   Thumb Code     0  symbol_g15.obj ABSOLUTE
    hci_le_rd_ral_size_cmd_cmp_evt_handler   0x000134c5   Thumb Code     0  symbol_g15.obj ABSOLUTE
    hci_le_rd_rem_feats_cmd_handler          0x00013521   Thumb Code     0  symbol_g15.obj ABSOLUTE
    hci_le_rd_rf_path_comp_cmd_cmp_evt_handler 0x00013675   Thumb Code     0  symbol_g15.obj ABSOLUTE
    hci_le_rd_suggted_dft_data_len_cmd_cmp_evt_handler 0x00013715   Thumb Code     0  symbol_g15.obj ABSOLUTE
    hci_le_rd_tx_pwr_cmd_cmp_evt_handler     0x000137b5   Thumb Code     0  symbol_g15.obj ABSOLUTE
    hci_le_rd_wlst_size_cmd_cmp_evt_handler  0x0001386d   Thumb Code     0  symbol_g15.obj ABSOLUTE
    hci_le_read_max_adv_data_len_cmd_cmp_evt_handler 0x000138c9   Thumb Code     0  symbol_g15.obj ABSOLUTE
    hci_le_rem_con_param_req_neg_reply_cmd_handler 0x00013961   Thumb Code     0  symbol_g15.obj ABSOLUTE
    hci_le_rem_con_param_req_reply_cmd_handler 0x000139c5   Thumb Code     0  symbol_g15.obj ABSOLUTE
    hci_le_rmv_adv_set_cmd_handler           0x00013a59   Thumb Code     0  symbol_g15.obj ABSOLUTE
    hci_le_rmv_dev_from_per_adv_list_cmd_handler 0x00013ac1   Thumb Code     0  symbol_g15.obj ABSOLUTE
    hci_le_rx_test_v1_cmd_handler            0x00013c2d   Thumb Code     0  symbol_g15.obj ABSOLUTE
    hci_le_rx_test_v2_cmd_handler            0x00013c6f   Thumb Code     0  symbol_g15.obj ABSOLUTE
    hci_le_rx_test_v3_cmd_handler            0x00013cc1   Thumb Code     0  symbol_g15.obj ABSOLUTE
    hci_le_scan_req_rcvd_evt_handler         0x00013d65   Thumb Code     0  symbol_g15.obj ABSOLUTE
    hci_le_set_adv_data_cmd_handler          0x00013df5   Thumb Code     0  symbol_g15.obj ABSOLUTE
    hci_le_set_adv_en_cmd_handler            0x00013ead   Thumb Code     0  symbol_g15.obj ABSOLUTE
    hci_le_set_adv_param_cmd_handler         0x000140f9   Thumb Code     0  symbol_g15.obj ABSOLUTE
    hci_le_set_adv_set_rand_addr_cmd_handler 0x00014269   Thumb Code     0  symbol_g15.obj ABSOLUTE
    hci_le_set_con_cte_rx_param_cmd_handler  0x000142d5   Thumb Code     0  symbol_g15.obj ABSOLUTE
    hci_le_set_con_cte_tx_param_cmd_handler  0x000143f1   Thumb Code     0  symbol_g15.obj ABSOLUTE
    hci_le_set_conless_cte_tx_en_cmd_handler 0x000144e5   Thumb Code     0  symbol_g15.obj ABSOLUTE
    hci_le_set_conless_cte_tx_param_cmd_handler 0x000145b9   Thumb Code     0  symbol_g15.obj ABSOLUTE
    hci_le_set_conless_iq_sampl_en_cmd_handler 0x0001466d   Thumb Code     0  symbol_g15.obj ABSOLUTE
    hci_le_set_data_len_cmd_handler          0x00014779   Thumb Code     0  symbol_g15.obj ABSOLUTE
    hci_le_set_ext_adv_data_cmd_handler      0x00014969   Thumb Code     0  symbol_g15.obj ABSOLUTE
    hci_le_set_ext_adv_en_cmd_handler        0x00014af5   Thumb Code     0  symbol_g15.obj ABSOLUTE
    hci_le_set_ext_adv_param_cmd_handler     0x000150e5   Thumb Code     0  symbol_g15.obj ABSOLUTE
    hci_le_set_ext_scan_en_cmd_handler       0x000152d1   Thumb Code     0  symbol_g15.obj ABSOLUTE
    hci_le_set_ext_scan_param_cmd_handler    0x0001551d   Thumb Code     0  symbol_g15.obj ABSOLUTE
    hci_le_set_ext_scan_rsp_data_cmd_handler 0x00015725   Thumb Code     0  symbol_g15.obj ABSOLUTE
    hci_le_set_per_adv_data_cmd_handler      0x000158cd   Thumb Code     0  symbol_g15.obj ABSOLUTE
    hci_le_set_per_adv_en_cmd_handler        0x000159f9   Thumb Code     0  symbol_g15.obj ABSOLUTE
    hci_le_set_per_adv_param_cmd_handler     0x00015c25   Thumb Code     0  symbol_g15.obj ABSOLUTE
    hci_le_set_per_adv_rec_en_cmd_handler    0x00015d05   Thumb Code     0  symbol_g15.obj ABSOLUTE
    hci_le_set_per_adv_sync_transf_param_cmd_handler 0x00015d5d   Thumb Code     0  symbol_g15.obj ABSOLUTE
    hci_le_set_phy_cmd_handler               0x00015dd5   Thumb Code     0  symbol_g15.obj ABSOLUTE
    hci_le_set_scan_en_cmd_handler           0x00016039   Thumb Code     0  symbol_g15.obj ABSOLUTE
    hci_le_set_scan_param_cmd_handler        0x000161f1   Thumb Code     0  symbol_g15.obj ABSOLUTE
    hci_le_set_scan_rsp_data_cmd_handler     0x00016311   Thumb Code     0  symbol_g15.obj ABSOLUTE
    hci_le_start_enc_cmd_handler             0x000163c9   Thumb Code     0  symbol_g15.obj ABSOLUTE
    hci_le_test_end_cmd_handler              0x0001649d   Thumb Code     0  symbol_g15.obj ABSOLUTE
    hci_le_tx_test_v1_cmd_handler            0x000164c9   Thumb Code     0  symbol_g15.obj ABSOLUTE
    hci_le_tx_test_v2_cmd_handler            0x00016519   Thumb Code     0  symbol_g15.obj ABSOLUTE
    hci_le_tx_test_v3_cmd_handler            0x00016575   Thumb Code     0  symbol_g15.obj ABSOLUTE
    hci_look_for_cmd_desc                    0x000166a9   Thumb Code     0  symbol_g15.obj ABSOLUTE
    hci_look_for_evt_desc                    0x00016705   Thumb Code     0  symbol_g15.obj ABSOLUTE
    hci_look_for_le_evt_desc                 0x0001672d   Thumb Code     0  symbol_g15.obj ABSOLUTE
    hci_past_cmd_cmp_evt_handler             0x000167ef   Thumb Code     0  symbol_g15.obj ABSOLUTE
    hci_rd_auth_payl_to_cmd_handler          0x0001687d   Thumb Code     0  symbol_g15.obj ABSOLUTE
    hci_rd_local_ver_info_cmd_cmp_evt_handler 0x000169d9   Thumb Code     0  symbol_g15.obj ABSOLUTE
    hci_rd_rem_ver_info_cmd_handler          0x00016a79   Thumb Code     0  symbol_g15.obj ABSOLUTE
    hci_rd_rssi_cmd_handler                  0x00016be1   Thumb Code     0  symbol_g15.obj ABSOLUTE
    hci_rd_tx_pwr_lvl_cmd_handler            0x00016c55   Thumb Code     0  symbol_g15.obj ABSOLUTE
    hci_send_2_controller                    0x00016cf9   Thumb Code     0  symbol_g15.obj ABSOLUTE
    hci_send_2_host                          0x00016d79   Thumb Code     0  symbol_g15.obj ABSOLUTE
    hci_test_end_cmd_cmp_evt_handler         0x00016f25   Thumb Code     0  symbol_g15.obj ABSOLUTE
    hci_tl_init                              0x00016f75   Thumb Code     0  symbol_g15.obj ABSOLUTE
    hci_tl_send                              0x00016fcd   Thumb Code     0  symbol_g15.obj ABSOLUTE
    hci_vs_set_max_rx_size_and_time_cmd_handler 0x000173d9   Thumb Code     0  symbol_g15.obj ABSOLUTE
    hci_vs_set_pref_slave_evt_dur_cmd_handler 0x000174fd   Thumb Code     0  symbol_g15.obj ABSOLUTE
    hci_vs_set_pref_slave_latency_cmd_handler 0x00017591   Thumb Code     0  symbol_g15.obj ABSOLUTE
    hci_wr_auth_payl_to_cmd_handler          0x00017611   Thumb Code     0  symbol_g15.obj ABSOLUTE
    initdata_config                          0x00017671   Thumb Code     0  symbol_g15.obj ABSOLUTE
    interface_check                          0x0001772d   Thumb Code     0  symbol_g15.obj ABSOLUTE
    interface_reinit                         0x000177c5   Thumb Code     0  symbol_g15.obj ABSOLUTE
    ke_event_callback_set                    0x00017805   Thumb Code     0  symbol_g15.obj ABSOLUTE
    ke_event_clear                           0x0001781d   Thumb Code     0  symbol_g15.obj ABSOLUTE
    ke_event_get_all                         0x00017845   Thumb Code     0  symbol_g15.obj ABSOLUTE
    ke_event_init                            0x00017851   Thumb Code     0  symbol_g15.obj ABSOLUTE
    ke_event_schedule                        0x00017871   Thumb Code     0  symbol_g15.obj ABSOLUTE
    ke_event_set                             0x000178ad   Thumb Code     0  symbol_g15.obj ABSOLUTE
    ke_flush                                 0x000178d5   Thumb Code     0  symbol_g15.obj ABSOLUTE
    ke_free                                  0x00017919   Thumb Code     0  symbol_g15.obj ABSOLUTE
    ke_init                                  0x000179e5   Thumb Code     0  symbol_g15.obj ABSOLUTE
    ke_is_free                               0x00017a15   Thumb Code     0  symbol_g15.obj ABSOLUTE
    ke_malloc                                0x00017a2d   Thumb Code     0  symbol_g15.obj ABSOLUTE
    ke_mem_init                              0x00017afd   Thumb Code     0  symbol_g15.obj ABSOLUTE
    ke_msg_alloc                             0x00017b39   Thumb Code     0  symbol_g15.obj ABSOLUTE
    ke_msg_discard                           0x00017b6b   Thumb Code     0  symbol_g15.obj ABSOLUTE
    ke_msg_forward                           0x00017b71   Thumb Code     0  symbol_g15.obj ABSOLUTE
    ke_msg_free                              0x00017b9d   Thumb Code     0  symbol_g15.obj ABSOLUTE
    ke_msg_in_queue                          0x00017ba5   Thumb Code     0  symbol_g15.obj ABSOLUTE
    ke_msg_send                              0x00017bb1   Thumb Code     0  symbol_g15.obj ABSOLUTE
    ke_msg_send_basic                        0x00017bd9   Thumb Code     0  symbol_g15.obj ABSOLUTE
    ke_msg_src_id_get                        0x00017c25   Thumb Code     0  symbol_g15.obj ABSOLUTE
    ke_queue_extract                         0x00017c2b   Thumb Code     0  symbol_g15.obj ABSOLUTE
    ke_queue_insert                          0x00017c6d   Thumb Code     0  symbol_g15.obj ABSOLUTE
    ke_sleep_check                           0x00017ca1   Thumb Code     0  symbol_g15.obj ABSOLUTE
    ke_state_get                             0x00017cb5   Thumb Code     0  symbol_g15.obj ABSOLUTE
    ke_state_set                             0x00017cd9   Thumb Code     0  symbol_g15.obj ABSOLUTE
    ke_task_check                            0x00017d41   Thumb Code     0  symbol_g15.obj ABSOLUTE
    ke_task_create                           0x00017d61   Thumb Code     0  symbol_g15.obj ABSOLUTE
    ke_task_delete                           0x00017d95   Thumb Code     0  symbol_g15.obj ABSOLUTE
    ke_task_init                             0x00017dc1   Thumb Code     0  symbol_g15.obj ABSOLUTE
    ke_task_msg_flush                        0x00017ddd   Thumb Code     0  symbol_g15.obj ABSOLUTE
    ke_timer_active                          0x00017f51   Thumb Code     0  symbol_g15.obj ABSOLUTE
    ke_timer_clear                           0x00017f7d   Thumb Code     0  symbol_g15.obj ABSOLUTE
    ke_timer_init                            0x00017ff5   Thumb Code     0  symbol_g15.obj ABSOLUTE
    ke_timer_set                             0x000180bd   Thumb Code     0  symbol_g15.obj ABSOLUTE
    l2cc_cleanup                             0x000182b5   Thumb Code     0  symbol_g15.obj ABSOLUTE
    l2cc_cmp_evt_handler                     0x0001844f   Thumb Code     0  symbol_g15.obj ABSOLUTE
    l2cc_create                              0x0001847d   Thumb Code     0  symbol_g15.obj ABSOLUTE
    l2cc_data_send                           0x000184c5   Thumb Code     0  symbol_g15.obj ABSOLUTE
    l2cc_init                                0x000186a9   Thumb Code     0  symbol_g15.obj ABSOLUTE
    l2cc_pdu_alloc                           0x00018741   Thumb Code     0  symbol_g15.obj ABSOLUTE
    l2cc_pdu_header_check                    0x0001876d   Thumb Code     0  symbol_g15.obj ABSOLUTE
    l2cc_pdu_pack                            0x000188c5   Thumb Code     0  symbol_g15.obj ABSOLUTE
    l2cc_pdu_rx_init                         0x00018c41   Thumb Code     0  symbol_g15.obj ABSOLUTE
    l2cc_pdu_send                            0x00018cbd   Thumb Code     0  symbol_g15.obj ABSOLUTE
    l2cc_pdu_unpack                          0x00018d25   Thumb Code     0  symbol_g15.obj ABSOLUTE
    l2cc_send_cmp_evt                        0x00018f55   Thumb Code     0  symbol_g15.obj ABSOLUTE
    l2cc_sig_pdu_recv_handler                0x00018f81   Thumb Code     0  symbol_g15.obj ABSOLUTE
    l2cc_sig_send_cmd_reject                 0x00018fc9   Thumb Code     0  symbol_g15.obj ABSOLUTE
    l2cm_cleanup                             0x00019021   Thumb Code     0  symbol_g15.obj ABSOLUTE
    l2cm_create                              0x0001903d   Thumb Code     0  symbol_g15.obj ABSOLUTE
    l2cm_get_nb_buffer_available             0x00019045   Thumb Code     0  symbol_g15.obj ABSOLUTE
    l2cm_init                                0x00019051   Thumb Code     0  symbol_g15.obj ABSOLUTE
    l2cm_set_link_layer_buff_size            0x000190d9   Thumb Code     0  symbol_g15.obj ABSOLUTE
    l2cm_tx_status                           0x000190e9   Thumb Code     0  symbol_g15.obj ABSOLUTE
    ll_channel_map_ind_handler               0x00019119   Thumb Code     0  symbol_g15.obj ABSOLUTE
    ll_clk_acc_req_handler                   0x000191b5   Thumb Code     0  symbol_g15.obj ABSOLUTE
    ll_clk_acc_rsp_handler                   0x00019209   Thumb Code     0  symbol_g15.obj ABSOLUTE
    ll_connection_param_req_handler          0x00019245   Thumb Code     0  symbol_g15.obj ABSOLUTE
    ll_connection_param_rsp_handler          0x0001931d   Thumb Code     0  symbol_g15.obj ABSOLUTE
    ll_connection_update_ind_handler         0x000193b5   Thumb Code     0  symbol_g15.obj ABSOLUTE
    ll_cte_req_handler                       0x000194d1   Thumb Code     0  symbol_g15.obj ABSOLUTE
    ll_cte_rsp_handler                       0x00019545   Thumb Code     0  symbol_g15.obj ABSOLUTE
    ll_enc_req_handler                       0x00019565   Thumb Code     0  symbol_g15.obj ABSOLUTE
    ll_enc_rsp_handler                       0x0001962d   Thumb Code     0  symbol_g15.obj ABSOLUTE
    ll_feature_req_handler                   0x000196a5   Thumb Code     0  symbol_g15.obj ABSOLUTE
    ll_feature_rsp_handler                   0x0001972d   Thumb Code     0  symbol_g15.obj ABSOLUTE
    ll_length_req_handler                    0x00019781   Thumb Code     0  symbol_g15.obj ABSOLUTE
    ll_length_rsp_handler                    0x000198d5   Thumb Code     0  symbol_g15.obj ABSOLUTE
    ll_min_used_channels_ind_handler         0x00019951   Thumb Code     0  symbol_g15.obj ABSOLUTE
    ll_pause_enc_req_handler                 0x000199d1   Thumb Code     0  symbol_g15.obj ABSOLUTE
    ll_pause_enc_rsp_handler                 0x00019a3d   Thumb Code     0  symbol_g15.obj ABSOLUTE
    ll_per_sync_ind_handler                  0x00019a95   Thumb Code     0  symbol_g15.obj ABSOLUTE
    ll_phy_req_handler                       0x00019bf5   Thumb Code     0  symbol_g15.obj ABSOLUTE
    ll_phy_rsp_handler                       0x00019ca5   Thumb Code     0  symbol_g15.obj ABSOLUTE
    ll_phy_update_ind_handler                0x00019d21   Thumb Code     0  symbol_g15.obj ABSOLUTE
    ll_ping_req_handler                      0x00019db5   Thumb Code     0  symbol_g15.obj ABSOLUTE
    ll_ping_rsp_handler                      0x00019dc9   Thumb Code     0  symbol_g15.obj ABSOLUTE
    ll_slave_feature_req_handler             0x00019e25   Thumb Code     0  symbol_g15.obj ABSOLUTE
    ll_start_enc_req_handler                 0x00019ead   Thumb Code     0  symbol_g15.obj ABSOLUTE
    ll_start_enc_rsp_handler                 0x00019efd   Thumb Code     0  symbol_g15.obj ABSOLUTE
    ll_terminate_ind_handler                 0x00019f4d   Thumb Code     0  symbol_g15.obj ABSOLUTE
    ll_version_ind_handler                   0x00019fb1   Thumb Code     0  symbol_g15.obj ABSOLUTE
    llc_auth_payl_nearly_to_handler          0x0001a051   Thumb Code     0  symbol_g15.obj ABSOLUTE
    llc_auth_payl_real_to_handler            0x0001a0b1   Thumb Code     0  symbol_g15.obj ABSOLUTE
    llc_cleanup                              0x0001a141   Thumb Code     0  symbol_g15.obj ABSOLUTE
    llc_clk_acc_modify                       0x0001a1a5   Thumb Code     0  symbol_g15.obj ABSOLUTE
    llc_cmd_cmp_send                         0x0001a275   Thumb Code     0  symbol_g15.obj ABSOLUTE
    llc_cmd_stat_send                        0x0001a295   Thumb Code     0  symbol_g15.obj ABSOLUTE
    llc_con_move_cbk                         0x0001a2b1   Thumb Code     0  symbol_g15.obj ABSOLUTE
    llc_cte_req_dis                          0x0001a45d   Thumb Code     0  symbol_g15.obj ABSOLUTE
    llc_cte_req_to_handler                   0x0001a47d   Thumb Code     0  symbol_g15.obj ABSOLUTE
    llc_cte_rsp_dis                          0x0001a50d   Thumb Code     0  symbol_g15.obj ABSOLUTE
    llc_disconnect                           0x0001a521   Thumb Code     0  symbol_g15.obj ABSOLUTE
    llc_encrypt_ind_handler                  0x0001a729   Thumb Code     0  symbol_g15.obj ABSOLUTE
    llc_init                                 0x0001a9c1   Thumb Code     0  symbol_g15.obj ABSOLUTE
    llc_init_term_proc                       0x0001aa65   Thumb Code     0  symbol_g15.obj ABSOLUTE
    llc_le_ping_restart                      0x0001ab19   Thumb Code     0  symbol_g15.obj ABSOLUTE
    llc_le_ping_set                          0x0001ab55   Thumb Code     0  symbol_g15.obj ABSOLUTE
    llc_ll_reject_ind_pdu_send               0x0001abe1   Thumb Code     0  symbol_g15.obj ABSOLUTE
    llc_llcp_send                            0x0001ac6d   Thumb Code     0  symbol_g15.obj ABSOLUTE
    llc_llcp_state_set                       0x0001ace9   Thumb Code     0  symbol_g15.obj ABSOLUTE
    llc_llcp_tx_check                        0x0001ada5   Thumb Code     0  symbol_g15.obj ABSOLUTE
    llc_op_ch_map_upd_ind_handler            0x0001bd71   Thumb Code     0  symbol_g15.obj ABSOLUTE
    llc_op_clk_acc_ind_handler               0x0001bdd5   Thumb Code     0  symbol_g15.obj ABSOLUTE
    llc_op_con_upd_ind_handler               0x0001be2d   Thumb Code     0  symbol_g15.obj ABSOLUTE
    llc_op_cte_ind_handler                   0x0001bebd   Thumb Code     0  symbol_g15.obj ABSOLUTE
    llc_op_disconnect_ind_handler            0x0001bf15   Thumb Code     0  symbol_g15.obj ABSOLUTE
    llc_op_dl_upd_ind_handler                0x0001bf81   Thumb Code     0  symbol_g15.obj ABSOLUTE
    llc_op_encrypt_ind_handler               0x0001c015   Thumb Code     0  symbol_g15.obj ABSOLUTE
    llc_op_feats_exch_ind_handler            0x0001c07d   Thumb Code     0  symbol_g15.obj ABSOLUTE
    llc_op_le_ping_ind_handler               0x0001c115   Thumb Code     0  symbol_g15.obj ABSOLUTE
    llc_op_past_ind_handler                  0x0001c171   Thumb Code     0  symbol_g15.obj ABSOLUTE
    llc_op_phy_upd_ind_handler               0x0001c401   Thumb Code     0  symbol_g15.obj ABSOLUTE
    llc_op_ver_exch_ind_handler              0x0001c4a5   Thumb Code     0  symbol_g15.obj ABSOLUTE
    llc_proc_collision_check                 0x0001c91d   Thumb Code     0  symbol_g15.obj ABSOLUTE
    llc_proc_err_ind                         0x0001c955   Thumb Code     0  symbol_g15.obj ABSOLUTE
    llc_proc_get                             0x0001c985   Thumb Code     0  symbol_g15.obj ABSOLUTE
    llc_proc_id_get                          0x0001c99d   Thumb Code     0  symbol_g15.obj ABSOLUTE
    llc_proc_reg                             0x0001c9b9   Thumb Code     0  symbol_g15.obj ABSOLUTE
    llc_proc_state_get                       0x0001c9ed   Thumb Code     0  symbol_g15.obj ABSOLUTE
    llc_proc_state_set                       0x0001c9f1   Thumb Code     0  symbol_g15.obj ABSOLUTE
    llc_proc_timer_pause_set                 0x0001c9f5   Thumb Code     0  symbol_g15.obj ABSOLUTE
    llc_proc_timer_set                       0x0001ca4d   Thumb Code     0  symbol_g15.obj ABSOLUTE
    llc_proc_unreg                           0x0001caa5   Thumb Code     0  symbol_g15.obj ABSOLUTE
    llc_start                                0x0001d309   Thumb Code     0  symbol_g15.obj ABSOLUTE
    llc_stop                                 0x0001d4fd   Thumb Code     0  symbol_g15.obj ABSOLUTE
    llc_stopped_ind_handler                  0x0001d531   Thumb Code     0  symbol_g15.obj ABSOLUTE
    lld_aa_gen                               0x0001d649   Thumb Code     0  symbol_g15.obj ABSOLUTE
    lld_acl_rx_ind_handler                   0x0001d6c9   Thumb Code     0  symbol_g15.obj ABSOLUTE
    lld_acl_tx_cfm_handler                   0x0001d755   Thumb Code     0  symbol_g15.obj ABSOLUTE
    lld_adv_adv_data_update                  0x0001d855   Thumb Code     0  symbol_g15.obj ABSOLUTE
    lld_adv_duration_update                  0x0001da55   Thumb Code     0  symbol_g15.obj ABSOLUTE
    lld_adv_end_ind_handler                  0x0001db35   Thumb Code     0  symbol_g15.obj ABSOLUTE
    lld_adv_evt_start_cbk                    0x0001dfd9   Thumb Code     0  symbol_g15.obj ABSOLUTE
    lld_adv_init                             0x0001efc9   Thumb Code     0  symbol_g15.obj ABSOLUTE
    lld_adv_rand_addr_update                 0x0001f33d   Thumb Code     0  symbol_g15.obj ABSOLUTE
    lld_adv_rep_ind_handler                  0x0001f391   Thumb Code     0  symbol_g15.obj ABSOLUTE
    lld_adv_restart                          0x0001f891   Thumb Code     0  symbol_g15.obj ABSOLUTE
    lld_adv_scan_rsp_data_update             0x0001fa11   Thumb Code     0  symbol_g15.obj ABSOLUTE
    lld_adv_start                            0x0001fa49   Thumb Code     0  symbol_g15.obj ABSOLUTE
    lld_adv_stop                             0x00020101   Thumb Code     0  symbol_g15.obj ABSOLUTE
    lld_adv_sync_info_update                 0x00020309   Thumb Code     0  symbol_g15.obj ABSOLUTE
    lld_calc_aux_rx                          0x00020339   Thumb Code     0  symbol_g15.obj ABSOLUTE
    lld_ch_assess_data_get                   0x00020465   Thumb Code     0  symbol_g15.obj ABSOLUTE
    lld_ch_idx_get                           0x0002046d   Thumb Code     0  symbol_g15.obj ABSOLUTE
    lld_ch_map_set                           0x00020491   Thumb Code     0  symbol_g15.obj ABSOLUTE
    lld_ch_map_upd_cfm_handler               0x000204dd   Thumb Code     0  symbol_g15.obj ABSOLUTE
    lld_channel_assess                       0x00020515   Thumb Code     0  symbol_g15.obj ABSOLUTE
    lld_con_activity_offset_compute          0x0002054d   Thumb Code     0  symbol_g15.obj ABSOLUTE
    lld_con_ch_map_update                    0x000205c5   Thumb Code     0  symbol_g15.obj ABSOLUTE
    lld_con_cte_rx_dis                       0x000206ed   Thumb Code     0  symbol_g15.obj ABSOLUTE
    lld_con_cte_rx_en                        0x00020721   Thumb Code     0  symbol_g15.obj ABSOLUTE
    lld_con_cte_rx_ind_handler               0x000207e9   Thumb Code     0  symbol_g15.obj ABSOLUTE
    lld_con_cte_tx_ant_switch_config         0x00020945   Thumb Code     0  symbol_g15.obj ABSOLUTE
    lld_con_cte_tx_param_set                 0x000209e1   Thumb Code     0  symbol_g15.obj ABSOLUTE
    lld_con_current_tx_power_get             0x000209f9   Thumb Code     0  symbol_g15.obj ABSOLUTE
    lld_con_data_flow_set                    0x00020a39   Thumb Code     0  symbol_g15.obj ABSOLUTE
    lld_con_data_len_update                  0x00020aed   Thumb Code     0  symbol_g15.obj ABSOLUTE
    lld_con_data_tx                          0x00020b2d   Thumb Code     0  symbol_g15.obj ABSOLUTE
    lld_con_enc_key_load                     0x00020bdd   Thumb Code     0  symbol_g15.obj ABSOLUTE
    lld_con_estab_ind_handler                0x00020c51   Thumb Code     0  symbol_g15.obj ABSOLUTE
    lld_con_event_counter_get                0x00020c79   Thumb Code     0  symbol_g15.obj ABSOLUTE
    lld_con_init                             0x000211d9   Thumb Code     0  symbol_g15.obj ABSOLUTE
    lld_con_llcp_tx                          0x00021219   Thumb Code     0  symbol_g15.obj ABSOLUTE
    lld_con_offset_get                       0x00021325   Thumb Code     0  symbol_g15.obj ABSOLUTE
    lld_con_offset_upd_ind_handler           0x00021359   Thumb Code     0  symbol_g15.obj ABSOLUTE
    lld_con_param_upd_cfm_handler            0x00021395   Thumb Code     0  symbol_g15.obj ABSOLUTE
    lld_con_param_update                     0x00021405   Thumb Code     0  symbol_g15.obj ABSOLUTE
    lld_con_peer_sca_set                     0x00021479   Thumb Code     0  symbol_g15.obj ABSOLUTE
    lld_con_phys_update                      0x000214a1   Thumb Code     0  symbol_g15.obj ABSOLUTE
    lld_con_pref_slave_evt_dur_set           0x00021501   Thumb Code     0  symbol_g15.obj ABSOLUTE
    lld_con_pref_slave_latency_set           0x0002153d   Thumb Code     0  symbol_g15.obj ABSOLUTE
    lld_con_rssi_get                         0x00021565   Thumb Code     0  symbol_g15.obj ABSOLUTE
    lld_con_rx_enc                           0x00021a4d   Thumb Code     0  symbol_g15.obj ABSOLUTE
    lld_con_start                            0x00021dd5   Thumb Code     0  symbol_g15.obj ABSOLUTE
    lld_con_stop                             0x0002216d   Thumb Code     0  symbol_g15.obj ABSOLUTE
    lld_con_sync_info_get                    0x000221c1   Thumb Code     0  symbol_g15.obj ABSOLUTE
    lld_con_time_get                         0x00022215   Thumb Code     0  symbol_g15.obj ABSOLUTE
    lld_con_tx_enc                           0x0002224d   Thumb Code     0  symbol_g15.obj ABSOLUTE
    lld_con_tx_len_update_for_intv           0x000222ed   Thumb Code     0  symbol_g15.obj ABSOLUTE
    lld_con_tx_len_update_for_rate           0x00022329   Thumb Code     0  symbol_g15.obj ABSOLUTE
    lld_conless_cte_rx_ind_handler           0x000225e1   Thumb Code     0  symbol_g15.obj ABSOLUTE
    lld_disc_ind_handler                     0x000229dd   Thumb Code     0  symbol_g15.obj ABSOLUTE
    lld_init                                 0x00022a21   Thumb Code     0  symbol_g15.obj ABSOLUTE
    lld_init_connect_req_pack                0x00022b01   Thumb Code     0  symbol_g15.obj ABSOLUTE
    lld_init_end_ind_handler                 0x00022c19   Thumb Code     0  symbol_g15.obj ABSOLUTE
    lld_init_init                            0x00023205   Thumb Code     0  symbol_g15.obj ABSOLUTE
    lld_init_start                           0x00023921   Thumb Code     0  symbol_g15.obj ABSOLUTE
    lld_init_stop                            0x00023f95   Thumb Code     0  symbol_g15.obj ABSOLUTE
    lld_llcp_rx_ind_handler                  0x00024045   Thumb Code     0  symbol_g15.obj ABSOLUTE
    lld_llcp_tx_cfm_handler                  0x0002419d   Thumb Code     0  symbol_g15.obj ABSOLUTE
    lld_local_sca_get                        0x000241e1   Thumb Code     0  symbol_g15.obj ABSOLUTE
    lld_per_adv_ch_map_update                0x000242ad   Thumb Code     0  symbol_g15.obj ABSOLUTE
    lld_per_adv_cte_start                    0x00024569   Thumb Code     0  symbol_g15.obj ABSOLUTE
    lld_per_adv_cte_stop                     0x000245b5   Thumb Code     0  symbol_g15.obj ABSOLUTE
    lld_per_adv_data_update                  0x00024601   Thumb Code     0  symbol_g15.obj ABSOLUTE
    lld_per_adv_end_ind_handler              0x00024679   Thumb Code     0  symbol_g15.obj ABSOLUTE
    lld_per_adv_info_get                     0x00024e89   Thumb Code     0  symbol_g15.obj ABSOLUTE
    lld_per_adv_init                         0x00024f19   Thumb Code     0  symbol_g15.obj ABSOLUTE
    lld_per_adv_init_info_get                0x00024f51   Thumb Code     0  symbol_g15.obj ABSOLUTE
    lld_per_adv_list_add                     0x00024fa5   Thumb Code     0  symbol_g15.obj ABSOLUTE
    lld_per_adv_list_rem                     0x00025041   Thumb Code     0  symbol_g15.obj ABSOLUTE
    lld_per_adv_rep_ind_handler              0x000250b9   Thumb Code     0  symbol_g15.obj ABSOLUTE
    lld_per_adv_rx_end_ind_handler           0x00025429   Thumb Code     0  symbol_g15.obj ABSOLUTE
    lld_per_adv_start                        0x00025655   Thumb Code     0  symbol_g15.obj ABSOLUTE
    lld_per_adv_stop                         0x000258a5   Thumb Code     0  symbol_g15.obj ABSOLUTE
    lld_per_adv_sync_info_get                0x00025935   Thumb Code     0  symbol_g15.obj ABSOLUTE
    lld_phy_upd_cfm_handler                  0x00025989   Thumb Code     0  symbol_g15.obj ABSOLUTE
    lld_ral_search                           0x000259c1   Thumb Code     0  symbol_g15.obj ABSOLUTE
    lld_read_clock                           0x00025a1d   Thumb Code     0  symbol_g15.obj ABSOLUTE
    lld_res_list_add                         0x00025a2d   Thumb Code     0  symbol_g15.obj ABSOLUTE
    lld_res_list_clear                       0x00025ae1   Thumb Code     0  symbol_g15.obj ABSOLUTE
    lld_res_list_local_rpa_get               0x00025b01   Thumb Code     0  symbol_g15.obj ABSOLUTE
    lld_res_list_peer_rpa_get                0x00025b35   Thumb Code     0  symbol_g15.obj ABSOLUTE
    lld_res_list_peer_update                 0x00025b6d   Thumb Code     0  symbol_g15.obj ABSOLUTE
    lld_res_list_priv_mode_update            0x00025b89   Thumb Code     0  symbol_g15.obj ABSOLUTE
    lld_res_list_rem                         0x00025bad   Thumb Code     0  symbol_g15.obj ABSOLUTE
    lld_rpa_renew                            0x00025bc5   Thumb Code     0  symbol_g15.obj ABSOLUTE
    lld_rxdesc_check                         0x00025d1d   Thumb Code     0  symbol_g15.obj ABSOLUTE
    lld_rxdesc_free                          0x00025d49   Thumb Code     0  symbol_g15.obj ABSOLUTE
    lld_scan_create_sync                     0x00026071   Thumb Code     0  symbol_g15.obj ABSOLUTE
    lld_scan_create_sync_cancel              0x000260b9   Thumb Code     0  symbol_g15.obj ABSOLUTE
    lld_scan_end_ind_handler                 0x000261e9   Thumb Code     0  symbol_g15.obj ABSOLUTE
    lld_scan_init                            0x000266c5   Thumb Code     0  symbol_g15.obj ABSOLUTE
    lld_scan_params_update                   0x00026715   Thumb Code     0  symbol_g15.obj ABSOLUTE
    lld_scan_req_ind_handler                 0x000272c1   Thumb Code     0  symbol_g15.obj ABSOLUTE
    lld_scan_restart                         0x0002730d   Thumb Code     0  symbol_g15.obj ABSOLUTE
    lld_scan_start                           0x00027371   Thumb Code     0  symbol_g15.obj ABSOLUTE
    lld_scan_stop                            0x00027831   Thumb Code     0  symbol_g15.obj ABSOLUTE
    lld_sync_ch_map_update                   0x000279c5   Thumb Code     0  symbol_g15.obj ABSOLUTE
    lld_sync_cte_start                       0x00027a39   Thumb Code     0  symbol_g15.obj ABSOLUTE
    lld_sync_cte_stop                        0x00027a81   Thumb Code     0  symbol_g15.obj ABSOLUTE
    lld_sync_info_get                        0x00027ca5   Thumb Code     0  symbol_g15.obj ABSOLUTE
    lld_sync_init                            0x00027d31   Thumb Code     0  symbol_g15.obj ABSOLUTE
    lld_sync_start                           0x00028545   Thumb Code     0  symbol_g15.obj ABSOLUTE
    lld_sync_start_req_handler               0x00028701   Thumb Code     0  symbol_g15.obj ABSOLUTE
    lld_sync_stop                            0x000287e5   Thumb Code     0  symbol_g15.obj ABSOLUTE
    lld_test_end_ind_handler                 0x00028859   Thumb Code     0  symbol_g15.obj ABSOLUTE
    lld_test_init                            0x00028af9   Thumb Code     0  symbol_g15.obj ABSOLUTE
    lld_test_start                           0x00028b25   Thumb Code     0  symbol_g15.obj ABSOLUTE
    lld_test_stop                            0x00028fa1   Thumb Code     0  symbol_g15.obj ABSOLUTE
    lld_white_list_add                       0x00029059   Thumb Code     0  symbol_g15.obj ABSOLUTE
    lld_white_list_rem                       0x000290e1   Thumb Code     0  symbol_g15.obj ABSOLUTE
    llhwc_phy_initialization                 0x00029145   Thumb Code     0  symbol_g15.obj ABSOLUTE
    llhwc_phy_prerx                          0x00029315   Thumb Code     0  symbol_g15.obj ABSOLUTE
    llm_activity_free_get                    0x00029401   Thumb Code     0  symbol_g15.obj ABSOLUTE
    llm_adv_act_id_get                       0x00029459   Thumb Code     0  symbol_g15.obj ABSOLUTE
    llm_adv_hdl_to_id                        0x000294b5   Thumb Code     0  symbol_g15.obj ABSOLUTE
    llm_adv_set_id_get                       0x00029599   Thumb Code     0  symbol_g15.obj ABSOLUTE
    llm_ch_map_update                        0x00029705   Thumb Code     0  symbol_g15.obj ABSOLUTE
    llm_ch_map_update_ind_handler            0x00029845   Thumb Code     0  symbol_g15.obj ABSOLUTE
    llm_clk_acc_set                          0x000298b1   Thumb Code     0  symbol_g15.obj ABSOLUTE
    llm_cmd_cmp_send                         0x000298e1   Thumb Code     0  symbol_g15.obj ABSOLUTE
    llm_cmd_stat_send                        0x000298fd   Thumb Code     0  symbol_g15.obj ABSOLUTE
    llm_dev_list_empty_entry                 0x00029919   Thumb Code     0  symbol_g15.obj ABSOLUTE
    llm_dev_list_search                      0x0002993d   Thumb Code     0  symbol_g15.obj ABSOLUTE
    llm_hci_command_handler                  0x000299e9   Thumb Code     0  symbol_g15.obj ABSOLUTE
    llm_init                                 0x00029a1d   Thumb Code     0  symbol_g15.obj ABSOLUTE
    llm_is_dev_connected                     0x00029b91   Thumb Code     0  symbol_g15.obj ABSOLUTE
    llm_is_dev_synced                        0x00029be5   Thumb Code     0  symbol_g15.obj ABSOLUTE
    llm_le_evt_mask_check                    0x00029cd5   Thumb Code     0  symbol_g15.obj ABSOLUTE
    llm_le_features_get                      0x00029cf9   Thumb Code     0  symbol_g15.obj ABSOLUTE
    llm_link_disc                            0x00029d01   Thumb Code     0  symbol_g15.obj ABSOLUTE
    llm_master_ch_map_get                    0x00029ddd   Thumb Code     0  symbol_g15.obj ABSOLUTE
    llm_per_adv_sync                         0x00029e21   Thumb Code     0  symbol_g15.obj ABSOLUTE
    llm_plan_elt_get                         0x00029efd   Thumb Code     0  symbol_g15.obj ABSOLUTE
    llm_ral_get                              0x00029f4d   Thumb Code     0  symbol_g15.obj ABSOLUTE
    llm_ral_is_empty                         0x00029f55   Thumb Code     0  symbol_g15.obj ABSOLUTE
    llm_ral_search                           0x00029f7d   Thumb Code     0  symbol_g15.obj ABSOLUTE
    llm_rx_path_comp_get                     0x00029fd5   Thumb Code     0  symbol_g15.obj ABSOLUTE
    llm_scan_period_to_handler               0x00029fe1   Thumb Code     0  symbol_g15.obj ABSOLUTE
    llm_scan_sync_info_get                   0x0002a0e5   Thumb Code     0  symbol_g15.obj ABSOLUTE
    llm_tx_path_comp_get                     0x0002a155   Thumb Code     0  symbol_g15.obj ABSOLUTE
    lpuart_init                              0x0002a161   Thumb Code     0  symbol_g15.obj ABSOLUTE
    lpuart_send_array                        0x0002a215   Thumb Code     0  symbol_g15.obj ABSOLUTE
    notEqual256                              0x0002a3a9   Thumb Code     0  symbol_g15.obj ABSOLUTE
    phy_upd_proc_start                       0x0002a731   Thumb Code     0  symbol_g15.obj ABSOLUTE
    platform_reset                           0x0002a785   Thumb Code     0  symbol_g15.obj ABSOLUTE
    pmu_hck_config                           0x0002a7bd   Thumb Code     0  symbol_g15.obj ABSOLUTE
    recv_more_data                           0x0002aa05   Thumb Code     0  symbol_g15.obj ABSOLUTE
    reinit_params                            0x0002aa81   Thumb Code     0  symbol_g15.obj ABSOLUTE
    rf_init                                  0x0002aae1   Thumb Code     0  symbol_g15.obj ABSOLUTE
    rwble_hl_init                            0x0002ac85   Thumb Code     0  symbol_g15.obj ABSOLUTE
    rwble_init                               0x0002aca1   Thumb Code     0  symbol_g15.obj ABSOLUTE
    rwble_int_init                           0x0002acdd   Thumb Code     0  symbol_g15.obj ABSOLUTE
    rwble_isr                                0x0002ae31   Thumb Code     0  symbol_g15.obj ABSOLUTE
    rwip_active_check                        0x0002ae4d   Thumb Code     0  symbol_g15.obj ABSOLUTE
    rwip_aes_encrypt                         0x0002ae61   Thumb Code     0  symbol_g15.obj ABSOLUTE
    rwip_clockn_isr                          0x0002af21   Thumb Code     0  symbol_g15.obj ABSOLUTE
    rwip_crypt_isr                           0x0002afe5   Thumb Code     0  symbol_g15.obj ABSOLUTE
    rwip_driver_init                         0x0002b025   Thumb Code     0  symbol_g15.obj ABSOLUTE
    rwip_eif_get                             0x0002b16d   Thumb Code     0  symbol_g15.obj ABSOLUTE
    rwip_fifo_isr                            0x0002b17d   Thumb Code     0  symbol_g15.obj ABSOLUTE
    rwip_finetgt_isr                         0x0002b195   Thumb Code     0  symbol_g15.obj ABSOLUTE
    rwip_prevent_sleep_clear                 0x0002b2b5   Thumb Code     0  symbol_g15.obj ABSOLUTE
    rwip_prevent_sleep_set                   0x0002b2d1   Thumb Code     0  symbol_g15.obj ABSOLUTE
    rwip_schedule                            0x0002b3a1   Thumb Code     0  symbol_g15.obj ABSOLUTE
    rwip_sw_int_req                          0x0002b61d   Thumb Code     0  symbol_g15.obj ABSOLUTE
    rwip_sw_isr                              0x0002b63d   Thumb Code     0  symbol_g15.obj ABSOLUTE
    rwip_time_get                            0x0002b65d   Thumb Code     0  symbol_g15.obj ABSOLUTE
    rwip_timer_1ms_set                       0x0002b69d   Thumb Code     0  symbol_g15.obj ABSOLUTE
    rwip_timer_hs_set                        0x0002b6f1   Thumb Code     0  symbol_g15.obj ABSOLUTE
    rwip_timer_hus_set                       0x0002b721   Thumb Code     0  symbol_g15.obj ABSOLUTE
    rwip_timestamptgt1_isr                   0x0002b761   Thumb Code     0  symbol_g15.obj ABSOLUTE
    rwip_timestamptgt2_isr                   0x0002b78d   Thumb Code     0  symbol_g15.obj ABSOLUTE
    sch_alarm_init                           0x0002b7d5   Thumb Code     0  symbol_g15.obj ABSOLUTE
    sch_alarm_set                            0x0002b859   Thumb Code     0  symbol_g15.obj ABSOLUTE
    sch_alarm_timer_isr                      0x0002b8f1   Thumb Code     0  symbol_g15.obj ABSOLUTE
    sch_arb_elt_cancel                       0x0002ba25   Thumb Code     0  symbol_g15.obj ABSOLUTE
    sch_arb_event_start_isr                  0x0002bb29   Thumb Code     0  symbol_g15.obj ABSOLUTE
    sch_arb_init                             0x0002bbed   Thumb Code     0  symbol_g15.obj ABSOLUTE
    sch_arb_insert                           0x0002bc19   Thumb Code     0  symbol_g15.obj ABSOLUTE
    sch_arb_remove                           0x0002bec5   Thumb Code     0  symbol_g15.obj ABSOLUTE
    sch_arb_sw_isr                           0x0002bf29   Thumb Code     0  symbol_g15.obj ABSOLUTE
    sch_plan_chk                             0x0002bf5d   Thumb Code     0  symbol_g15.obj ABSOLUTE
    sch_plan_init                            0x0002bf6d   Thumb Code     0  symbol_g15.obj ABSOLUTE
    sch_plan_rem                             0x0002c231   Thumb Code     0  symbol_g15.obj ABSOLUTE
    sch_plan_req                             0x0002c241   Thumb Code     0  symbol_g15.obj ABSOLUTE
    sch_plan_set                             0x0002c30d   Thumb Code     0  symbol_g15.obj ABSOLUTE
    sch_prog_end_isr                         0x0002c381   Thumb Code     0  symbol_g15.obj ABSOLUTE
    sch_prog_fifo_isr                        0x0002c3ed   Thumb Code     0  symbol_g15.obj ABSOLUTE
    sch_prog_init                            0x0002c4d9   Thumb Code     0  symbol_g15.obj ABSOLUTE
    sch_prog_push                            0x0002c519   Thumb Code     0  symbol_g15.obj ABSOLUTE
    sch_prog_skip_isr                        0x0002c651   Thumb Code     0  symbol_g15.obj ABSOLUTE
    sch_slice_bg_add                         0x0002c6c5   Thumb Code     0  symbol_g15.obj ABSOLUTE
    sch_slice_bg_remove                      0x0002c6dd   Thumb Code     0  symbol_g15.obj ABSOLUTE
    sch_slice_compute                        0x0002c6f5   Thumb Code     0  symbol_g15.obj ABSOLUTE
    sch_slice_fg_add                         0x0002c7a1   Thumb Code     0  symbol_g15.obj ABSOLUTE
    sch_slice_fg_remove                      0x0002c7c1   Thumb Code     0  symbol_g15.obj ABSOLUTE
    sch_slice_init                           0x0002c7f1   Thumb Code     0  symbol_g15.obj ABSOLUTE
    sch_slice_per_add                        0x0002c835   Thumb Code     0  symbol_g15.obj ABSOLUTE
    sch_slice_per_remove                     0x0002c85d   Thumb Code     0  symbol_g15.obj ABSOLUTE
    sleep_condition_check                    0x0002c885   Thumb Code     0  symbol_g15.obj ABSOLUTE
    soft_flow_ctrl_init                      0x0002c91d   Thumb Code     0  symbol_g15.obj ABSOLUTE
    soft_flow_ctrl_tx_process                0x0002c969   Thumb Code     0  symbol_g15.obj ABSOLUTE
    specialModP256                           0x0002c9dd   Thumb Code     0  symbol_g15.obj ABSOLUTE
    spis_init                                0x0002cad5   Thumb Code     0  symbol_g15.obj ABSOLUTE
    stage_idle_irq_handler                   0x0002cb39   Thumb Code     0  symbol_g15.obj ABSOLUTE
    stage_idle_reset                         0x0002cbb5   Thumb Code     0  symbol_g15.obj ABSOLUTE
    stage_rx_irq_handler                     0x0002cc25   Thumb Code     0  symbol_g15.obj ABSOLUTE
    stage_tx_irq_handler                     0x0002cc41   Thumb Code     0  symbol_g15.obj ABSOLUTE
    stage_tx_len_irq_handler                 0x0002cd21   Thumb Code     0  symbol_g15.obj ABSOLUTE
    user_exe_operation                       0x0002cd89   Thumb Code     0  symbol_g15.obj ABSOLUTE
    user_prf_itf_get                         0x0002d011   Thumb Code     0  symbol_g15.obj ABSOLUTE
    utils_data_ready_off                     0x0002d045   Thumb Code     0  symbol_g15.obj ABSOLUTE
    utils_data_ready_on                      0x0002d055   Thumb Code     0  symbol_g15.obj ABSOLUTE
    utils_flow_off                           0x0002d085   Thumb Code     0  symbol_g15.obj ABSOLUTE
    utils_flow_on                            0x0002d0b1   Thumb Code     0  symbol_g15.obj ABSOLUTE
    utils_get_tx_len                         0x0002d0d9   Thumb Code     0  symbol_g15.obj ABSOLUTE
    utils_hci_cmd_check                      0x0002d121   Thumb Code     0  symbol_g15.obj ABSOLUTE
    utils_hci_cmd_reset                      0x0002d1b9   Thumb Code     0  symbol_g15.obj ABSOLUTE
    utils_io_init                            0x0002d22d   Thumb Code     0  symbol_g15.obj ABSOLUTE
    utils_io_sleep                           0x0002d289   Thumb Code     0  symbol_g15.obj ABSOLUTE
    utils_read                               0x0002d33d   Thumb Code     0  symbol_g15.obj ABSOLUTE
    utils_read_wakeup_stat                   0x0002d4c9   Thumb Code     0  symbol_g15.obj ABSOLUTE
    utils_wakeup_int_enable                  0x0002d4d9   Thumb Code     0  symbol_g15.obj ABSOLUTE
    utils_write                              0x0002d521   Thumb Code     0  symbol_g15.obj ABSOLUTE
    wakeup_irq_handler                       0x0002d691   Thumb Code     0  symbol_g15.obj ABSOLUTE
    one_bits                                 0x0002d740   Data           0  symbol_g15.obj ABSOLUTE
    co_sca2ppm                               0x0002d750   Data           0  symbol_g15.obj ABSOLUTE
    co_null_bdaddr                           0x0002d760   Data           0  symbol_g15.obj ABSOLUTE
    co_null_key                              0x0002d766   Data           0  symbol_g15.obj ABSOLUTE
    co_rate_to_phy                           0x0002d776   Data           0  symbol_g15.obj ABSOLUTE
    co_phy_to_rate                           0x0002d77b   Data           0  symbol_g15.obj ABSOLUTE
    co_phy_mask_to_value                     0x0002d77f   Data           0  symbol_g15.obj ABSOLUTE
    co_phy_value_to_mask                     0x0002d784   Data           0  symbol_g15.obj ABSOLUTE
    co_rate_to_phy_mask                      0x0002d788   Data           0  symbol_g15.obj ABSOLUTE
    co_phy_mask_to_rate                      0x0002d78c   Data           0  symbol_g15.obj ABSOLUTE
    rwip_priority                            0x0002d791   Data           0  symbol_g15.obj ABSOLUTE
    aes_cmac_zero                            0x0002d7a7   Data           0  symbol_g15.obj ABSOLUTE
    BasePoint_x_256                          0x0002d7b8   Data           0  symbol_g15.obj ABSOLUTE
    BasePoint_y_256                          0x0002d7d8   Data           0  symbol_g15.obj ABSOLUTE
    maxSecretKey_256                         0x0002d7f8   Data           0  symbol_g15.obj ABSOLUTE
    DebugE256PublicKey_x                     0x0002d818   Data           0  symbol_g15.obj ABSOLUTE
    DebugE256PublicKey_y                     0x0002d838   Data           0  symbol_g15.obj ABSOLUTE
    DebugE256SecretKey                       0x0002d858   Data           0  symbol_g15.obj ABSOLUTE
    coef_B                                   0x0002d878   Data           0  symbol_g15.obj ABSOLUTE
    bigHexP256                               0x0002d8a4   Data           0  symbol_g15.obj ABSOLUTE
    veryBigHexP256                           0x0002d8d0   Data           0  symbol_g15.obj ABSOLUTE
    ecc_Jacobian_InfinityPoint256            0x0002d920   Data           0  symbol_g15.obj ABSOLUTE
    ECC_4Win_Look_up_table                   0x0002d9a4   Data           0  symbol_g15.obj ABSOLUTE
    TASK_DESC_LLC                            0x0002e4bc   Data           0  symbol_g15.obj ABSOLUTE
    LLM_AA_CT2                               0x0002e4c8   Data           0  symbol_g15.obj ABSOLUTE
    LLM_AA_CT1                               0x0002e4ca   Data           0  symbol_g15.obj ABSOLUTE
    connect_req_dur_tab                      0x0002e4d0   Data           0  symbol_g15.obj ABSOLUTE
    byte_tx_time                             0x0002e4d8   Data           0  symbol_g15.obj ABSOLUTE
    fixed_tx_time                            0x0002e4e0   Data           0  symbol_g15.obj ABSOLUTE
    lld_init_max_aux_dur_tab                 0x0002e4e8   Data           0  symbol_g15.obj ABSOLUTE
    lld_scan_map_legacy_pdu_to_evt_type      0x0002e4f0   Data           0  symbol_g15.obj ABSOLUTE
    lld_scan_max_aux_dur_tab                 0x0002e4f8   Data           0  symbol_g15.obj ABSOLUTE
    lld_sync_max_aux_dur_tab                 0x0002e500   Data           0  symbol_g15.obj ABSOLUTE
    hci_cmd_desc_tab_lk_ctrl                 0x0002e8e4   Data           0  symbol_g15.obj ABSOLUTE
    hci_cmd_desc_tab_ctrl_bb                 0x0002e8fc   Data           0  symbol_g15.obj ABSOLUTE
    hci_cmd_desc_tab_info_par                0x0002e968   Data           0  symbol_g15.obj ABSOLUTE
    hci_cmd_desc_tab_stat_par                0x0002e998   Data           0  symbol_g15.obj ABSOLUTE
    hci_cmd_desc_tab_le                      0x0002e9a4   Data           0  symbol_g15.obj ABSOLUTE
    hci_cmd_desc_tab_vs                      0x0002ee0c   Data           0  symbol_g15.obj ABSOLUTE
    hci_cmd_desc_root_tab                    0x0002ee48   Data           0  symbol_g15.obj ABSOLUTE
    hci_evt_desc_tab                         0x0002ee78   Data           0  symbol_g15.obj ABSOLUTE
    hci_evt_le_desc_tab                      0x0002eec0   Data           0  symbol_g15.obj ABSOLUTE
    utils_api                                0x0002ef90   Data           0  symbol_g15.obj ABSOLUTE
    ambiq_speed_att_db_128                   0x0002f148   Data           0  symbol_g15.obj ABSOLUTE
    attc_handlers                            0x0002f3f8   Data           0  symbol_g15.obj ABSOLUTE
    atts_handlers                            0x0002f434   Data           0  symbol_g15.obj ABSOLUTE
    TASK_DESC_GATTC                          0x0002f514   Data           0  symbol_g15.obj ABSOLUTE
    TASK_DESC_GATTM                          0x0002f530   Data           0  symbol_g15.obj ABSOLUTE
    gapc_sig_handlers                        0x0002f62c   Data           0  symbol_g15.obj ABSOLUTE
    TASK_DESC_GAPC                           0x0002f7bc   Data           0  symbol_g15.obj ABSOLUTE
    TASK_DESC_GAPM                           0x0002fa08   Data           0  symbol_g15.obj ABSOLUTE
    l2cc_sig_handlers                        0x0002fb28   Data           0  symbol_g15.obj ABSOLUTE
    TASK_DESC_L2CC                           0x0002fb88   Data           0  symbol_g15.obj ABSOLUTE
    TASK_DESC_AHI                            0x0002fb9c   Data           0  symbol_g15.obj ABSOLUTE
    __Vectors                                0x01000000   Data           4  startup_n32wb03x.o(RESET)
    __Vectors_End                            0x010000c0   Data           0  startup_n32wb03x.o(RESET)
    __main                                   0x010000c1   Thumb Code     0  entry.o(.ARM.Collect$$$$00000000)
    _main_stk                                0x010000c1   Thumb Code     0  entry2.o(.ARM.Collect$$$$00000001)
    _main_scatterload                        0x010000c5   Thumb Code     0  entry5.o(.ARM.Collect$$$$00000004)
    __main_after_scatterload                 0x010000c9   Thumb Code     0  entry5.o(.ARM.Collect$$$$00000004)
    _main_clock                              0x010000c9   Thumb Code     0  entry7b.o(.ARM.Collect$$$$00000008)
    _main_cpp_init                           0x010000c9   Thumb Code     0  entry8b.o(.ARM.Collect$$$$0000000A)
    _main_init                               0x010000c9   Thumb Code     0  entry9a.o(.ARM.Collect$$$$0000000B)
    __rt_lib_shutdown_fini                   0x010000d1   Thumb Code     0  entry12b.o(.ARM.Collect$$$$0000000E)
    __rt_final_cpp                           0x010000d5   Thumb Code     0  entry10a.o(.ARM.Collect$$$$0000000F)
    __rt_final_exit                          0x010000d5   Thumb Code     0  entry11a.o(.ARM.Collect$$$$00000011)
    __asm___17_system_n32wb03x_c_f233b82c____REV16 0x010000d9   Thumb Code     4  system_n32wb03x.o(.emb_text)
    __asm___17_system_n32wb03x_c_f233b82c____REVSH 0x010000dd   Thumb Code     4  system_n32wb03x.o(.emb_text)
    system_delay_cycles                      0x010000e1   Thumb Code     6  system_n32wb03x.o(.emb_text)
    Reset_Handler                            0x010000e9   Thumb Code     8  startup_n32wb03x.o(.text)
    NMI_Handler                              0x010000f1   Thumb Code     2  startup_n32wb03x.o(.text)
    HardFault_Handler                        0x010000f3   Thumb Code     2  startup_n32wb03x.o(.text)
    SVC_Handler                              0x010000f5   Thumb Code     2  startup_n32wb03x.o(.text)
    PendSV_Handler                           0x010000f7   Thumb Code     2  startup_n32wb03x.o(.text)
    SysTick_Handler                          0x010000f9   Thumb Code     2  startup_n32wb03x.o(.text)
    ADC_IRQHandler                           0x010000fb   Thumb Code     0  startup_n32wb03x.o(.text)
    BLE_CRYPT_IRQHandler                     0x010000fb   Thumb Code     0  startup_n32wb03x.o(.text)
    BLE_ERROR_IRQHandler                     0x010000fb   Thumb Code     0  startup_n32wb03x.o(.text)
    BLE_FIFO_IRQHandler                      0x010000fb   Thumb Code     0  startup_n32wb03x.o(.text)
    BLE_FINETGT_IRQHandler                   0x010000fb   Thumb Code     0  startup_n32wb03x.o(.text)
    BLE_HSLOT_IRQHandler                     0x010000fb   Thumb Code     0  startup_n32wb03x.o(.text)
    BLE_SLP_IRQHandler                       0x010000fb   Thumb Code     0  startup_n32wb03x.o(.text)
    BLE_SW_IRQHandler                        0x010000fb   Thumb Code     0  startup_n32wb03x.o(.text)
    BLE_TIMESTAMP_TGT1_IRQHandler            0x010000fb   Thumb Code     0  startup_n32wb03x.o(.text)
    BLE_TIMESTAMP_TGT2_IRQHandler            0x010000fb   Thumb Code     0  startup_n32wb03x.o(.text)
    DMA_Channel5_IRQHandler                  0x010000fb   Thumb Code     0  startup_n32wb03x.o(.text)
    FLASH_IRQHandler                         0x010000fb   Thumb Code     0  startup_n32wb03x.o(.text)
    I2C1_IRQHandler                          0x010000fb   Thumb Code     0  startup_n32wb03x.o(.text)
    IRC_IRQHandler                           0x010000fb   Thumb Code     0  startup_n32wb03x.o(.text)
    KEYSCAN_IRQHandler                       0x010000fb   Thumb Code     0  startup_n32wb03x.o(.text)
    RCC_IRQHandler                           0x010000fb   Thumb Code     0  startup_n32wb03x.o(.text)
    RESERVED_IRQHandler                      0x010000fb   Thumb Code     0  startup_n32wb03x.o(.text)
    SPI1_IRQHandler                          0x010000fb   Thumb Code     0  startup_n32wb03x.o(.text)
    SPI2_IRQHandler                          0x010000fb   Thumb Code     0  startup_n32wb03x.o(.text)
    TIM1_CC_IRQHandler                       0x010000fb   Thumb Code     0  startup_n32wb03x.o(.text)
    USART2_IRQHandler                        0x010000fb   Thumb Code     0  startup_n32wb03x.o(.text)
    WWDG_IRQHandler                          0x010000fb   Thumb Code     0  startup_n32wb03x.o(.text)
    __aeabi_uidiv                            0x01000105   Thumb Code     0  uidiv.o(.text)
    __aeabi_uidivmod                         0x01000105   Thumb Code    44  uidiv.o(.text)
    __aeabi_idiv                             0x01000131   Thumb Code     0  idiv.o(.text)
    __aeabi_idivmod                          0x01000131   Thumb Code    40  idiv.o(.text)
    rand                                     0x01000159   Thumb Code    18  rand.o(.text)
    srand                                    0x0100016b   Thumb Code     6  rand.o(.text)
    __aeabi_memcpy                           0x0100017d   Thumb Code    36  memcpya.o(.text)
    __aeabi_memcpy4                          0x0100017d   Thumb Code     0  memcpya.o(.text)
    __aeabi_memcpy8                          0x0100017d   Thumb Code     0  memcpya.o(.text)
    __aeabi_memset                           0x010001a1   Thumb Code    14  memseta.o(.text)
    __aeabi_memset4                          0x010001a1   Thumb Code     0  memseta.o(.text)
    __aeabi_memset8                          0x010001a1   Thumb Code     0  memseta.o(.text)
    __aeabi_memclr                           0x010001af   Thumb Code     4  memseta.o(.text)
    __aeabi_memclr4                          0x010001af   Thumb Code     0  memseta.o(.text)
    __aeabi_memclr8                          0x010001af   Thumb Code     0  memseta.o(.text)
    _memset$wrapper                          0x010001b3   Thumb Code    18  memseta.o(.text)
    memcmp                                   0x010001c5   Thumb Code    26  memcmp.o(.text)
    atoi                                     0x010001df   Thumb Code    26  atoi.o(.text)
    __aeabi_fmul                             0x010001f9   Thumb Code   122  fmul.o(.text)
    __aeabi_fdiv                             0x01000273   Thumb Code   124  fdiv.o(.text)
    __aeabi_ui2f                             0x010002ef   Thumb Code    14  ffltui.o(.text)
    __aeabi_f2uiz                            0x010002fd   Thumb Code    40  ffixui.o(.text)
    strtol                                   0x01000325   Thumb Code   108  strtol.o(.text)
    __I$use$fp                               0x01000395   Thumb Code     0  iusefp.o(.text)
    _float_round                             0x01000395   Thumb Code    16  fepilogue.o(.text)
    _float_epilogue                          0x010003a5   Thumb Code   114  fepilogue.o(.text)
    __scatterload                            0x01000419   Thumb Code    28  init.o(.text)
    __scatterload_rt2                        0x01000419   Thumb Code     0  init.o(.text)
    __rt_ctype_table                         0x0100043d   Thumb Code     4  ctype_o.o(.text)
    _strtoul                                 0x01000445   Thumb Code   166  _strtoul.o(.text)
    _chval                                   0x010004eb   Thumb Code    30  _chval.o(.text)
    __decompress                             0x01000509   Thumb Code     0  __dczerorl2.o(.text)
    __decompress1                            0x01000509   Thumb Code    86  __dczerorl2.o(.text)
    Long Thumb to Thumb Veneer to __ARM_common_memcpy1_6 0x01000561   Thumb Code    12  anon$$obj.o(Veneer$$Code)
    Long Thumb to Thumb Veneer to __ARM_common_memclr1_6 0x0100056d   Thumb Code    12  anon$$obj.o(Veneer$$Code)
    Long Thumb to Thumb Veneer to attmdb_get_attribute 0x01000579   Thumb Code    12  anon$$obj.o(Veneer$$Code)
    Long Thumb to Thumb Veneer to attmdb_uuid16_comp 0x01000585   Thumb Code    12  anon$$obj.o(Veneer$$Code)
    Long Thumb to Thumb Veneer to co_list_pop_front 0x01000591   Thumb Code    12  anon$$obj.o(Veneer$$Code)
    Long Thumb to Thumb Veneer to attm_svc_create_db 0x0100059d   Thumb Code    12  anon$$obj.o(Veneer$$Code)
    Long Thumb to Thumb Veneer to co_list_init 0x010005a9   Thumb Code    12  anon$$obj.o(Veneer$$Code)
    Long Thumb to Thumb Veneer to co_list_extract 0x010005b5   Thumb Code    12  anon$$obj.o(Veneer$$Code)
    Long Thumb to Thumb Veneer to co_list_push_back 0x010005c1   Thumb Code    12  anon$$obj.o(Veneer$$Code)
    Long Thumb to Thumb Veneer to EXTI_PA11_Configuration 0x010005cd   Thumb Code    12  anon$$obj.o(Veneer$$Code)
    Long Thumb to Thumb Veneer to __ARM_common_memcpy1_8 0x010005d9   Thumb Code    12  anon$$obj.o(Veneer$$Code)
    Long Thumb to Thumb Veneer to attmdb_att_get_permission 0x010005e5   Thumb Code    12  anon$$obj.o(Veneer$$Code)
    Long Thumb to Thumb Veneer to attmdb_get_service 0x010005f1   Thumb Code    12  anon$$obj.o(Veneer$$Code)
    Long Thumb to Thumb Veneer to attmdb_get_uuid 0x010005fd   Thumb Code    12  anon$$obj.o(Veneer$$Code)
    Long Thumb to Thumb Veneer to calib_lsi_clk 0x01000609   Thumb Code    12  anon$$obj.o(Veneer$$Code)
    Long Thumb to Thumb Veneer to attm_svc_create_db_128 0x01000615   Thumb Code    12  anon$$obj.o(Veneer$$Code)
    Long Thumb to Thumb Veneer to ahi_init   0x01000621   Thumb Code    12  anon$$obj.o(Veneer$$Code)
    ADC_ClearFlag                            0x0100062d   Thumb Code     6  n32wb03x_adc.o(i.ADC_ClearFlag)
    ADC_ConfigChannel                        0x01000633   Thumb Code    14  n32wb03x_adc.o(i.ADC_ConfigChannel)
    ADC_ConverValueToVoltage                 0x01000641   Thumb Code   142  n32wb03x_adc.o(i.ADC_ConverValueToVoltage)
    ADC_Enable                               0x010006d5   Thumb Code    20  n32wb03x_adc.o(i.ADC_Enable)
    ADC_EnableBypassFilter                   0x010006e9   Thumb Code    18  n32wb03x_adc.o(i.ADC_EnableBypassFilter)
    ADC_GetDat                               0x010006fb   Thumb Code     6  n32wb03x_adc.o(i.ADC_GetDat)
    ADC_GetFlagStatus                        0x01000701   Thumb Code    14  n32wb03x_adc.o(i.ADC_GetFlagStatus)
    APP_IO_Init                              0x01000711   Thumb Code   120  led.o(i.APP_IO_Init)
    APP_Led_callback                         0x0100078d   Thumb Code    28  user_ble.o(i.APP_Led_callback)
    Adc_Init                                 0x010007b5   Thumb Code    76  adc.o(i.Adc_Init)
    BLE_Send_Ble_MAC_Addr                    0x0100080d   Thumb Code    90  user_ble.o(i.BLE_Send_Ble_MAC_Addr)
    BLE_Send_OneData                         0x01000871   Thumb Code    42  user_ble.o(i.BLE_Send_OneData)
    BLE_Send_OneDatau32                      0x010008a1   Thumb Code    66  user_ble.o(i.BLE_Send_OneDatau32)
    COMM_ConvertProcess_QT                   0x010008e9   Thumb Code   968  user_ble.o(i.COMM_ConvertProcess_QT)
    DBG_ConfigPeriph                         0x01000d15   Thumb Code    18  n32wb03x_rcc.o(i.DBG_ConfigPeriph)
    DMA_Channel1_2_3_4_IRQHandler            0x01000d2d   Thumb Code    90  app_usart.o(i.DMA_Channel1_2_3_4_IRQHandler)
    DMA_ClearFlag                            0x01000d95   Thumb Code     4  n32wb03x_dma.o(i.DMA_ClearFlag)
    DMA_EnableChannel                        0x01000d99   Thumb Code    20  n32wb03x_dma.o(i.DMA_EnableChannel)
    DMA_GetCurrDataCounter                   0x01000db1   Thumb Code     6  n32wb03x_dma.o(i.DMA_GetCurrDataCounter)
    DMA_GetFlagStatus                        0x01000db7   Thumb Code    14  n32wb03x_dma.o(i.DMA_GetFlagStatus)
    DMA_Init                                 0x01000dc5   Thumb Code    58  n32wb03x_dma.o(i.DMA_Init)
    DMA_SetCurrDataCounter                   0x01000e05   Thumb Code     4  n32wb03x_dma.o(i.DMA_SetCurrDataCounter)
    EXTI0_1_IRQHandler                       0x01000e09   Thumb Code   152  exti.o(i.EXTI0_1_IRQHandler)
    EXTI2_3_IRQHandler                       0x01000ecd   Thumb Code   126  exti.o(i.EXTI2_3_IRQHandler)
    EXTI4_12_IRQHandler                      0x01000f75   Thumb Code   132  exti.o(i.EXTI4_12_IRQHandler)
    EXTIX_Init                               0x0100101d   Thumb Code   350  exti.o(i.EXTIX_Init)
    EXTI_ClrITPendBit                        0x01001185   Thumb Code     6  n32wb03x_exti.o(i.EXTI_ClrITPendBit)
    EXTI_GetITStatus                         0x01001191   Thumb Code    24  n32wb03x_exti.o(i.EXTI_GetITStatus)
    EXTI_InitPeripheral                      0x010011ad   Thumb Code   108  n32wb03x_exti.o(i.EXTI_InitPeripheral)
    Entry_Power_Off                          0x0100121d   Thumb Code   108  pwm.o(i.Entry_Power_Off)
    Eye_Task_Functiont                       0x010012a5   Thumb Code   118  du_eye.o(i.Eye_Task_Functiont)
    Eye_Task_Pause                           0x01001349   Thumb Code    42  du_eye.o(i.Eye_Task_Pause)
    Eye_Task_Start                           0x01001389   Thumb Code    46  du_eye.o(i.Eye_Task_Start)
    Eye_Task_Stop                            0x010013d1   Thumb Code    42  du_eye.o(i.Eye_Task_Stop)
    GPIO_ConfigEXTILine                      0x01001411   Thumb Code   334  n32wb03x_gpio.o(i.GPIO_ConfigEXTILine)
    GPIO_InitPeripheral                      0x01001565   Thumb Code   184  n32wb03x_gpio.o(i.GPIO_InitPeripheral)
    GPIO_InitStruct                          0x0100161d   Thumb Code    22  n32wb03x_gpio.o(i.GPIO_InitStruct)
    GPIO_ReadInputDataBit                    0x01001639   Thumb Code    14  n32wb03x_gpio.o(i.GPIO_ReadInputDataBit)
    GPIO_ResetBits                           0x01001647   Thumb Code     4  n32wb03x_gpio.o(i.GPIO_ResetBits)
    GPIO_SetBits                             0x0100164b   Thumb Code     4  n32wb03x_gpio.o(i.GPIO_SetBits)
    GetDateTimeFromSecond                    0x01001651   Thumb Code   142  rtc.o(i.GetDateTimeFromSecond)
    GetLithium_BAT                           0x010016f1   Thumb Code    36  bat.o(i.GetLithium_BAT)
    GetSecondFromDateTime                    0x01001719   Thumb Code   184  rtc.o(i.GetSecondFromDateTime)
    Get_Adc_Voltage_Mid                      0x010017e1   Thumb Code   146  adc.o(i.Get_Adc_Voltage_Mid)
    Get_Bat_Electric_Quantity                0x01001879   Thumb Code    20  user_ble.o(i.Get_Bat_Electric_Quantity)
    Get_Compile_Time                         0x0100188d   Thumb Code   140  gy_common.o(i.Get_Compile_Time)
    IWDG_CntReload                           0x0100193d   Thumb Code     6  n32wb03x_iwdg.o(i.IWDG_CntReload)
    IWDG_Enable                              0x01001949   Thumb Code     8  n32wb03x_iwdg.o(i.IWDG_Enable)
    IWDG_Feed                                0x01001959   Thumb Code     8  iwdg.o(i.IWDG_Feed)
    IWDG_Init                                0x01001961   Thumb Code    60  iwdg.o(i.IWDG_Init)
    IWDG_ReloadKey                           0x010019a5   Thumb Code     8  n32wb03x_iwdg.o(i.IWDG_ReloadKey)
    IWDG_SetPrescalerDiv                     0x010019b5   Thumb Code     6  n32wb03x_iwdg.o(i.IWDG_SetPrescalerDiv)
    IWDG_WriteConfig                         0x010019c1   Thumb Code     6  n32wb03x_iwdg.o(i.IWDG_WriteConfig)
    Key_PutCmd                               0x010019cd   Thumb Code    24  du_eye.o(i.Key_PutCmd)
    Key_Task_Functiont                       0x010019e9   Thumb Code   412  du_eye.o(i.Key_Task_Functiont)
    LED_Init                                 0x01001c29   Thumb Code    74  led.o(i.LED_Init)
    LPUART1_IRQHandler                       0x01001c7d   Thumb Code    60  lpuart.o(i.LPUART1_IRQHandler)
    LPUART_ClrIntPendingBit                  0x01001cd5   Thumb Code     6  n32wb03x_lpuart.o(i.LPUART_ClrIntPendingBit)
    LPUART_GetIntStatus                      0x01001cdb   Thumb Code    38  n32wb03x_lpuart.o(i.LPUART_GetIntStatus)
    LPUART_ReceiveData                       0x01001d01   Thumb Code     4  n32wb03x_lpuart.o(i.LPUART_ReceiveData)
    Line_2A_WTN6                             0x01001d05   Thumb Code    94  wnt6170.o(i.Line_2A_WTN6)
    Line_2A_WTN6_FourLink                    0x01001d6d   Thumb Code   192  wnt6170.o(i.Line_2A_WTN6_FourLink)
    Line_2A_WTN6_ISR                         0x01001e49   Thumb Code    68  wnt6170.o(i.Line_2A_WTN6_ISR)
    Line_2A_WTN6_TwoLink                     0x01001e91   Thumb Code   168  wnt6170.o(i.Line_2A_WTN6_TwoLink)
    Line_2A_WTN6_init                        0x01001f51   Thumb Code    48  wnt6170.o(i.Line_2A_WTN6_init)
    MOTOR_Init                               0x01001f85   Thumb Code    22  du_eye.o(i.MOTOR_Init)
    Motor_Set_Sta                            0x01001fa5   Thumb Code   114  du_eye.o(i.Motor_Set_Sta)
    My_RTC_Init                              0x0100203d   Thumb Code   238  rtc.o(i.My_RTC_Init)
    NVIC_Init                                0x010021cd   Thumb Code   102  misc.o(i.NVIC_Init)
    PD_Mode_Init                             0x01002245   Thumb Code   164  pwm.o(i.PD_Mode_Init)
    PWR_EnterPDMode                          0x0100230d   Thumb Code    40  n32wb03x_pwr.o(i.PWR_EnterPDMode)
    PowerKey_timers_start                    0x010023a5   Thumb Code    26  pwm.o(i.PowerKey_timers_start)
    Qflash_Erase_Sector                      0x010023c9   Thumb Code    30  n32wb03x_qflash.o(i.Qflash_Erase_Sector)
    Qflash_Init                              0x010023ed   Thumb Code    16  n32wb03x_qflash.o(i.Qflash_Init)
    Qflash_Read                              0x0100240d   Thumb Code    30  n32wb03x_qflash.o(i.Qflash_Read)
    Qflash_Write                             0x01002431   Thumb Code    30  n32wb03x_qflash.o(i.Qflash_Write)
    RCC_ClrFlag                              0x01002455   Thumb Code    18  n32wb03x_rcc.o(i.RCC_ClrFlag)
    RCC_ConfigAdcClk                         0x0100246d   Thumb Code    14  n32wb03x_rcc.o(i.RCC_ConfigAdcClk)
    RCC_ConfigLSXSEL                         0x01002481   Thumb Code    18  n32wb03x_rcc.o(i.RCC_ConfigLSXSEL)
    RCC_ConfigLse                            0x01002499   Thumb Code    34  n32wb03x_rcc.o(i.RCC_ConfigLse)
    RCC_EnableAHBPeriphClk                   0x010024c1   Thumb Code    18  n32wb03x_rcc.o(i.RCC_EnableAHBPeriphClk)
    RCC_EnableAPB1PeriphClk                  0x010024d9   Thumb Code    18  n32wb03x_rcc.o(i.RCC_EnableAPB1PeriphClk)
    RCC_EnableAPB2PeriphClk                  0x010024f1   Thumb Code    18  n32wb03x_rcc.o(i.RCC_EnableAPB2PeriphClk)
    RCC_EnableLsi                            0x01002509   Thumb Code    22  n32wb03x_rcc.o(i.RCC_EnableLsi)
    RCC_EnableRtcClk                         0x01002525   Thumb Code    22  n32wb03x_rcc.o(i.RCC_EnableRtcClk)
    RCC_Enable_ADC_CLK_SRC_AUDIOPLL          0x01002541   Thumb Code    22  n32wb03x_rcc.o(i.RCC_Enable_ADC_CLK_SRC_AUDIOPLL)
    RCC_GetFlagStatus                        0x0100255d   Thumb Code    42  n32wb03x_rcc.o(i.RCC_GetFlagStatus)
    RTC_ClrIntPendingBit                     0x010025a9   Thumb Code    22  n32wb03x_rtc.o(i.RTC_ClrIntPendingBit)
    RTC_ConfigInt                            0x010025c5   Thumb Code    36  n32wb03x_rtc.o(i.RTC_ConfigInt)
    RTC_ConfigTime                           0x010025ed   Thumb Code   132  n32wb03x_rtc.o(i.RTC_ConfigTime)
    RTC_ConfigWakeUpClock                    0x01002679   Thumb Code    34  n32wb03x_rtc.o(i.RTC_ConfigWakeUpClock)
    RTC_EnableWakeUp                         0x010026a1   Thumb Code    82  n32wb03x_rtc.o(i.RTC_EnableWakeUp)
    RTC_EnableWriteProtection                0x010026f9   Thumb Code    30  n32wb03x_rtc.o(i.RTC_EnableWriteProtection)
    RTC_EnterInitMode                        0x0100271d   Thumb Code    62  n32wb03x_rtc.o(i.RTC_EnterInitMode)
    RTC_GetDate                              0x01002761   Thumb Code    86  n32wb03x_rtc.o(i.RTC_GetDate)
    RTC_GetITStatus                          0x010027bd   Thumb Code    30  n32wb03x_rtc.o(i.RTC_GetITStatus)
    RTC_GetTime                              0x010027e1   Thumb Code    84  n32wb03x_rtc.o(i.RTC_GetTime)
    RTC_Get_ALL_Time                         0x0100283d   Thumb Code    66  rtc.o(i.RTC_Get_ALL_Time)
    RTC_IRQHandler                           0x01002885   Thumb Code   292  rtc.o(i.RTC_IRQHandler)
    RTC_Init                                 0x01002a2d   Thumb Code    72  n32wb03x_rtc.o(i.RTC_Init)
    RTC_SetDate                              0x01002a79   Thumb Code   128  n32wb03x_rtc.o(i.RTC_SetDate)
    RTC_SetWakeUpCounter                     0x01002b01   Thumb Code    22  n32wb03x_rtc.o(i.RTC_SetWakeUpCounter)
    RTC_Set_ALL_Time                         0x01002b1d   Thumb Code    68  rtc.o(i.RTC_Set_ALL_Time)
    RTC_Set_WakeUp_Counter                   0x01002b61   Thumb Code   152  rtc.o(i.RTC_Set_WakeUp_Counter)
    RTC_WaitForSynchro                       0x01002bf9   Thumb Code    62  n32wb03x_rtc.o(i.RTC_WaitForSynchro)
    SEGGER_RTT_ConfigUpBuffer                0x01002c3d   Thumb Code    88  segger_rtt.o(i.SEGGER_RTT_ConfigUpBuffer)
    SEGGER_RTT_Init                          0x01002c99   Thumb Code     8  segger_rtt.o(i.SEGGER_RTT_Init)
    SEGGER_RTT_Write                         0x01002ca1   Thumb Code    48  segger_rtt.o(i.SEGGER_RTT_Write)
    SEGGER_RTT_WriteNoLock                   0x01002cd5   Thumb Code   104  segger_rtt.o(i.SEGGER_RTT_WriteNoLock)
    SEGGER_RTT_printf                        0x01002d41   Thumb Code    24  segger_rtt_printf.o(i.SEGGER_RTT_printf)
    SEGGER_RTT_vprintf                       0x01002d59   Thumb Code   636  segger_rtt_printf.o(i.SEGGER_RTT_vprintf)
    SetDateTimeFromSecond                    0x01002fd5   Thumb Code    22  rtc.o(i.SetDateTimeFromSecond)
    Syd_8801_hex2chr                         0x01002feb   Thumb Code    26  gy_common.o(i.Syd_8801_hex2chr)
    SystemGetMacAddr                         0x01003005   Thumb Code    68  system_n32wb03x.o(i.SystemGetMacAddr)
    SystemInit                               0x01003055   Thumb Code   340  system_n32wb03x.o(i.SystemInit)
    SystemTrimValueGet                       0x010031d1   Thumb Code    68  system_n32wb03x.o(i.SystemTrimValueGet)
    TIM1_BRK_UP_TRG_COM_IRQHandler           0x0100321d   Thumb Code    66  pwm.o(i.TIM1_BRK_UP_TRG_COM_IRQHandler)
    TIM3_IRQHandler                          0x0100328d   Thumb Code    22  pwm.o(i.TIM3_IRQHandler)
    TIM3_PWM_TWO_Init                        0x010032a9   Thumb Code   180  pwm.o(i.TIM3_PWM_TWO_Init)
    TIM6_IRQHandler                          0x01003365   Thumb Code    64  pwm.o(i.TIM6_IRQHandler)
    TIM6_Int_Init                            0x010033c1   Thumb Code   102  pwm.o(i.TIM6_Int_Init)
    TIM_ClearFlag                            0x0100342d   Thumb Code     8  n32wb03x_tim.o(i.TIM_ClearFlag)
    TIM_ClrIntPendingBit                     0x01003435   Thumb Code     8  n32wb03x_tim.o(i.TIM_ClrIntPendingBit)
    TIM_ConfigArPreload                      0x0100343d   Thumb Code    18  n32wb03x_tim.o(i.TIM_ConfigArPreload)
    TIM_ConfigInt                            0x0100344f   Thumb Code    16  n32wb03x_tim.o(i.TIM_ConfigInt)
    TIM_ConfigOc2Preload                     0x01003461   Thumb Code    14  n32wb03x_tim.o(i.TIM_ConfigOc2Preload)
    TIM_Enable                               0x01003475   Thumb Code    20  n32wb03x_tim.o(i.TIM_Enable)
    TIM_EnableOc1Preload                     0x01003489   Thumb Code    12  n32wb03x_tim.o(i.TIM_EnableOc1Preload)
    TIM_GetIntStatus                         0x01003495   Thumb Code    24  n32wb03x_tim.o(i.TIM_GetIntStatus)
    TIM_InitOc1                              0x010034ad   Thumb Code    90  n32wb03x_tim.o(i.TIM_InitOc1)
    TIM_InitOc2                              0x0100350d   Thumb Code   102  n32wb03x_tim.o(i.TIM_InitOc2)
    TIM_InitTimBaseStruct                    0x0100357d   Thumb Code    28  n32wb03x_tim.o(i.TIM_InitTimBaseStruct)
    TIM_InitTimeBase                         0x01003599   Thumb Code   162  n32wb03x_tim.o(i.TIM_InitTimeBase)
    TIM_SetCmp1                              0x01003649   Thumb Code     4  n32wb03x_tim.o(i.TIM_SetCmp1)
    TIM_SetCmp2                              0x0100364d   Thumb Code     4  n32wb03x_tim.o(i.TIM_SetCmp2)
    TIM_SetCnt                               0x01003651   Thumb Code     4  n32wb03x_tim.o(i.TIM_SetCnt)
    USART1_IRQHandler                        0x01003655   Thumb Code   106  app_usart.o(i.USART1_IRQHandler)
    USART_GetFlagStatus                      0x010036f1   Thumb Code    14  n32wb03x_usart.o(i.USART_GetFlagStatus)
    User_Qflash_Init                         0x010036ff   Thumb Code    12  stmflash.o(i.User_Qflash_Init)
    User_Read_Data                           0x0100370d   Thumb Code    48  stmflash.o(i.User_Read_Data)
    User_Read_Data_From_StmFlash             0x01003741   Thumb Code   176  stmflash.o(i.User_Read_Data_From_StmFlash)
    User_Write_Data                          0x01003831   Thumb Code    52  stmflash.o(i.User_Write_Data)
    WNT6170Delay_callback                    0x01003869   Thumb Code    16  wnt6170.o(i.WNT6170Delay_callback)
    WNT6170Delay_timers_start                0x01003895   Thumb Code    28  wnt6170.o(i.WNT6170Delay_timers_start)
    __ARM_common_memcpy4_7                   0x01003b47   Thumb Code    14  segger_rtt.o(i.__ARM_common_memcpy4_7)
    __aeabi_errno_addr                       0x01003b55   Thumb Code     4  errno.o(i.__aeabi_errno_addr)
    __rt_errno_addr                          0x01003b55   Thumb Code     0  errno.o(i.__aeabi_errno_addr)
    app_ble_adv_init                         0x01003b5d   Thumb Code    90  app_ble.o(i.app_ble_adv_init)
    app_ble_adv_msg_handler                  0x01003bd1   Thumb Code    58  app_ble.o(i.app_ble_adv_msg_handler)
    app_ble_gap_params_init                  0x01003c61   Thumb Code   238  app_ble.o(i.app_ble_gap_params_init)
    app_ble_init                             0x01003d8d   Thumb Code    66  app_ble.o(i.app_ble_init)
    app_ble_msg_handler                      0x01003de1   Thumb Code    86  app_ble.o(i.app_ble_msg_handler)
    app_ble_sec_init                         0x01003e65   Thumb Code    70  app_ble.o(i.app_ble_sec_init)
    app_dis_add_dis                          0x01003fad   Thumb Code    74  app_dis.o(i.app_dis_add_dis)
    app_entry_point_handler                  0x01004009   Thumb Code   238  ns_ble_task.o(i.app_entry_point_handler)
    app_rdtss_add_rdts                       0x010041b9   Thumb Code    82  app_rdtss.o(i.app_rdtss_add_rdts)
    app_usart_rx_data_fifo_enter             0x010043c9   Thumb Code   136  app_usart.o(i.app_usart_rx_data_fifo_enter)
    app_usart_tx_process                     0x0100446d   Thumb Code    56  app_usart.o(i.app_usart_tx_process)
    app_user_msg_handler                     0x010044ad   Thumb Code    14  app_ble.o(i.app_user_msg_handler)
    attm_att_set_value                       0x010044c1   Thumb Code   170  lib_att.o(i.attm_att_set_value)
    check_client_char_cfg                    0x01004581   Thumb Code    42  rdts_common.o(i.check_client_char_cfg)
    diss_check_val_len                       0x010045ab   Thumb Code    42  diss.o(i.diss_check_val_len)
    diss_handle_to_value                     0x01004617   Thumb Code    52  diss.o(i.diss_handle_to_value)
    diss_prf_itf_get                         0x010046ed   Thumb Code     4  diss.o(i.diss_prf_itf_get)
    diss_task_init                           0x01004791   Thumb Code    28  diss_task.o(i.diss_task_init)
    diss_value_to_handle                     0x010048ed   Thumb Code    58  diss.o(i.diss_value_to_handle)
    entry_idle                               0x01004929   Thumb Code    30  ns_sleep.o(i.entry_idle)
    get_cfg_handle                           0x01005a15   Thumb Code    98  rdts_common.o(i.get_cfg_handle)
    get_value_handle                         0x01005a81   Thumb Code    78  rdts_common.o(i.get_value_handle)
    llhwc_modem_setmode                      0x01005ad5   Thumb Code    44  rwip_driver.o(i.llhwc_modem_setmode)
    llhwc_phy_prerx_flash                    0x01005b05   Thumb Code   146  rwip_driver.o(i.llhwc_phy_prerx_flash)
    main                                     0x01005c91   Thumb Code   148  main.o(i.main)
    ns_EXTI4_12_IRQHandler                   0x01005d81   Thumb Code    96  ns_ble.o(i.ns_EXTI4_12_IRQHandler)
    ns_HardFault_Handler                     0x01005e09   Thumb Code   126  ns_ble.o(i.ns_HardFault_Handler)
    ns_ble_active_rssi                       0x01005f69   Thumb Code    36  ns_ble.o(i.ns_ble_active_rssi)
    ns_ble_add_prf_func_register             0x01005f99   Thumb Code    28  ns_ble.o(i.ns_ble_add_prf_func_register)
    ns_ble_add_svc                           0x01005fb9   Thumb Code    34  ns_ble.o(i.ns_ble_add_svc)
    ns_ble_adv_fsm_next                      0x01005fe5   Thumb Code   188  ns_ble.o(i.ns_ble_adv_fsm_next)
    ns_ble_adv_init                          0x010060b1   Thumb Code    52  ns_ble.o(i.ns_ble_adv_init)
    ns_ble_adv_start                         0x010060f1   Thumb Code    72  ns_ble.o(i.ns_ble_adv_start)
    ns_ble_adv_stop                          0x01006141   Thumb Code    66  ns_ble.o(i.ns_ble_adv_stop)
    ns_ble_delete_init                       0x0100618d   Thumb Code    40  ns_ble.o(i.ns_ble_delete_init)
    ns_ble_delete_scan                       0x010061c1   Thumb Code    40  ns_ble.o(i.ns_ble_delete_scan)
    ns_ble_disconnect                        0x010061f5   Thumb Code    34  ns_ble.o(i.ns_ble_disconnect)
    ns_ble_gap_init                          0x01006221   Thumb Code    70  ns_ble.o(i.ns_ble_gap_init)
    ns_ble_get_connection_num                0x0100628d   Thumb Code    32  ns_ble.o(i.ns_ble_get_connection_num)
    ns_ble_list_set_ral                      0x010062b1   Thumb Code    76  ns_ble.o(i.ns_ble_list_set_ral)
    ns_ble_lsc_config                        0x01006301   Thumb Code   110  ns_ble.o(i.ns_ble_lsc_config)
    ns_ble_prf_task_register                 0x01006385   Thumb Code    34  ns_ble.o(i.ns_ble_prf_task_register)
    ns_ble_scan_data_find                    0x010063ad   Thumb Code    72  ns_ble.o(i.ns_ble_scan_data_find)
    ns_ble_stack_init                        0x010063f5   Thumb Code   432  ns_ble.o(i.ns_ble_stack_init)
    ns_ble_start_init                        0x0100662d   Thumb Code   188  ns_ble.o(i.ns_ble_start_init)
    ns_ble_start_scan                        0x01006701   Thumb Code   170  ns_ble.o(i.ns_ble_start_scan)
    ns_ble_stop_scan                         0x010067c1   Thumb Code    30  ns_ble.o(i.ns_ble_stop_scan)
    ns_ble_update_param                      0x010067e9   Thumb Code   130  ns_ble.o(i.ns_ble_update_param)
    ns_bond_last_bonded_peer_id              0x010068c1   Thumb Code    60  ns_sec.o(i.ns_bond_last_bonded_peer_id)
    ns_bond_last_bonded_ral_info             0x01006901   Thumb Code   104  ns_sec.o(i.ns_bond_last_bonded_ral_info)
    ns_sec_bond_store_evt_handler            0x01006975   Thumb Code   284  ns_sec.o(i.ns_sec_bond_store_evt_handler)
    ns_sec_get_bond_status                   0x01006acd   Thumb Code     6  ns_sec.o(i.ns_sec_get_bond_status)
    ns_sec_get_iocap                         0x01006ad9   Thumb Code     6  ns_sec.o(i.ns_sec_get_iocap)
    ns_sec_init                              0x01006ae5   Thumb Code    94  ns_sec.o(i.ns_sec_init)
    ns_sleep_lock_acquire                    0x01006b4d   Thumb Code    20  ns_sleep.o(i.ns_sleep_lock_acquire)
    ns_sleep_lock_release                    0x01006b65   Thumb Code    16  ns_sleep.o(i.ns_sleep_lock_release)
    ns_timer_api_process_handler             0x01006b79   Thumb Code   166  ns_timer.o(i.ns_timer_api_process_handler)
    ns_timer_cancel                          0x01006c41   Thumb Code    58  ns_timer.o(i.ns_timer_cancel)
    ns_timer_create                          0x01006c8d   Thumb Code    54  ns_timer.o(i.ns_timer_create)
    prf_add_profile                          0x01006ccd   Thumb Code   132  prf.o(i.prf_add_profile)
    prf_dst_task_get                         0x01006d55   Thumb Code    16  prf.o(i.prf_dst_task_get)
    prf_env_get                              0x01006d65   Thumb Code    44  prf.o(i.prf_env_get)
    prf_get_id_from_task                     0x01006d95   Thumb Code    50  prf.o(i.prf_get_id_from_task)
    prf_get_itf_func_register                0x01006dcd   Thumb Code    34  prf.o(i.prf_get_itf_func_register)
    prf_get_task_from_id                     0x01006df5   Thumb Code    50  prf.o(i.prf_get_task_from_id)
    prf_init                                 0x01006e2d   Thumb Code   170  prf.o(i.prf_init)
    prf_src_task_get                         0x01006f11   Thumb Code    16  prf.o(i.prf_src_task_get)
    rdtss_get_att_handle                     0x010071a1   Thumb Code    28  rdts_common.o(i.rdtss_get_att_handle)
    rdtss_get_att_idx                        0x010071bd   Thumb Code    40  rdts_common.o(i.rdtss_get_att_idx)
    rdtss_init_ccc_values                    0x0100727d   Thumb Code   160  rdtss_task.o(i.rdtss_init_ccc_values)
    rdtss_prf_itf_get                        0x01007321   Thumb Code     4  rdtss.o(i.rdtss_prf_itf_get)
    rdtss_send_notify                        0x01007329   Thumb Code    62  app_rdtss.o(i.rdtss_send_notify)
    rdtss_set_ccc_value                      0x01007371   Thumb Code    72  rdtss_task.o(i.rdtss_set_ccc_value)
    rdtss_task_init                          0x010073b9   Thumb Code    28  rdtss_task.o(i.rdtss_task_init)
    rf_tx_power_set                          0x0100759d   Thumb Code   104  rwip_driver.o(i.rf_tx_power_set)
    rwip_init                                0x01007619   Thumb Code   172  rwip.o(i.rwip_init)
    rwip_slp_isr                             0x010076f9   Thumb Code   178  rwip_driver.o(i.rwip_slp_isr)
    usart_forward_to_ble_loop                0x010077dd   Thumb Code    68  app_usart.o(i.usart_forward_to_ble_loop)
    usart_rx_check_in_irq                    0x01007829   Thumb Code    70  app_usart.o(i.usart_rx_check_in_irq)
    usart_tx_dma_send                        0x0100787d   Thumb Code    78  app_usart.o(i.usart_tx_dma_send)
    TRIM_READ_CMD_CODE                       0x010078d8   Data         320  system_n32wb03x.o(.constdata)
    diss_att_db                              0x01007a38   Data         152  diss.o(.constdata)
    diss_itf                                 0x01007ad0   Data          16  diss.o(.constdata)
    rdtss_itf                                0x01007af8   Data          16  rdtss.o(.constdata)
    app_sec_msg_handler_list                 0x01007b50   Data          40  ns_sec.o(.constdata)
    app_sec_handlers                         0x01007b78   Data           8  ns_sec.o(.constdata)
    TASK_DESC_APP_M                          0x01007d1c   Data          12  ns_ble_task.o(.constdata)
    app_dis_msg_handler_list                 0x01007d28   Data           8  app_dis.o(.constdata)
    app_dis_handlers                         0x01007d30   Data           8  app_dis.o(.constdata)
    app_rdtss_handlers                       0x01007d38   Data           8  app_rdtss.o(.constdata)
    app_rdts_svc_uuid                        0x01007d40   Data          16  app_rdtss.o(.constdata)
    app_rdts_att_db                          0x01007d50   Data         154  app_rdtss.o(.constdata)
    app_rdtss_msg_handler_list               0x01007dec   Data          24  app_rdtss.o(.constdata)
    Run_time                                 0x0100802c   Data           8  du_eye.o(.constdata)
    Delay_time                               0x01008034   Data          30  du_eye.o(.constdata)
    __ctype_table                            0x01008062   Data         129  ctype_o.o(.constdata)
    Region$$Table$$Base                      0x01008118   Number         0  anon$$obj.o(Region$$Table)
    Region$$Table$$Limit                     0x01008138   Number         0  anon$$obj.o(Region$$Table)
    rwip_rst_state                           0x20000000   Data           0  symbol_g15.obj ABSOLUTE
    ecc_env                                  0x20000004   Data           0  symbol_g15.obj ABSOLUTE
    aa_gen                                   0x20000010   Data           0  symbol_g15.obj ABSOLUTE
    lld_exp_sync_pos_tab                     0x20000018   Data           0  symbol_g15.obj ABSOLUTE
    sch_slice_params                         0x2000004c   Data           0  symbol_g15.obj ABSOLUTE
    hci_ext_host                             0x20000054   Data           0  symbol_g15.obj ABSOLUTE
    g_modem_flag                             0x20000060   Data           0  symbol_g15.obj ABSOLUTE
    g_clock_src                              0x20000061   Data           0  symbol_g15.obj ABSOLUTE
    g_hci_transport_onff                     0x20000062   Data           0  symbol_g15.obj ABSOLUTE
    g_delay_div_param                        0x20000063   Data           0  symbol_g15.obj ABSOLUTE
    g_delay_us_div_param                     0x20000064   Data           0  symbol_g15.obj ABSOLUTE
    g_loop_test                              0x20000065   Data           0  symbol_g15.obj ABSOLUTE
    g_ota_test                               0x20000066   Data           0  symbol_g15.obj ABSOLUTE
    g_ota_test_mtu_247_dle                   0x20000067   Data           0  symbol_g15.obj ABSOLUTE
    g_cal_hsi_cnt_value                      0x20000068   Data           0  symbol_g15.obj ABSOLUTE
    g_system_hsi_clk                         0x2000006c   Data           0  symbol_g15.obj ABSOLUTE
    g_user_set_stack_start                   0x20000070   Data           0  symbol_g15.obj ABSOLUTE
    g_rwip_patch_addr                        0x20000074   Data           0  symbol_g15.obj ABSOLUTE
    g_phy_2mbps_support                      0x20000078   Data           0  symbol_g15.obj ABSOLUTE
    g_auto_start_data_length_req             0x20000079   Data           0  symbol_g15.obj ABSOLUTE
    g_sleep_sleep_enable                     0x2000007a   Data           0  symbol_g15.obj ABSOLUTE
    g_status_io_stat                         0x2000007b   Data           0  symbol_g15.obj ABSOLUTE
    g_timeoutcnt                             0x2000007c   Data           0  symbol_g15.obj ABSOLUTE
    g_sleep_status_flag                      0x20000080   Data           0  symbol_g15.obj ABSOLUTE
    g_lsi_count_n_syscle                     0x20000084   Data           0  symbol_g15.obj ABSOLUTE
    g_lsi_accuracy                           0x20000088   Data           0  symbol_g15.obj ABSOLUTE
    g_lsi_1_syscle_cal_value                 0x2000008c   Data           0  symbol_g15.obj ABSOLUTE
    g_lsi_1_syscle_cnt_value                 0x20000090   Data           0  symbol_g15.obj ABSOLUTE
    g_recalib_hsi_flag                       0x20000094   Data           0  symbol_g15.obj ABSOLUTE
    g_hsi_accuracy                           0x20000098   Data           0  symbol_g15.obj ABSOLUTE
    g_hci_transport_type                     0x2000009c   Data           0  symbol_g15.obj ABSOLUTE
    g_hci_transport_process                  0x2000009d   Data           0  symbol_g15.obj ABSOLUTE
    acl_flow_ctrl_num                        0x2000009e   Data           0  symbol_g15.obj ABSOLUTE
    acl_flow_ctrl                            0x2000009f   Data           0  symbol_g15.obj ABSOLUTE
    g_acl_tx_sch_interval                    0x200000a0   Data           0  symbol_g15.obj ABSOLUTE
    dma_recv_data_time_window_size           0x200000a4   Data           0  symbol_g15.obj ABSOLUTE
    g_length_2_data_intv                     0x200000a8   Data           0  symbol_g15.obj ABSOLUTE
    g_soft_flow_tx_dummy                     0x200000ac   Data           0  symbol_g15.obj ABSOLUTE
    g_soft_flow_rx_len                       0x200000b0   Data           0  symbol_g15.obj ABSOLUTE
    g_hci_ch_type                            0x200000b2   Data           0  symbol_g15.obj ABSOLUTE
    g_uart_bps                               0x200000b4   Data           0  symbol_g15.obj ABSOLUTE
    g_uart_irq_wakeup_time                   0x200000b8   Data           0  symbol_g15.obj ABSOLUTE
    g_spi_data_ready_2_irq_rise              0x200000bc   Data           0  symbol_g15.obj ABSOLUTE
    g_lpclk_drift                            0x200000c0   Data           0  symbol_g15.obj ABSOLUTE
    g_rc32k_trim                             0x200000c4   Data           0  symbol_g15.obj ABSOLUTE
    g_sch_prog_fifo_iar_branch               0x200000c6   Data           0  symbol_g15.obj ABSOLUTE
    g_sch_arb_insert_branch                  0x200000c7   Data           0  symbol_g15.obj ABSOLUTE
    g_le_coded_phy_500                       0x200000c8   Data           0  symbol_g15.obj ABSOLUTE
    g_app_init_branch                        0x200000c9   Data           0  symbol_g15.obj ABSOLUTE
    g_adv_intv                               0x200000ca   Data           0  symbol_g15.obj ABSOLUTE
    g_twrm                                   0x200000d2   Data           0  symbol_g15.obj ABSOLUTE
